:100000000C94D9000C94D11A0C9472130C94D11A3C
:100010000C94D11A0C94D11A0C94D11A0C94AE0EE3
:100020000C94D11A0C94E80D0C942A0E0C946C0EBE
:100030000C94D11A0C94D11A0C94D11A0C94D11A94
:100040000C94D11A0C94D11A0C94D11A0C94D11A84
:100050000C94D11A0C94D11A0C94D11A0C94D11A74
:100060000C944A130C94E00C0C94E0110C94D11AEB
:100070000C94D11A0C94D11A0C94D11A0C942E0F02
:100080000C946B0F0C9442120C94D11A0C94D11A4C
:100090000C94D11A0C94D11A0C94D11A0C94D11A34
:1000A0000C94D11A0C94D11A0C94D11A0C94D11A24
:1000B0000C94D11A0C94D11A0C9419090C94D11ADD
:1000C0000C94220D0C94640D0C94A60D0C94A80FA6
:1000D0000C94D11A0C94D11A0C94D11A0C94D11AF4
:1000E0000C94D11A0C94D11A07634236B79BD8A747
:1000F0001A39685618AEBAAB558C1D3CB7CC57634D
:10010000BD6DEDFD753EF6177231BF000000803FFA
:1001100008000000BE922449123EABAAAA2ABECD16
:10012000CCCC4C3E00000080BEABAAAAAA3E000088
:100130000000BF000000803F000000000008417880
:10014000D3BB4387D1133D190E3CC3BD4282AD2BB7
:100150003E68EC8276BED98FE1A93E4C80EFFFBEAF
:1001600001C4FF7F3F000000000040004049804084
:100170004940580035A64058407C80407C4084006F
:1001800035B5408440BA8040BA40BE0035BD40BE5F
:1001900040C28040C240D20035C140D240D68040EB
:1001A000D640D80035D140D840E08040E040E10062
:1001B00035D311241FBECFEFCDBFDFE7DEBFEAE6A8
:1001C000F1E041E019C0B791A791379127910791CC
:1001D00007FD0EC097918791EF01F92FE82F0BBF14
:1001E00007900D92A217B307D9F7FE011BBE04C0FA
:1001F0001D92A217B307E1F7E23BF40721F70E9433
:0A02000087060C940301F894FFCF69
:10020A00CF93DF93CDB7DEB70E94EF0580E094E08D
:10021A0027EDFC01208380E294E027E3FC012083A0
:10022A0080E494E021E4FC01208380E694E025E860
:10023A00FC01208380E894E026E0FC01208380EA28
:10024A0094E028E0FC01208380E094E020E8FC01AF
:10025A00248380E294E020E3FC01248380E494E098
:10026A0020E4FC01248380E694E025E8FC01248351
:10027A0080E894E026E0FC01248380EA94E028E008
:10028A00FC01248380E094E0FC01108A80E094E081
:10029A00FC01118A80E094E0FC01128A80E094E07B
:1002AA00FC01138A80E094E0FC01148A80E094E067
:1002BA00FC01158A80E094E0FC01168A80E094E053
:1002CA00FC01178A80E294E0FC01108A80E294E043
:1002DA00FC01118A80E294E0FC01128A80E294E037
:1002EA00FC01138A80E294E0FC01148A80E294E023
:1002FA00FC01158A80E294E0FC01168A80E294E00F
:10030A00FC01178A80E494E0FC01108A80E494E0FE
:10031A00FC01118A80E494E0FC01128A80E494E0F2
:10032A00FC01138A80E494E0FC01148A80E494E0DE
:10033A00FC01158A80E494E0FC01168A80E494E0CA
:10034A0028E0FC01278B80E694E0FC01108A80E615
:10035A0094E024E0FC01218B80E694E0FC01128AFF
:10036A0080E694E0FC01138A80E694E024E0FC0134
:10037A00248B80E694E024E0FC01258B80E694E05F
:10038A0024E0FC01268B80E694E0FC01178A80E8D1
:10039A0094E0FC01108A80E894E0FC01118A80E86C
:1003AA0094E0FC01128A80E894E024E0FC01238BAB
:1003BA0080E894E0FC01148A80E894E0FC01158A44
:1003CA0080E894E0FC01168A80E894E0FC01178A30
:1003DA0080EA94E0FC01108A80EA94E0FC01118A28
:1003EA0080EA94E0FC01128A80EA94E0FC01138A14
:1003FA0080EA94E0FC01148A80EA94E0FC01158A00
:10040A0080EA94E0FC01168A80EA94E0FC01178AEB
:10041A0080E094E0FC01138680E094E0FC011686FB
:10042A0080E094E0FC01158680E094E0FC011486EB
:10043A0080E294E0FC01138680E294E0FC011686D7
:10044A0080E294E0FC01158680E294E0FC011486C7
:10045A0080E494E0FC01138680E494E0FC011686B3
:10046A0080E494E0FC01158680E494E0FC011486A3
:10047A0080E694E0FC01138680E694E0FC0116868F
:10048A0080E694E0FC01158680E694E0FC0114867F
:10049A0080E894E0FC01138680E894E0FC0116866B
:1004AA0080E894E0FC01158680E894E0FC0114865B
:1004BA0080EA94E0FC01138680EA94E0FC01168647
:1004CA0080EA94E0FC01158680EA94E0FC01148637
:1004DA0080EE95E0FC01118680EE95E0FC01118228
:1004EA0080EE95E0FC01108280EE95E0FC0114821A
:1004FA0080EE95E0FC01168280EE95E024E0FC0196
:10050A00278380EE95E0FC01108680EE95E0FC01E1
:10051A00158280EE95E0FC01128280EE95E0FC01E6
:10052A00138280EE95E0FC0112868EE699E10E9424
:10053A00C31686E799E10E94D6168EE799E10E94D2
:10054A00E91686E899E10E94FC168EE899E10E9474
:10055A000F1786E999E10E9422178EE999E10E9414
:10056A00351786EA99E10E9448178EEA99E10E94B6
:10057A005B1786EB99E10E946E178EEB99E10E9458
:10058A00811786EC99E10E9494178EEC99E10E94FA
:10059A00A71786ED99E10E94BA178EED99E10E949C
:1005AA00CD1786EE99E10E94E0178EEE99E10E943E
:1005BA00F31786EF99E10E9406188EEF99E10E94DF
:1005CA00191886E09AE10E942C188EE09AE10E949E
:1005DA003F1886E19AE10E9452188EE19AE10E9440
:1005EA00651886E29AE10E9478188EE29AE10E94E2
:1005FA008B1886E39AE10E949E188EE39AE10E9484
:0A060A00B1180000DF91CF910895B0
:10061400CF92DF92EF92FF920F931F93CF93DF93CA
:10062400CDB7DEB72597CDBFDEBF1A821B821C82F1
:100634001D8219822091D6403091D7408091C040CC
:100644009091C1402817390708F0C6C01092C040E5
:100654001092C1401982B8C08981882F90E0880F18
:10066400991F880F991F885A9F4BFC01C080D18025
:10067400E280F3808091D4409091D540CC01A0E0F9
:10068400B0E0BC01CD010E94E50FDC01CB019C016F
:10069400AD01C701B6010E94C61ADC01CB018A83F1
:1006A4009B83AC83BD838981882F90E0880F991F39
:1006B400880F991F885A9F4BFC0110821182128265
:1006C40013828981082F10E08A819B81AC81BD81CE
:1006D400BC01CD010E945D0CDC01CB019801220F0D
:1006E400331F220F331F2C593F4BF9018083918311
:1006F400A283B3838981082F10E08981882F90E039
:10070400880F991F880F991F8C599F4BFC0180817A
:100714009181A281B38120E030E048EC52E4BC0135
:10072400CD010E94CA1ADC01CB0120E030E040E098
:100734005FE3BC01CD010E948F1ADC01CB01BC0137
:10074400CD010E941312DC01CB01CC01A0E0B0E08A
:10075400BC01CD010E94E50FDC01CB019801220F01
:10076400331F220F331F2C593F4BF9018083918390
:10077400A283B3838981082F10E08981882F90E0B8
:10078400880F991F880F991F8C599F4BFC018081FA
:100794009181A281B38120E030E048EC52E4BC01B5
:1007A400CD010E94C61ADC01CB019801220F331F30
:1007B400220F331F2C593F4BF90180839183A2836D
:1007C400B38389818F5F89838981833008F444CF1F
:1007D4001092D4401092D5408981882F90E0880FE0
:1007E400991F880F991F8C599F4BFC01808191811F
:1007F400A281B381BC01CD012596CDBFDEBFDF91BF
:10080400CF911F910F91FF90EF90DF90CF900895BB
:100814000F931F93CF93DF931F92CDB7DEB78983D6
:100824008981882F90E08230910509F44DC083308E
:1008340091052CF4009759F00197E1F18CC08330B5
:10084400910509F44BC0049709F452C084C0809107
:10085400804090918140A0918240B091834000E01B
:1008640010E09801AC01BD0181E00E94340A80913E
:10087400804090918140A0918240B091834000E0FB
:1008840010E020EF32E4AC01BD0182E00E94340AA2
:100894008091804090918140A0918240B0918340AA
:1008A40000E010E020E733E4AC01BD0183E00E94E6
:1008B400340A53C000E010E0980140E050E0BA016F
:1008C40083E00E94340A49C000E010E0980140E04F
:1008D40050E0BA0182E00E94340A3FC000E010E018
:1008E400980140E050E0BA0181E00E94340A35C02A
:1008F4008091804090918140A0918240B09183404A
:1009040000E010E020E733E4AC01BD0181E00E9487
:10091400340A8091804090918140A0918240B091AE
:10092400834000E010E020EF32E4AC01BD0182E03E
:100934000E94340A8091804090918140A09182402D
:10094400B091834000E010E09801AC01BD0183E068
:100954000E94340A02C081E001C080E00F90DF9160
:08096400CF911F910F9108953E
:10096C00CF92DF92EF92FF92CF93DF9300D0CDB76F
:10097C00DEB719821A8219821A8281C089819A8102
:10098C0084589F4BFC0180810E94A0149C0189819A
:10099C009A81880F991F80599F4BFC0120833183CA
:1009AC002091D6403091D7408091C0409091C14069
:1009BC002817390708F45EC089819A81880F991F1E
:1009CC0080599F4BFC01808191818939984008F4B2
:1009DC0051C08091D4409091D54001968093D440E1
:1009EC009093D54089819A81880F991F880F991F00
:1009FC00885A9F4BFC01C080D180E280F3808981B2
:100A0C009A81880F991F80599F4BFC01808191819D
:100A1C00CC01A0E0B0E0BC01CD010E94E50FDC01EF
:100A2C00CB0123EA36E043E55AE3BC01CD010E9439
:100A3C00CA1ADC01CB0120E030E040E050E4BC01FC
:100A4C00CD010E948D0ADC01CB019C01AD01C701D7
:100A5C00B6010E948F1ADC01CB0129813A81220F49
:100A6C00331F220F331F285A3F4BF9018083918388
:100A7C00A283B38389819A81019689839A83898120
:100A8C009A81039708F47ACF00000F900F90DF91B2
:0C0A9C00CF91FF90EF90DF90CF90089575
:100AA800CF93DF93CDB7DEB72F97CDBFDEBF1982C7
:100AB80083C088E090E0FC01828188230CF47CC02C
:100AC8001092C0401092C1408981809589838981A4
:100AD8000E945D1080E090E0AAEFB3E48A839B83D4
:100AE800AC83BD8320E030E04AE753E46A817B8130
:100AF8008C819D810E94CA1ADC01CB018E839F8361
:100B0800A887B98720E030E040E85FE36E817F8105
:100B1800888599850E94BC1A88232CF481E090E08E
:100B28008A879B873FC020E03FEF4FE757E46E81FD
:100B38007F81888599850E94C11A18164CF520E096
:100B480030E040E251E46A817B818C819D810E9482
:100B5800CA1ADC01CB01BC01CD010E941312DC01D1
:100B6800CB018A879B870FC089E190E08C879D879E
:100B78008C859D850197F1F78C879D878A859B8554
:100B880001978A879B878A859B85892B69F714C07B
:100B98006E817F81888599850E941312DC01CB01C3
:100BA8008A879B878A859B858E879F878E859F8569
:100BB8000197F1F78E879F878091C0409091C1403F
:100BC80081329E4408F475CF00002F96CDBFDEBF5A
:060BD800DF91CF910895AA
:100BDE00CF93DF93CDB7DEB72697CDBFDEBF198299
:100BEE0012C08981882F90E080579B4F2981222F38
:100BFE0030E020573B4FF90120812860FC01208313
:100C0E0089818F5F89838981883058F31A8212C057
:100C1E008A81882F90E080559B4F2A81222F30E0C9
:100C2E0020553B4FF90120812860FC0120838A81E9
:100C3E008F5F8A838A81883058F31B8212C08B8122
:100C4E00882F90E0805F9B4F2B81222F30E0205F1A
:100C5E003B4FF90120812860FC0120838B818F5F3F
:100C6E008B838B81883058F31C8212C08C81882F25
:100C7E0090E0805D9B4F2C81222F30E0205D3B4F1A
:100C8E00F90120812860FC0120838C818F5F8C8389
:100C9E008C81883058F31D8212C08D81882F90E090
:100CAE00805B9B4F2D81222F30E0205B3B4FF90163
:100CBE0020812860FC0120838D818F5F8D838D8143
:100CCE00883058F31E8212C08E81882F90E0805992
:100CDE009B4F2E81222F30E020593B4FF90120816E
:100CEE002860FC0120838E818F5F8E838E818830F9
:100CFE0058F300002696CDBFDEBFDF91CF91089549
:100D0E00CF93DF93CDB7DEB72E97CDBFDEBF0E9458
:100D1E00581480E090E0AAE7B4E489839A83AB8309
:100D2E00BC8320E030E84BEB55E469817A818B81FE
:100D3E009C810E94CA1ADC01CB018D839E83AF83F6
:100D4E00B88720E030E040E85FE36D817E818F81DF
:100D5E0098850E94BC1A88232CF481E090E0898744
:100D6E009A873FC020E03FEF4FE757E46D817E81C9
:100D7E008F8198850E94C11A18164CF520E030E03C
:100D8E0040E251E469817A818B819C810E94CA1A6A
:100D9E00DC01CB01BC01CD010E941312DC01CB01A1
:100DAE0089879A870FC088E592E08B879C878B8511
:100DBE009C850197F1F78B879C8789859A8501978A
:100DCE0089879A8789859A85892B69F714C06D81E1
:100DDE007E818F8198850E941312DC01CB01898759
:100DEE009A8789859A858D879E878D859E850197A1
:100DFE00F1F78D879E870E94E5140E9454050E948C
:080E0E00F00E0E94D809FDCF8F
:100E1600CF93DF93CDB7DEB783E080930A408CEFA4
:100E260080932240809170409091714080930B4056
:100E360090930C40809172409091734080930D4046
:100E460090930E40809174409091754080930F402E
:100E5600909310408091644090916540A0916640C7
:100E6600B09167408093154090931640A093174029
:100E7600B09318408091684090916940A0916A4073
:100E8600B0916B408093194090931A40A0931B40F9
:100E9600B0931C4080916C4090916D40A0916E4043
:100EA600B0916F4080931D4090931E40A0931F40C9
:100EB600B09320408091E040813021F08091E04065
:100EC600813021F482E38093214007C08091E04085
:100ED600823019F48CE38093214068E170E08AE067
:0E0EE60090E40E949E120000DF91CF910895CB
:100EF4000E949C1A58F00E94951A40F029F45F3F12
:100F040029F00C94B11A51110C94A41A0C94CE1A11
:100F14000E94071568F39923B1F3552391F3951BA8
:100F2400550BBB27AA2762177307840738F09F5F06
:100F34005F4F220F331F441FAA1FA9F335D00E2E73
:100F44003AF0E0E832D091505040E695001CCAF7E0
:100F54002BD0FE2F29D0660F771F881FBB1F2617A3
:100F640037074807AB07B0E809F0BB0B802DBF017A
:100F7400FF2793585F4F3AF09E3F510578F00C9449
:100F8400B11A0C94A41A5F3FE4F3983ED4F3869507
:100F940077956795B795F7959F5FC9F7880F911D6A
:100FA4009695879597F90895E1E0660F771F881F56
:100FB400BB1F621773078407BA0720F0621B730B09
:0C0FC400840BBA0BEE1F88F7E09508952F
:100FD0000E94951A38F00E949C1A20F0952311F077
:100FE0000C94B11A0C94CE1A11240C94A41A0E94D9
:100FF000071570F3959FC1F3950F50E0551F629F41
:10100000F001729FBB27F00DB11D639FAA27F00D61
:10101000B11DAA1F649F6627B00DA11D661F829F88
:101020002227B00DA11D621F739FB00DA11D621F6D
:10103000839FA00D611D221F749F3327A00D611D8A
:10104000231F849F600D211D822F762F6A2F11246C
:101050009F5750409AF0F1F088234AF0EE0FFF1F9F
:10106000BB1F661F771F881F91505040A9F79E3FF6
:10107000510580F00C94B11A0C94A41A5F3FE4F36C
:10108000983ED4F3869577956795B795F795E7954C
:101090009F5FC1F7FE2B880F911D9695879597F955
:0210A0000895B1
:1010A2000E94951A38F00E949C1A20F039F49F3F52
:1010B20019F426F40C94CE1A0EF4E095E7FB0C9486
:1010C200B11AE92F0E94071558F3BA17620773077E
:1010D2008407950720F079F4A6F50C94A31A0EF470
:1010E200E0950B2EBA2FA02D0B01B90190010C0136
:1010F200CA01A0011124FF27591B99F0593F50F44E
:10110200503E68F11A16F040A22F232F342F4427A5
:10111200585FF3CF469537952795A795F04053959D
:10112200C9F77EF41F16BA0B620B730B840BBAF06D
:101132009150A1F0FF0FBB1F661F771F881FC2F7D8
:101142000EC0BA0F621F731F841F48F487957795EC
:101152006795B795F7959E3F08F0B0CF9395880FA6
:0C11620008F09927EE0F979587950895E7
:10116E00CF93DF93CDB7DEB780E09AE02FEF3FEF5E
:10117E00FC0120A731A780E09AE02FEF3FEFFC01A2
:10118E0022A733A780E09AE02FEF3FEFFC0124A7C0
:10119E0035A780E09AE021E030E0FC0120A331A3E6
:1011AE0080E09AE0FC01118280E09AE0FC0112825C
:1011BE0080E09AE0FC01138280E09AE0FC01148248
:1011CE0080E09AE0FC01158280E09AE0FC01168234
:1011DE0080E09AE0FC01178280E09AE0FC0116861E
:1011EE0080E09AE020E6FC01218780E09AE021E091
:1011FE00FC01228780E09AE0FC01138680E09AE0F1
:10120E002EEF3FEFFC0126A337A380E09AE0FC010E
:10121E00178680E09AE027E0FC01208380E0DF91D2
:04122E00CF910895BF
:101232001F920F9200903F000F92112400903B00EA
:101242000F922F933F934F935F936F937F938F935D
:101252009F93AF93BF93EF93FF93CF93DF93CDB75A
:10126200DEB78091C8409091C940892B31F08091BE
:10127200C8409091C940FC01099581E08093DF400C
:101282008091C0409091C14001968093C04090935C
:10129200C1408091784090917940A0917A40B0917C
:1012A2007B400196A11DB11D8093784090937940B7
:1012B200A0937A40B0937B4080E49AE021E0FC0165
:1012C20023870000DF91CF91FF91EF91BF91AF9102
:1012D2009F918F917F916F915F914F913F912F914C
:1012E2000F9000923B000F9000923F000F901F90D2
:0212F20018954D
:1012F400CF93DF93CDB7DEB780E49AE0FC0110A66C
:1013040011A680E49AE0FC0112A613A680E49AE0F8
:101314002CEE35E0FC0124A735A780E49AE021E017
:1013240030E0FC0120A331A380E49AE0FC011182A7
:1013340080E49AE0FC01128280E49AE0FC011382CA
:1013440080E49AE0FC01148280E49AE0FC011582B6
:1013540080E49AE0FC01168280E49AE0FC011782A2
:1013640080E49AE0FC01168680E49AE020E6FC0121
:10137400218780E49AE021E0FC01228780E49AE05E
:10138400FC01138680E49AE02CEE35E0FC0126A3F0
:1013940037A380E49AE0FC01178680E49AE027E012
:0C13A400FC01208380E0DF91CF910895D0
:1013B000CF93DF9300D0CDB7DEB719821A82809128
:1013C000DF40813061F41092DF400E94B6040E9439
:1013D0000B070E94C60B0E942D0B0E940A038091EE
:1013E000784090917940A0917A40B0917B40803CC8
:1013F000944DA140B10558F0109278401092794078
:1014000010927A4010927B4080E00E940A040E9471
:101410002319882319F119821A820EC00E949A1387
:10142000282F89819A818E529F4BFC0120838981CC
:101430009A81019689839A8389819A81029770F3B0
:10144000109278401092794010927A4010927B402E
:101450001092DF408091D3400E940A0400000F9058
:081460000F90DF91CF91089578
:101468000F931F93CF93DF93CDB7DEB72F97CDBFE1
:10147800DEBF8F83488759876A877B870C871D87DC
:101488002E873F8719821A821B821C821D821E8228
:1014980088859985AA85BB85BC01CD010E9422104B
:1014A800DC01CB0189839A83AB83BC838C859D85C2
:1014B800AE85BF85BC01CD010E9421138D839E831B
:1014C8008F810E94F9180E94561989819A81AB81EF
:1014D800BC81AC01BD0180E090E40E940F0C8D81BD
:1014E8009E81BC0180E090EC0E94C3140E946219A6
:1014F80040E050E060E070E080E090E00E94E81397
:1015080000002F96CDBFDEBFDF91CF911F910F91C5
:02151800089534
:10151A00FA01EE0FFF1F309621053105A1F1611581
:10152A00710561F48038BFE39B0749F168949038EC
:10153A00810561F08038BFEF9B0741F099234AF596
:10154A00FF3FE1053105210519F1E8940894E79573
:10155A00D901AA2329F4AB2FBE2FF85FD0F310C00C
:10156A00FF5F70F4A695E0F7F73950F019F0FF3AEB
:10157A0038F49F779F930DD00F9007FC90580895E9
:10158A0046F00C94CE1A60E070E080E89FE308957C
:10159A004FE79F775F934F933F932F930E94E50AFC
:1015AA002F913F914F915F910E94CA1A0C94A010FB
:1015BA0016F00C9415190C94CE1A68940C94B11A5E
:1015CA000E940F15A8F39923C1F3AEF3DF93CF93CB
:1015DA001F930F93FF92C92FDD2788232AF02197A3
:1015EA00660F771F881FDAF720E030E040E85FEBEC
:1015FA009FE3883920F0803E38F021968F770E9449
:10160A008F1AE0E1F1E004C00E948F1AEDE3F1E0E5
:10161A000E94C1138B01BE01EC01FB2E6F577109A9
:10162A007595771F880B990B0E94E70F28E132E71F
:10163A0041E35FE30E94F707AF2D9801AE01FF90E7
:10164A000F911F91CF91DF910E9462080C94E818C4
:10165A00CF93DF9300D000D0CDB7DEB719821A82BC
:10166A001B821C828091064090910740CC01A0E029
:10167A00B0E0BC01CD010E94E50FDC01CB012BEDEE
:10168A003AE241EB54E3BC01CD010E94CA1ADC01E3
:10169A00CB0189839A83AB83BC8389819A81AB818D
:1016AA00BC8126EA3BE944E45BE3BC01CD010E942C
:1016BA00C11A181694F489819A81AB81BC812FE6EC
:1016CA0032E143E05CE3BC01CD010E94BC1A8823ED
:1016DA0024F41092114080E004C081E0809311400C
:0E16EA0081E02496CDBFDEBFDF91CF91089541
:1016F800CF93DF931F92CDB7DEB780E298E021EA5F
:1017080031E0FC012087318780E298E020EDFC0180
:10171800258380E298E020ECFC01268380E298E0B3
:1017280023E0FC01278380E298E021E0FC01238785
:1017380080E298E0FC01148680E298E0FC011686BD
:1017480080E298E0FC011586198289818093D9404E
:1017580089818093D84089818093DA4089818093F8
:10176800DC4089818093DB4089818093DD4089E476
:1017780090E4809325409093264000000F90DF91DD
:04178800CF91089560
:10178C00CF93DF9300D0CDB7DEB719821A822091A8
:10179C00D6403091D7408091C0409091C1402817DD
:1017AC00390788F519821A822AC089819A81880F93
:1017BC00991F880F991F8C599F4BFC018081918137
:1017CC00A281B3812AE939E949E95EE3BC01CD0183
:1017DC000E94BC1A181644F089819A818E5E9F4B28
:1017EC0021E0FC01208306C089819A818E5E9F4B8B
:1017FC00FC01108289819A81019689839A8389815F
:10180C009A81039790F200000F900F90DF91CF9187
:02181C0008952D
:10181E00CF93DF93CDB7DEB72A97CDBFDEBF8D83D3
:10182E009E834F83588769877A878D819E818983AE
:10183E009A838D819E818B839C838F819885A985C8
:10184E00BA858827907CBF70072E7EE0B695A79547
:10185E00979587957A95D1F7702D9C0189819A81FC
:10186E00822B932B89839A838F8198859F732B81EB
:10187E003C81822B932B8B839C8380E090E20E9491
:10188E0070128B819C810E94701289819A810E94B4
:10189E00701200002A96CDBFDEBFDF91CF91089562
:1018AE0019F416F40C94CE1A0C9415190E940F15F7
:1018BE00B8F39923C9F3B6F39F57550B87FF0E94D0
:1018CE00AA1A0024A0E640EA9001805856959795F2
:1018DE0028F4805C660F771F881F20F026173707C5
:1018EE00480730F4621B730B840B202931294A2BD5
:1018FE00A69517940794202531254A2758F7660F89
:10190E00771F881F20F026173707480730F4620B21
:10191E00730B840B200D311D411DA09581F7B9016C
:0C192E00842F9158880F96958795089596
:10193A00CF93DF93CDB7DEB780E096E0FC0111824A
:10194A0080E096E023E0FC01228380E096E0FC013F
:10195A00138280E096E0FC01148280E096E0FC01AC
:10196A00168680E096E0FC01138680E096E0FC0192
:10197A00148680E096E024E0FC01208780E096E06F
:10198A0020E4FC01218780E096E022E0FC01258327
:10199A0080E096E0FC01148A158A80E096E0FC015A
:1019AA00128A138A80E096E021E2FC01208380E01B
:0619BA00DF91CF910895BA
:1019C0001F920F9200903F000F92112400903B0055
:1019D0000F922F933F934F935F936F937F938F93C8
:1019E0009F93AF93BF93EF93FF93CF93DF93CDB7C5
:1019F000DEB78091BE409091BF40892B31F080913D
:101A0000BE409091BF40FC01099580E096E022E045
:101A1000FC0125870000DF91CF91FF91EF91BF91ED
:101A2000AF919F918F917F916F915F914F913F9176
:101A30002F910F9000923B000F9000923F000F906B
:041A40001F90189546
:101A44001F920F9200903F000F92112400903B00D0
:101A54000F922F933F934F935F936F937F938F9343
:101A64009F93AF93BF93EF93FF93CF93DF93CDB740
:101A7400DEB78091C2409091C340892B31F08091B0
:101A8400C2409091C340FC01099580E49AE020E1B2
:101A9400FC0123870000DF91CF91FF91EF91BF916B
:101AA400AF919F918F917F916F915F914F913F91F2
:101AB4002F910F9000923B000F9000923F000F90E7
:041AC4001F901895C2
:101AC8001F920F9200903F000F92112400903B004C
:101AD8000F922F933F934F935F936F937F938F93BF
:101AE8009F93AF93BF93EF93FF93CF93DF93CDB7BC
:101AF800DEB78091C4409091C540892B31F0809128
:101B0800C4409091C540FC01099580E49AE020E228
:101B1800FC0123870000DF91CF91FF91EF91BF91E6
:101B2800AF919F918F917F916F915F914F913F916D
:101B38002F910F9000923B000F9000923F000F9062
:041B48001F9018953D
:101B4C001F920F9200903F000F92112400903B00C7
:101B5C000F922F933F934F935F936F937F938F933A
:101B6C009F93AF93BF93EF93FF93CF93DF93CDB737
:101B7C00DEB78091C6409091C740892B31F080919F
:101B8C00C6409091C740FC01099580E49AE020E49E
:101B9C00FC0123870000DF91CF91FF91EF91BF9162
:101BAC00AF919F918F917F916F915F914F913F91E9
:101BBC002F910F9000923B000F9000923F000F90DE
:041BCC001F901895B9
:101BD0001F920F9200903F000F92112400903B0043
:101BE0000F922F933F934F935F936F937F938F93B6
:101BF0009F93AF93BF93EF93FF93CF93DF93CDB7B3
:101C0000DEB78091CA409091CB40892B31F0809112
:101C1000CA409091CB40FC01099580E09AE020E118
:101C2000FC0123870000DF91CF91FF91EF91BF91DD
:101C3000AF919F918F917F916F915F914F913F9164
:101C40002F910F9000923B000F9000923F000F9059
:041C50001F90189534
:101C54001F920F9200903F000F92112400903B00BE
:101C64000F922F933F934F935F936F937F938F9331
:101C74009F93AF93BF93EF93FF93CF93DF93CDB72E
:101C8400DEB78091CC409091CD40892B31F080918A
:101C9400CC409091CD40FC01099580E09AE020E28F
:101CA400FC0123870000DF91CF91FF91EF91BF9159
:101CB400AF919F918F917F916F915F914F913F91E0
:101CC4002F910F9000923B000F9000923F000F90D5
:041CD4001F901895B0
:101CD8001F920F9200903F000F92112400903B003A
:101CE8000F922F933F934F935F936F937F938F93AD
:101CF8009F93AF93BF93EF93FF93CF93DF93CDB7AA
:101D0800DEB78091CE409091CF40892B31F0809101
:101D1800CE409091CF40FC01099580E09AE020E404
:101D2800FC0123870000DF91CF91FF91EF91BF91D4
:101D3800AF919F918F917F916F915F914F913F915B
:101D48002F910F9000923B000F9000923F000F9050
:041D58001F9018952B
:101D5C001F920F9200903F000F92112400903B00B5
:101D6C000F922F933F934F935F936F937F938F9328
:101D7C009F93AF93BF93EF93FF93CF93DF93CDB725
:101D8C00DEB78091D0409091D140892B31F0809179
:101D9C00D0409091D140FC01099580E09AE021E07F
:101DAC00FC0123870000DF91CF91FF91EF91BF9150
:101DBC00AF919F918F917F916F915F914F913F91D7
:101DCC002F910F9000923B000F9000923F000F90CC
:041DDC001F901895A7
:101DE0000F931F93CF93DF93CDB7DEB780918040E1
:101DF00090918140A0918240B091834000E010E03A
:101E00009801AC01BD0181E00E94340A80918040BC
:101E100090918140A0918240B091834000E010E019
:101E200020EF32E4AC01BD0182E00E94340A8091CF
:101E3000804090918140A0918240B091834000E029
:101E400010E020E733E4AC01BD0183E00E94340AD6
:0C1E50000000DF91CF911F910F910895C9
:101E5C001F920F9200903F000F92112400903B00B4
:101E6C000F922F933F934F935F936F937F938F9327
:101E7C009F93AF93BF93EF93FF93CF93DF93CDB724
:101E8C00DEB78091BA409091BB40892B31F08091A4
:101E9C00BA409091BB40FC0109950000DF91CF91B5
:101EAC00FF91EF91BF91AF919F918F917F916F9126
:101EBC005F914F913F912F910F9000923B000F90AB
:0A1ECC0000923F000F901F90189540
:101ED6001F920F9200903F000F92112400903B003A
:101EE6000F922F933F934F935F936F937F938F93AD
:101EF6009F93AF93BF93EF93FF93CF93DF93CDB7AA
:101F0600DEB78091BC409091BD40892B31F0809125
:101F1600BC409091BD40FC0109950000DF91CF9136
:101F2600FF91EF91BF91AF919F918F917F916F91AB
:101F36005F914F913F912F910F9000923B000F9030
:0A1F460000923F000F901F901895C5
:101F50001F920F9200903F000F92112400903B00BF
:101F60000F922F938F939F93EF93FF93CF93DF93D2
:101F7000CDB7DEB780910040813059F41092004017
:101F800080E29AE0FC0180819181809306409093E9
:101F9000074081E08093014081E08093044088EC19
:101FA00096E021E0FC0123830000DF91CF91FF91B7
:101FB000EF919F918F912F910F9000923B000F9086
:0A1FC00000923F000F901F9018954B
:101FCA00E89409C097FB3EF49095809570956195C9
:101FDA007F4F8F4F9F4F9923A9F0F92F96E9BB277F
:101FEA009395F695879577956795B795F111F8CFFB
:101FFA00FAF4BB0F11F460FF1BC06F5F7F4F8F4F66
:10200A009F4F16C0882311F096E911C0772321F05B
:10201A009EE8872F762F05C0662371F096E8862FF3
:10202A0070E060E02AF09A95660F771F881FDAF74A
:0A203A00880F9695879597F9089591
:10204400CF93DF93CDB7DEB72897CDBFDEBF6D83C7
:102054007E838F83988719821A821B821C8227E7CA
:102064003CEC4BE251E46D817E818F8198850E9426
:10207400CA1ADC01CB0120E030E040E05FE3BC01A0
:10208400CD010E948F1ADC01CB01BC01CD010E945D
:102094001312DC01CB0189839A83AB83BC838981CE
:1020A4009A81AB81BC81BC01CD012896CDBFDEBF36
:0620B400DF91CF910895B9
:1020BA00CF93DF931F92CDB7DEB7898389818823B7
:1020CA00B1F082E08093E04080E090E0A0E7B2E4E3
:1020DA008093804090938140A0938240B093834044
:1020EA0080E490E08093D6409093D74015C081E079
:1020FA008093E04080E090E0A8E4B2E480938040DE
:10210A0090938140A0938240B093834080E590E011
:10211A008093D6409093D7400E940B0700000F90FF
:06212A00DF91CF91089542
:1021300029F416F00C94B11A0C94A31A0C94CE1A2C
:102140000E940F15A8F39638A0F707F80F92E894AD
:102150002BE33AEA48EB5FE70E94FA070F920F92EF
:102160000F924DB75EB70F920E947911E8EEF0E042
:102170000E94C1134F915F91EF91FF91E595EE1F82
:10218000FF1F49F0FE57E0684427EE0F441FFA9501
:10219000E1F74195550B0E94D6100F9007FE0C9465
:0421A000861A0895FE
:1021A4000C94B11A0C9415190E940F15D8F39923A5
:1021B400C9F3940F511DA3F39150504094F059F07A
:1021C400882332F0660F771F881F91505040C1F763
:1021D4009E3F51052CF7880F911D9695879597F989
:1021E40008955F3FACF0983E9CF0BB2786957795A9
:1021F4006795B79508F4B1609395C1F7BB0F58F78D
:1022040011F460FFE8CF6F5F7F4F8F4F9F4FE3CF95
:042214000C94A41A68
:10221800CF93DF93CDB7DEB72797CDBFDEBF8C83D3
:102228009D836E837F838C819D8189839A8319C066
:1022380080E499E029813A81F9012081FC01248315
:10224800000080E499E0FC0183818823D4F780E4CE
:1022580099E0FC0184818B8389819A810196898325
:102268009A838E819F819C01215031092E833F835F
:10227800892BF1F600002796CDBFDEBFDF91CF9105
:022288000895B7
:10228A00CF93DF9300D0CDB7DEB78A838091DB404E
:10229A008F5F8F70898300008091DD408031E1F388
:1022AA008981882F90E0875C9F4B2A81FC012083DB
:1022BA0089818093DB400FB6F8940F928091DD40BC
:1022CA008F5F8093DD400F900FBE80E298E020E29E
:1022DA0038E0F90125812062FC01258300000F9076
:0822EA000F90DF91CF910895E0
:1022F200FA01DC01AA0FBB1F9B01AC01BF5728F4F6
:10230200222733274427507820C0B75190F4AB2FAF
:102312000024469537952795011CA395D2F30020FA
:1023220071F0220F331F441FB395DAF30ED00C94D1
:102332008E1A61307105A0E88A07B94630F49B0114
:10234200AC016627772788279078309621F0208382
:08235200318342835383089597
:10235A00CF93DF931F92CDB7DEB78091DD408823FC
:10236A00C1F08091DC408F5F8F708983898180936F
:10237A00DC4080E298E02981222F30E0275C3F4B45
:10238A00F9012081FC0122838091DD4081508093F4
:10239A00DD408091DD40882349F480E298E020E224
:1023AA0038E0F90125812F7DFC01258300000F907B
:0623BA00DF91CF910895B0
:1023C0001F920F9200903F000F92112400903B004B
:1023D0000F922F938F939F93EF93FF93CF93DF935E
:1023E000CDB7DEB780E29AE0FC011082118281E075
:1023F0008093004081E08093034080EC96E021E0F0
:10240000FC0123830000DF91CF91FF91EF919F9119
:102410008F912F910F9000923B000F9000923F0000
:062420000F901F901895BB
:102426000E940F1588F09F5798F0B92F9927B7513A
:10243600B0F0E1F0660F771F881F991F1AF0BA9562
:10244600C9F714C0B13091F00E94A31AB1E0089503
:102456000C94A31A672F782F8827B85F39F0B93FF5
:10246600CCF3869577956795B395D9F73EF4909515
:0E2476008095709561957F4F8F4F9F4F089511
:102484001F920F9200903F000F92112400903B0086
:102494000F922F933F938F939F93EF93FF93CF9339
:1024A400DF93CDB7DEB780E298E020E238E0F901AF
:1024B40024812064FC0124830000DF91CF91FF91EB
:1024C400EF919F918F913F912F910F9000923B003C
:0C24D4000F9000923F000F901F90189591
:1024E000CF93DF93CDB7DEB72797CDBFDEBF8E8307
:1024F0009F8325E0CE010196FC01322F11923A957F
:10250000E9F78E819F81892F992789838E818A831C
:102510008091084060E00E940E1462E0CE010196B6
:102520000E942D168091084061E00E940E14000068
:0C2530002796CDBFDEBFDF91CF9108954C
:10253C00CF93DF93CDB7DEB72697CDBFDEBF8B83AE
:10254C009C836D837E8319821A8219821A8210C031
:10255C008B819C819C012F5F3F4F2B833C83FC0123
:10256C0080810E94451189819A81019689839A8381
:10257C0029813A818D819E818217930748F700004B
:0C258C002696CDBFDEBFDF91CF910895F1
:10259800CF93DF93CDB7DEB760E088E790E00E9485
:1025A8005B1660E08CE790E00E945B1660E181E6D4
:1025B80090E00E945B1660E080E690E00E945B1667
:1025C80060E083E690E00E945B1664E288E690E0B3
:1025D8000E945B1660E082E690E00E945B1680E055
:0625E800DF91CF91089580
:1025EE00CF93DF9300D0CDB7DEB780E298E0FC0149
:1025FE00808189838091D8408F5F8F708A8380918C
:10260E00D9409A81981781F08A818093D8408A8127
:10261E00882F90E0875D9F4B2981FC01208380915C
:10262E00DA408F5F8093DA4000000F900F90DF91B9
:04263E00CF9108959B
:10264200CF93DF93CDB7DEB72697CDBFDEBF6B83C7
:102652007C838D839E8319821A8221E63BE046E3C6
:1026620051E46B817C818D819E810E94CA1ADC01BA
:10267200CB01BC01CD010E941312DC01CB01898385
:102682009A8389819A812696CDBFDEBFDF91CF9151
:022692000895A9
:102694001F920F9200903F000F92112400903B0074
:1026A4000F922F938F939F93EF93FF93CF93DF9387
:1026B400CDB7DEB780E096E021E0FC01258700007D
:1026C400DF91CF91FF91EF919F918F912F910F9077
:1026D40000923B000F9000923F000F901F901895BE
:1026E4001F920F9200903F000F92112400903B0024
:1026F4000F922F938F939F93EF93FF93CF93DF9337
:10270400CDB7DEB780E890E021E0FC01228700002D
:10271400DF91CF91FF91EF919F918F912F910F9026
:1027240000923B000F9000923F000F901F9018956D
:10273400CF93DF931F92CDB7DEB700008091DA40CC
:102744008823E1F38091D9408F5F8F7089838981D9
:102754008093D9400FB6F8940F928091DA4081505B
:102764008093DA400F900FBE8981882F90E0875DB7
:0E2774009F4BFC0180810F90DF91CF91089563
:10278200DF93CF931F930F93FF92EF92DF927B0120
:102792008C01689406C0DA2EEF010E94F707FE0151
:1027A200E894A5912591359145915591A6F3EF01B4
:1027B2000E946208FE019701A801DA9469F7DF908E
:0E27C200EF90FF900F911F91CF91DF9108953E
:1027D000CF93DF93CDB7DEB72897CDBFDEBF8B8316
:1027E0009C836D837E834F83588719821A822B8145
:1027F0003C818D819E81282B392B8F819885822B5E
:10280000932B89839A8389819A810E947012000098
:0C2810002896CDBFDEBFDF91CF91089568
:10281C00CF93DF9300D0CDB7DEB789836A838981EC
:10282C00882F90E08230910551F08330910559F05A
:10283C00019709F00CC08A810E947F1508C08A811B
:10284C000E94981504C08A810E94B11500000000F6
:0A285C000F900F90DF91CF910895C7
:10286600CF93DF9300D0CDB7DEB789836A838981A2
:10287600882F90E08230910551F08330910559F010
:10288600019709F00CC08A810E94CA1508C08A8186
:102896000E94E31504C08A810E94FC150000000016
:0A28A6000F900F90DF91CF9108957D
:1028B000CF93DF93CDB7DEB70E9405010E94861645
:1028C0000E943D190E94CC120E9430190E94C41827
:1028D0000E949D0C0E94B7080E947C0B0E94471525
:1028E0000E947A090E94D6180E9415160E9471163D
:0828F0000000DF91CF91089573
:1028F800990F0008550FAA0BE0E8FEEF1616170609
:10290800E807F907C0F012161306E407F50798F070
:10291800621B730B840B950B39F40A2661F0232B89
:10292800242B252B21F408950A2609F4A140A69505
:082938008FEF811D811D089540
:10294000CF93DF9300D01F92CDB7DEB78B838B81FF
:102950000E94291500000E94AF16982F81E0892758
:102960008823C9F70E944A1989839A8380E096E0F8
:1029700021E0FC01258789819A812396CDBFDEBFA6
:06298000DF91CF910895E4
:10298600CF93DF93CDB7DEB72697CDBFDEBF8B8360
:102996009C836D837E838B819C8189839A83298125
:1029A6003A818D819E81822B932B89839A8389819B
:1029B6009A810E94701200002696CDBFDEBFDF917D
:0429C600CF91089510
:1029CA00CF93DF9300D0CDB7DEB71A8281E0898337
:1029DA0010C01A8208C089810E9407190E946315D3
:1029EA008A818F5F8A838A818531A8F389818F5F83
:1029FA0089838981843068F300000F900F90DF91FA
:042A0A00CF910895CB
:102A0E0057FD9058440F551F59F05F3F71F0479591
:102A1E00880F97FB991F61F09F3F79F08795089576
:102A2E00121613061406551FF2CF4695F1DF08C095
:102A3E00161617061806991FF1CF869571056105B2
:042A4E00089408954B
:102A5200CF93DF931F92CDB7DEB7898380E096E0F4
:102A620020E036E0F90120812F7DFC01208380E007
:102A720096E02981FC01208780E096E021E0FC01BC
:0C2A8200228700000F90DF91CF91089593
:102A8E00CF93DF93CDB7DEB780E499E021E2FC016E
:102A9E00208380E499E022E0FC01218380E499E028
:102AAE00FC0112821092DE4080E499E0FC01138258
:082ABE0080E0DF91CF91089543
:102AC600CF93DF9300D0CDB7DEB78FE189838091B6
:102AD600094060E00E94331461E0CE0101960E9435
:102AE6002D168091094061E00E94331400000F907A
:082AF6000F90DF91CF910895CC
:102AFE00CF93DF931F92CDB7DEB789838981882369
:102B0E0031F085E694E020E8FC01208305C086E6DE
:102B1E0094E020E8FC01208300000F90DF91CF911C
:022B2E00089508
:102B3000CF93DF931F92CDB7DEB789838981882336
:102B400031F085EA94E028E0FC01208305C086EAA4
:102B500094E028E0FC01208300000F90DF91CF91EA
:022B60000895D6
:102B6200CF93DF931F92CDB7DEB789838981882304
:102B720031F085E894E022E0FC01208305C086E87C
:102B820094E022E0FC01208300000F90DF91CF91BE
:022B92000895A4
:102B9400CF93DF931F92CDB7DEB7898389818823D2
:102BA40031F085E094E020E8FC01208305C086E054
:102BB40094E020E8FC01208300000F90DF91CF9186
:022BC400089572
:102BC600CF93DF931F92CDB7DEB7898389818823A0
:102BD60031F085E894E024E0FC01208305C086E816
:102BE60094E024E0FC01208300000F90DF91CF9158
:022BF600089540
:102BF800CF93DF931F92CDB7DEB78983898188236E
:102C080031F085E294E020E1FC01208305C086E2F2
:102C180094E020E1FC01208300000F90DF91CF9128
:022C280008950D
:102C2A00CF93DF93CDB7DEB761E080E191E00E94F8
:102C3A00451680E191E021E0FC01228380E191E0E8
:102C4A0020E2FC012383789480E0DF91CF910895FC
:102C5A00CF93DF9300D01F92CDB7DEB789839A83D3
:102C6A006B838B81282F30E089819A81B9010E9478
:102C7A000C1180E02396CDBFDEBFDF91CF9108957E
:102C8A00CF93DF9300D01F92CDB7DEB789839A83A3
:102C9A006B8389819A814B8168ED0E94B71A000083
:0C2CAA002396CDBFDEBFDF91CF910895CF
:102CB600CF93DF9300D01F92CDB7DEB789839A8377
:102CC6006B8389819A814B8168ED0E94B71A000057
:0C2CD6002396CDBFDEBFDF91CF910895A3
:102CE200CF93DF93CDB7DEB780EA90E0FC01148288
:102CF20080EA90E025E8FC01208380EA90E0FC0174
:0A2D0200128280E0DF91CF91089566
:102D0C00CF93DF93CDB7DEB760E080E890E00E9410
:102D1C005B1680E890E0FC01118680E890E0FC01F5
:0A2D2C00108680E0DF91CF9108953A
:102D3600CF93DF9300D01F92CDB7DEB789836A8326
:102D46007B8389810E94451180E090E02396CDBF68
:082D5600DEBFDF91CF9108956B
:102D5E00CF93DF93CDB7DEB780E096E0FC0185859B
:102D6E00882F90E08170992721E0892B09F420E0CB
:082D7E00822FDF91CF9108952F
:102D8600CF93DF9300D0CDB7DEB789839A8389814D
:102D96009A81809384409093854000000F900F9015
:062DA600DF91CF910895BA
:102DAC00CF93DF9300D0CDB7DEB789839A83898127
:102DBC009A81809386409093874000000F900F90EB
:062DCC00DF91CF91089594
:102DD200CF93DF9300D0CDB7DEB789839A83898101
:102DE2009A81809388409093894000000F900F90C1
:062DF200DF91CF9108956E
:102DF800CF93DF9300D0CDB7DEB789839A838981DB
:102E08009A8180938A4090938B4000000F900F9096
:062E1800DF91CF91089547
:102E1E00CF93DF9300D0CDB7DEB789839A838981B4
:102E2E009A8180938C4090938D4000000F900F906C
:062E3E00DF91CF91089521
:102E4400CF93DF9300D0CDB7DEB789839A8389818E
:102E54009A8180938E4090938F4000000F900F9042
:062E6400DF91CF910895FB
:102E6A00CF93DF9300D0CDB7DEB789839A83898168
:102E7A009A81809390409093914000000F900F9018
:062E8A00DF91CF910895D5
:102E9000CF93DF9300D0CDB7DEB789839A83898142
:102EA0009A81809392409093934000000F900F90EE
:062EB000DF91CF910895AF
:102EB600CF93DF9300D0CDB7DEB789839A8389811C
:102EC6009A81809394409093954000000F900F90C4
:062ED600DF91CF91089589
:102EDC00CF93DF9300D0CDB7DEB789839A838981F6
:102EEC009A81809396409093974000000F900F909A
:062EFC00DF91CF91089563
:102F0200CF93DF9300D0CDB7DEB789839A838981CF
:102F12009A81809398409093994000000F900F906F
:062F2200DF91CF9108953C
:102F2800CF93DF9300D0CDB7DEB789839A838981A9
:102F38009A8180939A4090939B4000000F900F9045
:062F4800DF91CF91089516
:102F4E00CF93DF9300D0CDB7DEB789839A83898183
:102F5E009A8180939C4090939D4000000F900F901B
:062F6E00DF91CF910895F0
:102F7400CF93DF9300D0CDB7DEB789839A8389815D
:102F84009A8180939E4090939F4000000F900F90F1
:062F9400DF91CF910895CA
:102F9A00CF93DF9300D0CDB7DEB789839A83898137
:102FAA009A818093A0409093A14000000F900F90C7
:062FBA00DF91CF910895A4
:102FC000CF93DF9300D0CDB7DEB789839A83898111
:102FD0009A818093A2409093A34000000F900F909D
:062FE000DF91CF9108957E
:102FE600CF93DF9300D0CDB7DEB789839A838981EB
:102FF6009A818093A4409093A54000000F900F9073
:06300600DF91CF91089557
:10300C00CF93DF9300D0CDB7DEB789839A838981C4
:10301C009A818093A6409093A74000000F900F9048
:06302C00DF91CF91089531
:10303200CF93DF9300D0CDB7DEB789839A8389819E
:103042009A818093A8409093A94000000F900F901E
:06305200DF91CF9108950B
:10305800CF93DF9300D0CDB7DEB789839A83898178
:103068009A818093AA409093AB4000000F900F90F4
:06307800DF91CF910895E5
:10307E00CF93DF9300D0CDB7DEB789839A83898152
:10308E009A818093AC409093AD4000000F900F90CA
:06309E00DF91CF910895BF
:1030A400CF93DF9300D0CDB7DEB789839A8389812C
:1030B4009A818093AE409093AF4000000F900F90A0
:0630C400DF91CF91089599
:1030CA00CF93DF9300D0CDB7DEB789839A83898106
:1030DA009A818093B0409093B14000000F900F9076
:0630EA00DF91CF91089573
:1030F000CF93DF9300D0CDB7DEB789839A838981E0
:103100009A818093B2409093B34000000F900F904B
:06311000DF91CF9108954C
:10311600CF93DF9300D0CDB7DEB789839A838981B9
:103126009A818093B4409093B54000000F900F9021
:06313600DF91CF91089526
:10313C00CF93DF9300D0CDB7DEB789839A83898193
:10314C009A818093B6409093B74000000F900F90F7
:06315C00DF91CF91089500
:10316200CF93DF9300D0CDB7DEB789839A8389816D
:103172009A818093B8409093B94000000F900F90CD
:06318200DF91CF910895DA
:10318800CF93DF93CDB7DEB788EC96E021E0FC0162
:10319800228388EC96E021E0FC01208380E0DF9127
:0431A800CF91089526
:1031AC00CF93DF93CDB7DEB780EC96E021E0FC0146
:1031BC00228380EC96E021E0FC01208380E0DF910B
:0431CC00CF91089502
:1031D000092E0394000C11F4882352F0BB0F40F425
:1031E000BF2B11F460FF04C06F5F7F4F8F4F9F4F65
:0231F000089540
:1031F200CF93DF931F92CDB7DEB789838981809306
:0C320200084000000F90DF91CF9108956C
:10320E00CF93DF931F92CDB7DEB7898389818093E9
:0C321E00094000000F90DF91CF9108954F
:10322A009F3F31F0915020F4879577956795B79530
:0C323A00880F911D9695879597F90895CF
:10324600CF93DF93CDB7DEB79091DA4081E0992333
:0A32560009F480E0DF91CF910895A4
:10326000CF93DF93CDB7DEB760E080E590E00E94BA
:0A3270005B1680E0DF91CF91089516
:10327A00CF93DF93CDB7DEB760E080E091E00E94A4
:0A328A005B1680E0DF91CF910895FC
:10329400CF93DF93CDB7DEB780E096E0FC01808961
:0832A4009189DF91CF9108959B
:1032AC00CF93DF93CDB7DEB780E091E00E94701230
:0832BC000000DF91CF9108959D
:1032C400CF93DF93CDB7DEB780E090E00E94701219
:0832D4000000DF91CF91089585
:1032DC00CF93DF93CDB7DEB70000DF91CF91089588
:1032EC00CF93DF93CDB7DEB70000DF91CF91089578
:1032FC00CF93DF93CDB7DEB70000DF91CF91089568
:10330C00CF93DF93CDB7DEB70000DF91CF91089557
:10331C00CF93DF93CDB7DEB70000DF91CF91089547
:10332C00CF93DF93CDB7DEB70000DF91CF91089537
:10333C00CF93DF93CDB7DEB70000DF91CF91089527
:10334C00CF93DF93CDB7DEB70000DF91CF91089517
:10335C00CF93DF93CDB7DEB70000DF91CF91089507
:10336C00CF93DF93CDB7DEB70000DF91CF910895F7
:10337C00CF93DF93CDB7DEB70000DF91CF910895E7
:10338C00CF93DF93CDB7DEB70000DF91CF910895D7
:10339C00CF93DF93CDB7DEB70000DF91CF910895C7
:1033AC00CF93DF93CDB7DEB70000DF91CF910895B7
:1033BC00CF93DF93CDB7DEB70000DF91CF910895A7
:1033CC00CF93DF93CDB7DEB70000DF91CF91089597
:1033DC00CF93DF93CDB7DEB70000DF91CF91089587
:1033EC00CF93DF93CDB7DEB70000DF91CF91089577
:1033FC00CF93DF93CDB7DEB70000DF91CF91089567
:10340C00CF93DF93CDB7DEB70000DF91CF91089556
:10341C00CF93DF93CDB7DEB70000DF91CF91089546
:10342C00CF93DF93CDB7DEB70000DF91CF91089536
:10343C00CF93DF93CDB7DEB70000DF91CF91089526
:10344C00CF93DF93CDB7DEB70000DF91CF91089516
:10345C00CF93DF93CDB7DEB70000DF91CF91089506
:10346C00CF93DF93CDB7DEB70000DF91CF910895F6
:10347C00CF93DF93CDB7DEB70000DF91CF910895E6
:10348C00CF93DF93CDB7DEB70000DF91CF910895D6
:10349C00CF93DF93CDB7DEB70000DF91CF910895C6
:1034AC00CF93DF93CDB7DEB70000DF91CF910895B6
:1034BC00CF93DF93CDB7DEB70000DF91CF910895A6
:1034CC00CF93DF93CDB7DEB70000DF91CF91089596
:1034DC00CF93DF93CDB7DEB70000DF91CF91089586
:1034EC00CF93DF93CDB7DEB70000DF91CF91089576
:1034FC00CF93DF93CDB7DEB70000DF91CF91089566
:10350C009B01AC0160E070E080E89FE30C94C61A6C
:0E351C005058BB27AA270E9462080C94E8189A
:0E352A0000240A9416161706180609060895BE
:0E35380000240A9412161306140605060895C0
:0E354600E894BB2766277727CB0197F90895F5
:0E35540091505040660F771F881FD2F70895E0
:0C35620097F99F6780E870E060E0089532
:0A356E001BBEFC0164BF40830895FA
:0A3578000E947C1408F481E008951D
:0A3582000E947C1408F48FEF0895F6
:08358C000E948A070C94E81864
:083594000E94F7070C94E818EF
:06359C009FEF80EC089592
:0435A2000C94000085
:0F35A6000000000002000000009B160000000063
:0435B5000405060003
:0435B9000000484284
:0235BD00F71203
:0235BF00AD114C
:0235C100461AA8
:0235C3004E1A9E
:0235C500561A94
:0235C7005E1A8A
:0235C900661A80
:0235CB006E1A76
:0235CD00761A6C
:0235CF007E1A62
:0235D1005000A8
:0135D30001F6
:02000004008278
:090000000000000000E000000017
:00000001FF
