:100000000C948C000C9451220C9451220C9451228B
:100010000C9451220C9451220C94BD0F0C94841713
:100020000C9451220C94CA160C9408170C94461781
:100030000C9451220C9451220C9451220C94512274
:100040000C9451220C9451220C9451220C94512264
:100050000C9451220C9451220C94F60B0C945122C6
:100060000C94551C0C94D2150C947A180C945122B3
:100070000C9451220C945E110C9451220C9465192D
:100080000C949E190C946B1B0C9490150C9451229B
:100090000C9451220C9451220C9451220C94512214
:1000A0000C9451220C9451220C9451220C94512204
:1000B0000C94D9130C94FC100C94BC110C94512288
:1000C0000C9410160C944E160C948C160C94D71994
:1000D0000C9451220C9451220C9451220C945122D4
:1000E0000C9451220C945122400040698040694098
:1000F000710044B44071409D80409D40B70044BCB5
:1001000040B740BB8040BB40BD0044D640BD40C569
:100110008040C540C60044D811241FBECFEFCDBFDC
:10012000DFE7DEBFE8EEF0E041E019C0B791A7914C
:1001300037912791079107FD0EC097918791EF01A5
:10014000F92FE82F0BBF07900D92A217B307D9F72D
:10015000FE011BBE04C01D92A217B307E1F7E831F0
:10016000F40721F70E945B0E0C941221F894FFCF44
:0801700000000000DCCFD135D6
:080178000000000000C0153F6B
:080180000000803F0000C03FB9
:10018800A3E2B0E0EAECF0E00C94321E29833A8353
:100198004B835C8329013A01E89477F841145104B0
:1001A8006104710409F46CC66D877E878F87988B0C
:1001B8007B018C0161157105A0E88A07AFE39A07F6
:1001C80009F45EC629873A874B875C874B015C0137
:1001D8006B017C01E894F7F8B1E0CB16D104B0E8E4
:1001E800EB06BFE7FB0644F4E1E04E165104E0E8F5
:1001F8006E06EFE77E064CF029853A854B855C85CF
:10020800C501B4010E94162246C60D851E852F859C
:10021800388937FF4DC04114510410E861061BE4CA
:1002280071060CF04AC04114510420E862062FE31D
:1002380072060CF470C0D301C20107E1B595A79509
:10024800979587950A95D1F78F579109A109B10913
:1002580027E130E0281B390BD301C201022E04C06C
:10026800B595A795979587950A94D2F7AC01BD01E6
:1002780004C0440F551F661F771F2A95D2F74416EE
:1002880055066606770609F046C081709927AA27A1
:10029800BB2742E050E060E070E08A019B01081B48
:1002A800190B2A0B3B0B0D831E832F83388737C00E
:1002B8001D821E821F82188608C022E030E040E0BE
:1002C80050E02D833E834F8358874114510430E812
:1002D80063063FE7730619F5C114D10440E8E40644
:1002E8004FE3F40609F4CCC55CF0E980FA800B8191
:1002F8001C8117FDCAC569857A858B859C85CBC508
:10030800E980FA800B811C8117FFBFC569857A8552
:100318008B859C858AC01D821E821F821886411487
:10032800510400E860060FE3700669F4E980FA807A
:100338000B811C8117FFADC5A501940160E070E039
:1003480080E89FE365C009811A812B813C810115F2
:100358001105210540E4340729F4A5019401C501DC
:10036800B401C2C089819A81AB81BC810097A10583
:10037800BF4359F40D851E852F85388937FD05C083
:10038800C501B4010E94350986C5C501B4010E94A2
:100398005322C114D104E104F10449F09501840108
:1003A8003F730115110520483F4309F040C00981FA
:1003B8001A812B813C8137FF08C09B01AC0160E0AA
:1003C80070E080E89FE30E9446222D853E854F8598
:1003D800588957FF60C530E8E31A3FE3F30A0D81F7
:1003E8001E812F813885C02AD12AE22AF32AC11416
:1003F800D104E104F10479F421E230E020932340B0
:10040800309324409B01AC010E9415229B01AC0152
:100418000E94462240C52D813E814F81588521305A
:1004280031054105510509F036C5905834C50D858B
:100438001E852F85388937FF21C02D813E814F8148
:100448005885232B242B252B59F481E290E08093A7
:10045800234090932440A5019401C501B401D4CF51
:100468000D811E812F813885013011052105310547
:1004780071F420E030E040E85FEB0DC000E010E0F0
:1004880020E83FE30D831E832F83388708C020E0D0
:1004980030E040E85FE32D833E834F83588731E0A7
:1004A8004316510461043DE473060CF497C048EF09
:1004B800C4164FEFD4064FE7E4064FE3F406BCF446
:1004C800E980FA800B811C8117FF60C32AEC32EFA8
:1004D80049E451E76D817E818F8198850E944A2287
:1004E8002AEC32EF49E451E70E944A22D4C408E0DA
:1004F800C016D10400E8E0060FE3F00654F0E980E6
:10050800FA800B811C811E141F0410061106F4F2D8
:100518003DC320E030E040E85FE30E9415226B0114
:100528007C0120E03AEA48EB5FE30E944A224B0153
:100538005C0120E735EA4CEE56E3C701B6010E949C
:100548004A2269837A838B839C8320E030E040E8E9
:100558005EE3C701B6010E944A229B01AC016BEA27
:100568007AEA8AEA9EE30E941522A70196010E9470
:100578004A229B01AC0160E070E080E09FE30E94AA
:1005880015222B013C01A7019601C701B6010E9463
:100598004A229B01AC01C301B2010E944A222BE30B
:1005A8003AEA48EB5FE30E944A229B01AC01698169
:1005B8007A818B819C810E9415226B017C019B01B1
:1005C800AC01C501B4010E9416226627707F6D87B1
:1005D8007E878F87988BA501940136C2C114D104F8
:1005E80000E8E006F1046CF420E030E040E85BE469
:1005F8000E944A226B017C0148EE5FEF6FEF7FEFAC
:1006080003C040E050E0BA01D701C60117E1B59533
:10061800A795979587951A95D1F78F579109A109AD
:10062800B1098C019D01040F151F261F371F0D8B63
:100638001E8B2F8B388FE894E7F8FF24460157016B
:100648006894A7F81FE3B12A22E7C21624ECD20661
:100658002CE1E206F104B4F037EDC31633EBD30610
:100668003DE5E306F10494F08D899E89AF89B88D44
:100678000196A11DB11D8D8B9E8BAF8BB88F90E815
:10068800A91AB108412C512C320104C0412C512C1B
:1006980032014394C201880F991F880F991F7C016A
:1006A800990F000BE98EFA8E0B8FA02FC701805887
:1006B8009E4FAF4FFC015A2F0E94E120698B7A8B25
:1006C8008B8B9C8B9B01AC01C501B4010E94152248
:1006D8006C8F7D8F8E8F9F8F29893A894B895C8992
:1006E800C501B4010E9416229B01AC0160E070E0D4
:1006F80080E89FE30E94462268A379A38AA39BA36C
:100708009B01AC016C8D7D8D8E8D9F8D0E944A2240
:100718006D877E878F87988B0D851E852F853889F5
:100728000027107F09831A832B833C83750164019A
:10073800F594E794D794C794CC2410EFD122E89489
:10074800F5F86894F5F8D701C601A05CBF4F7301AE
:100758006201F5E1CC0CDD1CEE1CFF1CFA95D1F70B
:10076800C80ED91EEA1EFB1EA701960169817A816F
:100778008B819C810E944A229B01AC016C8D7D8DEE
:100788008E8D9F8D0E9415222B013C0129893A8963
:100798004B895C89C701B6010E9415229B01AC01F7
:1007A800C501B4010E94152229813A814B815C81DF
:1007B8000E944A229B01AC01C301B2010E9415228A
:1007C80028A139A14AA15BA10E944A22698B7A8B90
:1007D8008B8B9C8B2D853E854F855889CA01B90125
:1007E8000E944A226B017C0122E431EF43E55EE37B
:1007F8000E944A2225E532E34CE65EE30E94162277
:10080800A70196010E944A2225E033EA4BE85EE3FD
:100818000E941622A70196010E944A222BEA3AEA70
:100828004AEA5EE30E941622A70196010E944A2224
:1008380027EB3DE64BED5EE30E941622A7019601E9
:100848000E944A222AE939E949E15FE30E94162217
:100858004B015C01A7019601C701B6010E944A221B
:100868009B01AC01C501B4010E944A226B017C01C5
:1008780029813A814B815C816D857E858F85988938
:100888000E94162229893A894B895C890E944A224A
:10089800A70196010E9416226B017C0129813A81E9
:1008A8004B815C81CA01B9010E944A222B013C019B
:1008B80020E030E040E450E40E941622A7019601AF
:1008C8000E9416224B015C01882420EF9222A50188
:1008D800940169817A818B819C810E944A22698373
:1008E8007A838B839C8320E030E040E450E4C501A8
:1008F800B4010E941522A30192010E9415229B01B6
:10090800AC01C701B6010E9415222D853E854F8591
:1009180058890E944A226B017C01A50194016989CA
:100928007A898B899C890E944A229B01AC01C70164
:10093800B6010E9416226B017C019B01AC01698102
:100948007A818B819C810E9416222B013C014424D0
:1009580030EF532220E030E446E75FE3C301B20101
:100968000E944A22698B7A8B8B8B9C8B29813A81D6
:100978004B815C81C301B2010E9415229B01AC012D
:10098800C701B6010E9415222FE438E346E75FE36A
:100998000E944A226B017C0126EC33E246EF58EBB9
:1009A800C301B2010E944A229B01AC01C701B601F2
:1009B8000E9416226B017C01898D9A8DAB8D80591E
:1009C8009E4FAF4FFC015A2F0E94E1209B01AC01C2
:1009D800C701B6010E9416226B017C016D897E89D0
:1009E8008F89988D0E943F184B015C01898D9A8DE3
:1009F800AB8D88589E4FAF4FFC015A2F0E94E120C3
:100A08002B013C01A701960169897A898B899C8908
:100A18000E941622A30192010E941622A5019401A8
:100A28000E9416226627707F6D877E878F87988B36
:100A3800A50194010E941522A30192010E9415228A
:100A480029893A894B895C890E9415229B01AC014E
:100A5800C701B6010E9415224B015C01C984DA84E2
:100A6800EB84FC84CC2440EFD422A701960169854D
:100A78007A858B859C850E9415222D853E854F851C
:100A880058890E944A222B013C0129853A854B85C9
:100A98005C85C501B4010E944A229B01AC01C301D7
:100AA800B2010E94162269837A838B839C83A701F3
:100AB80096016D857E858F8598890E944A22962E9B
:100AC800A72EB82E892E6D87798B182F092F262FE0
:100AD800372F482F592F69817A818B819C810E94F9
:100AE80016226B017C0169877A878B879C87DC01DA
:100AF800CB010197A105B3440CF0E8CC29853A85D0
:100B08004B855C852115310541055344E9F42CE3F7
:100B18003AEA48E353E369817A818B819C810E9498
:100B280016222B013C01292D3A2D4B2D582DC7019A
:100B3800B6010E9415229B01AC01C301B2010E94BB
:100B48004122181694F5C2CCD701C601BF77019788
:100B5800A641B344DCF429853A854B855C8521158B
:100B680031054641534C09F5292D3A2D4B2D582D69
:100B7800C701B6010E9415229B01AC0169817A81E7
:100B88008B819C810E943C2218167CF020E632E47E
:100B980042EA5DE06D817E818F8198850E944A22BC
:100BA80020E632E442EA5DE09FCCD701C601BF7778
:100BB80081309105A105EFE3BE070CF469C057E148
:100BC800B595A795979587955A95D1F78E5740E093
:100BD80050E060E870E08A019B0104C035952795D4
:100BE800179507958A95D2F7C00ED11EE21EF31EFF
:100BF800D701C601BF7767E1B595A7959795879502
:100C08006A95D1F78F579109A109B1094FEF5FEFA5
:100C18006FE770E0082E04C075956795579547955E
:100C28000A94D2F740955095609570959A01AB015A
:100C38002C213D214E215F21E894E7F8FF24689498
:100C4800E7F867E170E0FB01E81BF90B26013701C3
:100C580004C07594679457944794EA95D2F7E98449
:100C6800FA840B851C8517FF08C070946094509413
:100C78004094411C511C611C711C692D7A2D8B2DCF
:100C8800982D0E9415226D87798B182F092F03C084
:100C9800412C512C320129813A814B815C816D852F
:100CA8007989812F902F0E9416224B015C0188249C
:100CB80020E8922220E032E741E35FE3C501B40176
:100CC8000E944A2269877A878B879C872D85398974
:100CD800412F502FC501B4010E9415229B01AC0180
:100CE80069817A818B819C810E94152228E132E7F3
:100CF80041E35FE30E944A226B017C012CE83EEB52
:100D08004FEB55E3C501B4010E944A229B01AC0197
:100D1800C701B6010E9416224B015C019B01AC0180
:100D280069857A858B859C850E9416226B017C01DA
:100D380029853A854B855C850E9415229B01AC016B
:100D4800C501B4010E94152269837A838B839C8331
:100D5800A7019601C701B6010E944A224B015C0116
:100D68002CE43BEB41E353E30E944A222EE03AEEA7
:100D78004DED55E30E941522A50194010E944A22D7
:100D880025E533EB4AE858E30E941622A5019401B1
:100D98000E944A2221E63BE046E35BE30E941522DB
:100DA800A50194010E944A222BEA3AEA4AE25EE34C
:100DB8000E941622A50194010E944A229B01AC01BF
:100DC800C701B6010E9415224B015C019B01AC01D1
:100DD800C701B6010E944A2269877A878B879C8758
:100DE80020E030E040E050E4C501B4010E94152243
:100DF8009B01AC0169857A858B859C850E9446227A
:100E08004B015C0129813A814B815C81C701B601A4
:100E18000E944A2229813A814B815C810E941622D4
:100E28009B01AC01C501B4010E941522A7019601DE
:100E38000E9415229B01AC0160E070E080E89FE30E
:100E48000E9415229301820147E1000F111F221F02
:100E5800331F4A95D1F7060F171F281F391F011591
:100E6800110540E82407310524F4A2010E948013EB
:100E780002C0C901B8012D813E814F81588534CB0C
:100E880060E070E080E89FE306C060E070E0CB01BE
:0E0E980002C0C501B401A396E0E10C947B1EDC
:100EA600CF93DF93CDB7DEB70E942F0D80E094E09D
:100EB60020EDFC01208380E294E020E3FC01208306
:100EC60080E494E021E0FC01208380E694E025E8BC
:100ED600FC01208380E894E026E0FC01208380EA80
:100EE60094E028E0FC01208380E094E020E8FC0107
:100EF600248380E294E020E3FC01248380E494E0F0
:100F0600FC01148280E694E025E8FC01248380E855
:100F160094E026E0FC01248380EA94E028E0FC01CA
:100F2600248380E094E0FC01108A80E094E0FC01D8
:100F3600118A80E094E0FC01128A80E094E0FC01D2
:100F4600138A80E094E0FC01148A80E094E0FC01BE
:100F5600158A80E094E0FC01168A80E094E0FC01AA
:100F6600178A80E294E0FC01108A80E294E0FC019A
:100F7600118A80E294E0FC01128A80E294E0FC018E
:100F8600138A80E294E0FC01148A80E294E0FC017A
:100F9600158A80E294E0FC01168A80E294E0FC0166
:100FA600178A80E494E0FC01108A80E494E0FC0156
:100FB600118A80E494E0FC01128A80E494E0FC014A
:100FC600138A80E494E0FC01148A80E494E0FC0136
:100FD600158A80E494E0FC01168A80E494E028E017
:100FE600FC01278B80E694E0FC01108A80E694E001
:100FF600FC01118A80E694E0FC01128A80E694E006
:10100600FC01138A80E694E0FC01148A80E694E0F1
:10101600FC01158A80E694E0FC01168A80E694E0DD
:10102600FC01178A80E894E0FC01108A80E894E0CD
:10103600FC01118A80E894E0FC01128A80E894E0C1
:10104600FC01138A80E894E0FC01148A80E894E0AD
:10105600FC01158A80E894E0FC01168A80E894E099
:10106600FC01178A80EA94E0FC01108A80EA94E089
:10107600FC01118A80EA94E0FC01128A80EA94E07D
:10108600FC01138A80EA94E0FC01148A80EA94E069
:10109600FC01158A80EA94E0FC01168A80EA94E055
:1010A600FC01178A80E094E0FC01138680E094E05E
:1010B600FC01168680E094E0FC01158680E094E051
:1010C600FC01148680E294E0FC01138680E294E041
:1010D600FC01168680E294E0FC01158680E294E02D
:1010E600FC01148680E494E0FC01138680E494E01D
:1010F600FC01168680E494E0FC01158680E494E009
:10110600FC01148680E694E0FC01138680E694E0F8
:10111600FC01168680E694E0FC01158680E694E0E4
:10112600FC01148680E894E0FC01138680E894E0D4
:10113600FC01168680E894E0FC01158680E894E0C0
:10114600FC01148680EA94E0FC01138680EA94E0B0
:10115600FC01168680EA94E0FC01158680EA94E09C
:10116600FC01148680EE95E0FC01118680EE95E088
:10117600FC01118280EE95E0FC01108280EE95E084
:10118600FC01148280EE95E0FC01168280EE95E06B
:10119600FC01178280EE95E0FC01108680EE95E05A
:1011A600FC01158280EE95E0FC01128280EE95E04E
:1011B600FC01138280EE95E0FC0112868DE191E23E
:1011C6000E94FA1E85E291E20E940D1F8DE291E2D5
:1011D6000E94201F85E391E20E94331F8DE391E276
:1011E6000E94461F85E491E20E94591F8DE491E218
:1011F6000E946C1F85E591E20E947F1F8DE591E2BA
:101206000E94921F85E691E20E94A51F8DE691E25B
:101216000E94B81F85E791E20E94CB1F8DE791E2FD
:101226000E94DE1F85E891E20E94F11F8DE891E29F
:101236000E94042085E991E20E9417208DE991E23F
:101246000E942A2085EA91E20E943D208DEA91E2E1
:101256000E94502085EB91E20E9463200000DF91FE
:04126600CF91089587
:10126A004F925F926F927F928F929F92AF92BF92AC
:10127A00CF92DF92EF92FF920F931F936B017C0143
:10128A00DC01CB01B701A6014427552760787F7797
:10129A004115510560487F4759F4A7019601C701D6
:1012AA00B6010E944A22A70196010E9416221AC07C
:1012BA00181619061A061B06D4F0892B8A2B8B2BB3
:1012CA0009F4CCC081E290E08093234090932440BB
:1012DA00A7019601C701B6010E9415229B01AC0124
:1012EA000E944622562F472F382F292FBBC067E16D
:1012FA00F594E794D794C7946A95D1F7C114D104A9
:10130A00E104F104E1F4C12CD12C7601A7FD0AC055
:10131A00880F991FAA1FBB1F2FEFC21AD20AE20A0F
:10132A00F20AF4CF21E0C21AD108E108F108F094D8
:10133A00E094D094C094C11CD11CE11CF11C2FE78D
:10134A00C21AD108E108F108AF77BB27A068C0FE2E
:10135A0004C0880F991FAA1FBB1FF594E794D7945E
:10136A00C794880F991FAA1FBB1FE9E1F0E040E06C
:10137A0050E060E071E0812C912C540100E010E013
:10138A00980128013901440E551E661E771E8415E0
:10139A009505A605B70574F093018201040F151F80
:1013AA00261F371F84199509A609B709840E951EA9
:1013BA00A61EB71E880F991FAA1FBB1F7695679591
:1013CA00579547953197E9F6892B8A2B8B2BA1F1F3
:1013DA0020E632E442EA5DE060E070E080E89FE304
:1013EA000E94152220E030E040E85FE30E9441229B
:1013FA0087FD22C020E632E442EA5DE060E070E068
:10140A0080E89FE30E94162220E030E040E85FE394
:10141A000E944122181634F482E0880E911CA11C05
:10142A00B11C0AC0D501C40181709927AA27BB271C
:10143A00880E991EAA1EBB1ED501C401B595A79593
:10144A0097958795B15C37E1CC0CDD1CEE1CFF1C2F
:10145A003A95D1F7C80ED91EEA1EFB1E5C2D4D2DFA
:10146A003E2D2F2D652F742F832F922F1F910F91B1
:10147A00FF90EF90DF90CF90BF90AF909F908F90AA
:0A148A007F906F905F904F900895DF
:10149400CF92DF92EF92FF920F931F93CF93DF933C
:1014A400CDB7DEB72597CDBFDEBF1A821B821C8263
:1014B4001D8219822091BB403091BC4080919B4099
:1014C40090919C402817390708F0C6C010929B40A1
:1014D40010929C401982B8C08981882F90E0880FAF
:1014E400991F880F991F8B5B9F4BFC01C080D18093
:1014F400E280F3808091B9409091BA40CC01A0E0A1
:10150400B0E0BC01CD010E943D18DC01CB019C017F
:10151400AD01C701B6010E944622DC01CB018A83DA
:101524009B83AC83BD838981882F90E0880F991FAA
:10153400880F991F8B5B9F4BFC01108211821282D2
:1015440013828981082F10E08A819B81AC81BD813F
:10155400BC01CD010E943509DC01CB019801220FA9
:10156400331F220F331F2F5A3F4BF901808391837E
:10157400A283B3838981082F10E08981882F90E0AA
:10158400880F991F880F991F8F5A9F4BFC018081E8
:101594009181A281B38120E030E048EC52E4BC01A7
:1015A400CD010E944A22DC01CB0120E030E040E082
:1015B4005FE3BC01CD010E941622DC01CB01BC011A
:1015C400CD010E94E21ADC01CB01CC01A0E0B0E025
:1015D400BC01CD010E943D18DC01CB019801220F12
:1015E400331F220F331F2F5A3F4BF90180839183FE
:1015F400A283B3838981082F10E08981882F90E02A
:10160400880F991F880F991F8F5A9F4BFC01808167
:101614009181A281B38120E030E048EC52E4BC0126
:10162400CD010E944622DC01CB019801220F331F19
:10163400220F331F2F5A3F4BF90180839183A283DA
:10164400B38389818F5F89838981833008F444CF90
:101654001092B9401092BA408981882F90E0880F87
:10166400991F880F991F8F5A9F4BFC01808191818C
:10167400A281B381BC01CD012596CDBFDEBFDF9130
:10168400CF911F910F91FF90EF90DF90CF9008952D
:101694000F931F93CF93DF930F92CDB7DEB7898358
:1016A4008981882F90E08230910509F44DC0833000
:1016B40091052CF4009759F00197E1F18CC0833027
:1016C400910509F44BC0049709F452C084C0809179
:1016D4006D4090916E40A0916F40B091704000E0D9
:1016E40010E09801AC01BD0181E00E9427138091B4
:1016F4006D4090916E40A0916F40B091704000E0B9
:1017040010E020EF32E4AC01BD0182E00E94271317
:1017140080916D4090916E40A0916F40B091704067
:1017240000E010E020E733E4AC01BD0183E00E9457
:10173400271353C000E010E0980140E050E0BA01E4
:1017440083E00E94271349C000E010E0980140E0C4
:1017540050E0BA0182E00E9427133FC000E010E08D
:10176400980140E050E0BA0181E00E94271335C09F
:1017740080916D4090916E40A0916F40B091704007
:1017840000E010E020E733E4AC01BD0181E00E94F9
:10179400271380916D4090916E40A0916F40B0915D
:1017A400704000E010E020EF32E4AC01BD0182E0C3
:1017B4000E94271380916D4090916E40A0916F40DC
:1017C400B091704000E010E09801AC01BD0183E0ED
:1017D4000E94271302C081E001C080E00F90DF91D6
:0817E400CF911F910F910895B0
:1017EC001F920F920FB60F9211240BB60F922F93DC
:1017FC003F934F935F936F937F938F939F93AF938D
:10180C00BF93EF93FF93CF93DF93CDB7DEB78CE00D
:10181C0090E0FC018381882F90E080719927892BBF
:10182C0031F08091734090917440FC0109958CE0EB
:10183C0090E0FC018381882F90E080729927892B9E
:10184C0031F08091754090917640FC0109958CE0C7
:10185C0090E0FC018381882F90E080749927892B7C
:10186C0031F08091774090917840FC0109958CE0A3
:10187C0090E0FC018381882F90E082709927892B5E
:10188C0031F080917B4090917C40FC0109958CE07B
:10189C0090E0FC018381882F90E081709927892B3F
:1018AC0031F080918F4090919040FC0109958CE033
:1018BC0090E0FC018381882F90E084709927892B1C
:1018CC0031F08091914090919240FC0109958CE00F
:1018DC0090E0FC018381882334F4809193409091B3
:1018EC009440FC0109958CE090E02FEFFC012383E0
:1018FC000000DF91CF91FF91EF91BF91AF919F913C
:10190C008F917F916F915F914F913F912F910F909C
:0C191C000BBE0F900FBE0F901F9018958F
:10192800CF93DF93CDB7DEB72F97CDBFDEBF198238
:1019380083C088E090E0FC01828188230CF47CC09D
:1019480010929B4010929C4089818095898389815F
:101958000E94F11880E090E0AAEFB3E48A839B83A9
:10196800AC83BD8320E030E84BEB55E46A817B8192
:101978008C819D810E944A22DC01CB018E839F834A
:10198800A887B98720E030E040E85FE36E817F8177
:10199800888599850E943C2288232CF481E090E078
:1019A8008A879B873FC020E03FEF4FE757E46E816F
:1019B8007F81888599850E94412218164CF520E080
:1019C80030E040E251E46A817B818C819D810E94F4
:1019D8004A22DC01CB01BC01CD010E94E21ADC01E4
:1019E800CB018A879B870FC088E592E08C879D870B
:1019F8008C859D850197F1F78C879D878A859B85C6
:101A080001978A879B878A859B85892B69F714C0EC
:101A18006E817F81888599850E94E21ADC01CB015D
:101A28008A879B878A859B858E879F878E859F85DA
:101A38000197F1F78E879F8780919B4090919C40FA
:101A480081329E4408F475CF00002F96CDBFDEBFCB
:061A5800DF91CF9108951B
:101A5E00CF93DF93CDB7DEB72697CDBFDEBF19820A
:101A6E0012C08981882F90E0805F9B4F2981222FA1
:101A7E0030E0205F3B4FF90120812860FC0120837C
:101A8E0089818F5F89838981883058F31A8212C0C9
:101A9E008A81882F90E0805D9B4F2A81222F30E033
:101AAE00205D3B4FF90120812860FC0120838A8153
:101ABE008F5F8A838A81883058F31B8212C08B8194
:101ACE00882F90E0805B9B4F2B81222F30E0205B94
:101ADE003B4FF90120812860FC0120838B818F5FB1
:101AEE008B838B81883058F31C8212C08C81882F97
:101AFE0090E080599B4F2C81222F30E020593B4F94
:101B0E00F90120812860FC0120838C818F5F8C83FA
:101B1E008C81883058F31D8212C08D81882F90E001
:101B2E0080579B4F2D81222F30E020573B4FF901DC
:101B3E0020812860FC0120838D818F5F8D838D81B4
:101B4E00883058F31E8212C08E81882F90E0805507
:101B5E009B4F2E81222F30E020553B4FF9012081E3
:101B6E002860FC0120838E818F5F8E838E8188306A
:101B7E0058F300002696CDBFDEBFDF91CF910895BA
:101B8E00CF93DF9300D0CDB7DEB719821A821982B8
:101B9E001A827FC089819A8187599F4BFC0180816F
:101BAE000E949D1C9C0189819A81880F991F835ADE
:101BBE009F4BFC01208331832091BB403091BC4070
:101BCE0080919B4090919C402817390708F45CC087
:101BDE0089819A81880F991F835A9F4BFC018081BE
:101BEE0091818939984008F44FC08091B940909105
:101BFE00BA4001968093B9409093BA4089819A81F8
:101C0E00880F991F835A9F4BFC0180819181CC01D3
:101C1E00A0E0B0E0BC01CD010E943D18DC01CB017B
:101C2E0023EA36E043E55AE3BC01CD010E944A2285
:101C3E00DC01CB0120E030E040E050E4BC01CD01FE
:101C4E000E94C4009B01AC0189819A81880F991F63
:101C5E00880F991F8B5B9F4BFC0180819181A28124
:101C6E00B381BC01CD010E941622DC01CB0129817A
:101C7E003A81220F331F220F331F2B5B3F4BF9018B
:101C8E0080839183A283B38389819A81019689830C
:101C9E009A8389819A81039708F47CCF00000F9074
:081CAE000F90DF91CF91089522
:101CB600CF93DF93CDB7DEB72E97CDBFDEBF0E94A1
:101CC600441D80E090E0AAE7B4E489839A83AB835D
:101CD600BC8320E030E84BEB55E469817A818B8147
:101CE6009C810E944A22DC01CB018D839E83AF83B7
:101CF600B88720E030E040E85FE36D817E818F8128
:101D060098850E943C2288232CF481E090E0898704
:101D16009A873FC020E03FEF4FE757E46D817E8111
:101D26008F8198850E94412218164CF520E030E0FC
:101D360040E251E469817A818B819C810E944A222A
:101D4600DC01CB01BC01CD010E94E21ADC01CB0112
:101D560089879A870FC088E592E08B879C878B8559
:101D66009C850197F1F78B879C8789859A850197D2
:101D760089879A8789859A85892B69F714C06D8129
:101D86007E818F8198850E94E21ADC01CB018987CA
:101D96009A8789859A858D879E878D859E850197E9
:101DA600F1F78D879E870E94E21C0E94940C0E9488
:081DB600C2170E941912FDCFB3
:101DBE00CF93DF93CDB7DEB783E080930A408CEFED
:101DCE008093224080915D4090915E4080930B40C5
:101DDE0090930C4080915F409091604080930D40B5
:101DEE0090930E40809161409091624080930F409D
:101DFE00909310408091514090915240A091534049
:101E0E00B09154408093154090931640A093174084
:101E1E00B09318408091554090915640A0915740F4
:101E2E00B09158408093194090931A40A0931B4054
:101E3E00B0931C408091594090915A40A0915B40C4
:101E4E00B0915C4080931D4090931E40A0931F4024
:101E5E00B09320408091C540813021F08091C540E3
:101E6E00813021F482E38093214007C08091C540E8
:101E7E00823019F48CE38093214068E170E08AE0AF
:0E1E8E0090E40E94101A0000DF91CF91089599
:101E9C0010C00E94232258F00E941C2240F029F40A
:101EAC005F3F29F00C94312251110C942B220C948D
:101EBC004E220E94041D68F39923B1F3552391F32C
:101ECC00951B550BBB27AA2762177307840738F09D
:101EDC009F5F5F4F220F331F441FAA1FA9F335D0FA
:101EEC000E2E3AF0E0E832D091505040E695001CAE
:101EFC00CAF72BD0FE2F29D0660F771F881FBB1F68
:101F0C00261737074807AB07B0E809F0BB0B802D45
:101F1C00BF01FF2793585F4F3AF09E3F510578F071
:101F2C000C9431220C942B225F3FE4F3983ED4F3B3
:101F3C00869577956795B795F7959F5FC9F7880F45
:101F4C00911D9695879597F90895E1E0660F771F97
:101F5C00881FBB1F621773078407BA0720F0621B28
:0E1F6C00730B840BBA0BEE1F88F7E0950895F7
:101F7A001F920F920FB60F9211240BB60F922F9346
:101F8A003F934F935F936F937F938F939F93AF93F7
:101F9A00BF93EF93FF93CF93DF93CDB7DEB780E084
:101FAA0090E0FC018381882F90E080729927892B29
:101FBA0031F080917D4090917E40FC01099580E04E
:101FCA0090E0FC018381882F90E080719927892B0A
:101FDA0031F080917F4090918040FC01099580E02A
:101FEA0090E0FC018381882F90E080749927892BE7
:101FFA0031F08091814090918240FC01099580E006
:10200A0090E0FC018381882334F480918940909187
:10201A008A40FC01099580E090E02FEFFC012383C0
:10202A000000DF91CF91FF91EF91BF91AF919F9106
:10203A008F917F916F915F914F913F912F910F9067
:0C204A000BBE0F900FBE0F901F9018955A
:102056000FC00E941C2238F00E94232220F09523F4
:1020660011F00C9431220C944E2211240C942B2244
:102076000E94041D70F3959FC1F3950F50E0551F04
:10208600629FF001729FBB27F00DB11D639FAA27C7
:10209600F00DB11DAA1F649F6627B00DA11D661F16
:1020A600829F2227B00DA11D621F739FB00DA11D37
:1020B600621F839FA00D611D221F749F3327A00DF1
:1020C600611D231F849F600D211D822F762F6A2F8D
:1020D60011249F5750409AF0F1F088234AF0EE0FF2
:1020E600FF1FBB1F661F771F881F91505040A9F71F
:1020F6009E3F510580F00C9431220C942B225F3FB9
:10210600E4F3983ED4F3869577956795B795F7955A
:10211600E7959F5FC1F7FE2B880F911D96958795D2
:0421260097F9089588
:10212A0011C00E941C2238F00E94232220F039F4A8
:10213A009F3F19F426F40C944E220EF4E095E7FB27
:10214A000C943122E92F0E94041D58F3BA17620732
:10215A0073078407950720F079F4A6F50C942A22D0
:10216A000EF4E0950B2EBA2FA02D0B01B9019001A8
:10217A000C01CA01A0011124FF27591B99F0593FEC
:10218A0050F4503E68F11A16F040A22F232F342F34
:10219A004427585FF3CF469537952795A795F04082
:1021AA005395C9F77EF41F16BA0B620B730B840B97
:1021BA00BAF09150A1F0FF0FBB1F661F771F881F4F
:1021CA00C2F70EC0BA0F621F731F841F48F48795A7
:1021DA0077956795B795F7959E3F08F0B0CF939599
:0E21EA00880F08F09927EE0F979587950895B6
:1021F8001F920F920FB60F9211240BB60F922F93C6
:102208003F934F935F936F937F938F939F93AF9376
:10221800BF93EF93FF93CF93DF93CDB7DEB780E102
:1022280090E0FC018381882F90E088709927892BA2
:1022380031F08091794090917A40FC01099580E1D4
:1022480090E0FC018381882F90E082709927892B88
:1022580031F08091954090919640FC01099580E17C
:1022680090E0FC018381882F90E084709927892B66
:1022780031F08091974090919840FC01099580E158
:1022880090E02FEFFC0123830000DF91CF91FF91B5
:10229800EF91BF91AF919F918F917F916F915F91D6
:1022A8004F913F912F910F900BBE0F900FBE0F9043
:0422B8001F901895C6
:1022BC001F920F920FB60F9211240BB60F922F9301
:1022CC003F934F935F936F937F938F939F93AF93B2
:1022DC00BF93EF93FF93CF93DF93CDB7DEB788E037
:1022EC0090E0FC018381882F90E082709927892BE4
:1022FC0031F08091834090918440FC01099588E0F5
:10230C0090E0FC018381882F90E081709927892BC4
:10231C0031F08091854090918640FC01099588E0D0
:10232C0090E0FC018381882334F480918740909164
:10233C008840FC01099588E090E02FEFFC01238395
:10234C000000DF91CF91FF91EF91BF91AF919F91E1
:10235C008F917F916F915F914F913F912F910F9042
:0C236C000BBE0F900FBE0F901F90189535
:102378001F920F920FB60F9211240BB60F922F9344
:102388003F934F935F936F937F938F939F93AF93F5
:10239800BF93EF93FF93CF93DF93CDB7DEB78091D1
:1023A800A3409091A440892B31F08091A340909153
:1023B800A440FC01099581E08093BE4080919B4038
:1023C80090919C40019680939B4090939C40809173
:1023D800654090916640A0916740B0916840019631
:1023E800A11DB11D8093654090936640A0936740FE
:1023F800B093684080E49AE021E0FC012387000064
:10240800DF91CF91FF91EF91BF91AF919F918F9104
:102418007F916F915F914F913F912F910F900BBEDC
:0A2428000F900FBE0F901F90189543
:10243200CF93DF9300D0CDB7DEB719821A82809195
:10244200BE40813061F41092BE400E94C70D0E94CE
:10245200DF0E0E947A140E942B140E944A0A809175
:10246200654090916640A0916740B0916840803C81
:10247200944DA140B10558F010926540109266400B
:10248200109267401092684080E00E944A0B0E94BE
:10249200D420882319F119821A820EC00E94BE1B11
:1024A200282F89819A8189549F4BFC01208389813D
:1024B2009A81019689839A8389819A81029770F31E
:1024C20010926540109266401092674010926840E8
:1024D2001092BE408091B8400E944A0B00000F90BB
:0824E2000F90DF91CF910895E6
:1024EA00CF93DF93CDB7DEB780E49AE0FC0110A664
:1024FA0011A680E49AE0FC0112A613A680E49AE0F1
:10250A00FC0114A615A680E49AE0FC0110A211A20F
:10251A0080E49AE0FC01118280E49AE0FC011282D4
:10252A0080E49AE0FC01138280E49AE0FC011482C0
:10253A0080E49AE0FC01158280E49AE0FC011682AC
:10254A0080E49AE0FC01178280E49AE0FC01168696
:10255A0080E49AE0FC01118680E49AE021E0FC0123
:10256A00228780E49AE0FC01138680E49AE02BED4E
:10257A0035E0FC0126A337A380E49AE0FC01178624
:10258A0080E49AE027E0FC0120830000DF91CF91EC
:02259A000895A2
:10259C00CF93DF93CDB7DEB780E09AE0FC0110A6B5
:1025AC0011A680E09AE0FC0112A613A680E09AE046
:1025BC00FC0114A615A680E09AE0FC0110A211A261
:1025CC0080E09AE0FC01118280E09AE0FC0112822A
:1025DC0080E09AE0FC01138280E09AE0FC01148216
:1025EC0080E09AE0FC01158280E09AE0FC01168202
:1025FC0080E09AE0FC01178280E09AE0FC011686EC
:10260C0080E09AE0FC01118680E09AE021E0FC0178
:10261C00228780E09AE0FC01138680E09AE02FEF9D
:10262C003FEFFC0126A337A380E09AE0FC0117865C
:10263C0080E09AE027E0FC0120830000DF91CF913D
:02264C000895EF
:10264E000F931F93CF93DF93CDB7DEB72F97CDBFE9
:10265E00DEBF8F83488759876A877B870C871D87E4
:10266E002E873F8719821A821B821C821D821E8230
:10267E0088859985AA85BB85BC01CD010E94B618B7
:10268E00DC01CB0189839A83AB83BC838C859D85CA
:10269E00AE85BF85BC01CD010E94951B8D839E83A7
:1026AE008F810E94AB200E94FA2089819A81AB8192
:1026BE00BC81AC01BD0180E090E40E94C3148D8109
:1026CE009E81BC0180E090EC0E94C01C0E940621FD
:1026DE0040E050E060E070E080E090E00E94E51B9A
:1026EE0000002F96CDBFDEBFDF91CF911F910F91CE
:0226FE0008953D
:102700000F931F93CF93DF93EA0140385105D4F024
:1027100020E030E040E05FE70E944A229E012F5710
:102720003109203831056CF120E030E040E05FE70E
:102730000E944A22CE5FD109C038D1051CF1CFE7F3
:10274000D0E020C042385F4FECF420E030E040E8B9
:102750005CE00E944A229E012A593F4F22384FEFE7
:1027600034077CF420E030E040E85CE00E944A223C
:10277000C453DF4FC2382FEFD20724F4C2E8DFEF93
:1027800001C0E9019E0121583F4F8901330F220BFF
:10279000330BA9019801E7E1220F331F441F551F96
:1027A000EA95D1F70E944A22DF91CF911F910F91B4
:0227B00008958A
:1027B2001F920F920FB60F9211240BB60F922F9306
:1027C2003F934F935F936F937F938F939F93AF93B7
:1027D200BF93EF93FF93CF93DF93CDB7DEB784E040
:1027E20090E0FC018381882F90E080719927892BEA
:1027F20031F080918B4090918C40FC01099584E0EE
:1028020090E0FC018381882F90E080729927892BC8
:1028120031F080918D4090918E40FC01099584E0C9
:1028220090E02FEFFC0123830000DF91CF91FF9115
:10283200EF91BF91AF919F918F917F916F915F9136
:102842004F913F912F910F900BBE0F900FBE0F90A3
:042852001F90189526
:10285600CF93DF9300D000D0CDB7DEB719821A82AE
:102866001B821C828091064090910740CC01A0E01B
:10287600B0E0BC01CD010E943D18DC01CB012BED7F
:102886003AE241EB54E3BC01CD010E944A22DC014D
:10289600CB0189839A83AB83BC8389819A81AB817F
:1028A600BC8126EA3BE944E45BE3BC01CD010E941E
:1028B6004122181694F489819A81AB81BC812FE656
:1028C60032E143E05CE3BC01CD010E943C22882357
:1028D60024F41092114080E004C081E080931140FE
:0E28E60081E02496CDBFDEBFDF91CF91089533
:1028F400CF93DF9300D0CDB7DEB719821A8220912F
:10290400BB403091BC4080919B4090919C402817E3
:10291400390788F519821A822AC089819A81880F19
:10292400991F880F991F8F5A9F4BFC0180819181B9
:10293400A281B3812AE939E949E95EE3BC01CD0109
:102944000E943C22181644F089819A818E5E9F4B26
:1029540021E0FC01208306C089819A818E5E9F4B11
:10296400FC01108289819A81019689839A838981E5
:102974009A81039790F200000F900F90DF91CF910E
:022984000895B4
:10298600CF93DF93CDB7DEB72A97CDBFDEBF8D835A
:102996009E834F83588769877A878D819E81898335
:1029A6009A838D819E818B839C838F819885A9854F
:1029B600BA858827907CBF70072E7EE0B695A795CE
:1029C600979587957A95D1F7702D9C0189819A8183
:1029D600822B932B89839A838F8198859F732B8172
:1029E6003C81822B932B8B839C8380E090E20E9418
:1029F600111B8B819C810E94111B89819A810E94E7
:102A0600111B00002A96CDBFDEBFDF91CF9108953E
:102A1600CF93DF930F92CDB7DEB780E298E021EA3D
:102A260031E0FC012087318780E298E020EDFC014F
:102A3600258380E298E020ECFC01268380E298E082
:102A460023E0FC01278380E298E0FC01138680E204
:102A560098E0FC01148680E298E0FC01168680E28C
:102A660098E0FC011586198289818093C04089818E
:102A76008093BF4089818093C14089818093C34000
:102A860089818093C24089818093C44000000F9061
:062A9600DF91CF910895CD
:102A9C00CF93DF93CDB7DEB780E096E0FC011182D7
:102AAC0080E096E023E0FC01228380E096E0FC01CC
:102ABC00138280E096E0FC01148280E096E0FC0139
:102ACC00168680E096E0FC01138680E096E0FC011F
:102ADC00148680E096E024E0FC01208780E096E0FC
:102AEC0020E4FC01218780E096E0FC01158280E067
:102AFC0096E0FC01148A158A80E096E0FC01128AAB
:102B0C00138A80E096E021E0FC01208380E0DF91D5
:042B1C00CF910895B8
:102B20001F920F920FB60F9211240BB60F922F9394
:102B30003F934F935F936F937F938F939F93AF9345
:102B4000BF93EF93FF93CF93DF93CDB7DEB784E1CD
:102B500090E0FC018381882F90E088709927892B71
:102B600031F08091994090919A40FC01099584E15F
:102B700090E02FEFFC0123830000DF91CF91FF91C4
:102B8000EF91BF91AF919F918F917F916F915F91E5
:102B90004F913F912F910F900BBE0F900FBE0F9052
:042BA0001F901895D5
:102BA4001F920F920FB60F9211240BB60F922F9310
:102BB4003F934F935F936F937F938F939F93AF93C1
:102BC400BF93EF93FF93CF93DF93CDB7DEB780919D
:102BD400714090917240892B31F0809171409091B5
:102BE4007240FC01099580E096E022E0FC01258713
:102BF4000000DF91CF91FF91EF91BF91AF919F9131
:102C04008F917F916F915F914F913F912F910F9091
:0C2C14000BBE0F900FBE0F901F90189584
:102C20001F920F920FB60F9211240BB60F922F9393
:102C30003F934F935F936F937F938F939F93AF9344
:102C4000BF93EF93FF93CF93DF93CDB7DEB7809120
:102C50009D4090919E40892B31F080919D409091B4
:102C60009E40FC01099580E49AE020E1FC01238765
:102C70000000DF91CF91FF91EF91BF91AF919F91B4
:102C80008F917F916F915F914F913F912F910F9015
:0C2C90000BBE0F900FBE0F901F90189508
:102C9C001F920F920FB60F9211240BB60F922F9317
:102CAC003F934F935F936F937F938F939F93AF93C8
:102CBC00BF93EF93FF93CF93DF93CDB7DEB78091A4
:102CCC009F409091A040892B31F080919F40909132
:102CDC00A040FC01099580E49AE020E2FC012387E6
:102CEC000000DF91CF91FF91EF91BF91AF919F9138
:102CFC008F917F916F915F914F913F912F910F9099
:0C2D0C000BBE0F900FBE0F901F9018958B
:102D18001F920F920FB60F9211240BB60F922F939A
:102D28003F934F935F936F937F938F939F93AF934B
:102D3800BF93EF93FF93CF93DF93CDB7DEB7809127
:102D4800A1409091A240892B31F08091A1409091AF
:102D5800A240FC01099580E49AE020E4FC01238765
:102D68000000DF91CF91FF91EF91BF91AF919F91BB
:102D78008F917F916F915F914F913F912F910F901C
:0C2D88000BBE0F900FBE0F901F9018950F
:102D94001F920F920FB60F9211240BB60F922F931E
:102DA4003F934F935F936F937F938F939F93AF93CF
:102DB400BF93EF93FF93CF93DF93CDB7DEB78091AB
:102DC400A5409091A640892B31F08091A540909127
:102DD400A640FC01099580E09AE020E1FC012387EC
:102DE4000000DF91CF91FF91EF91BF91AF919F913F
:102DF4008F917F916F915F914F913F912F910F90A0
:0C2E04000BBE0F900FBE0F901F90189592
:102E10001F920F920FB60F9211240BB60F922F93A1
:102E20003F934F935F936F937F938F939F93AF9352
:102E3000BF93EF93FF93CF93DF93CDB7DEB780912E
:102E4000A7409091A840892B31F08091A7409091A4
:102E5000A840FC01099580E09AE020E2FC0123876C
:102E60000000DF91CF91FF91EF91BF91AF919F91C2
:102E70008F917F916F915F914F913F912F910F9023
:0C2E80000BBE0F900FBE0F901F90189516
:102E8C001F920F920FB60F9211240BB60F922F9325
:102E9C003F934F935F936F937F938F939F93AF93D6
:102EAC00BF93EF93FF93CF93DF93CDB7DEB78091B2
:102EBC00A9409091AA40892B31F08091A940909122
:102ECC00AA40FC01099580E09AE020E4FC012387EC
:102EDC000000DF91CF91FF91EF91BF91AF919F9146
:102EEC008F917F916F915F914F913F912F910F90A7
:0C2EFC000BBE0F900FBE0F901F9018959A
:102F08001F920F920FB60F9211240BB60F922F93A8
:102F18003F934F935F936F937F938F939F93AF9359
:102F2800BF93EF93FF93CF93DF93CDB7DEB7809135
:102F3800AB409091AC40892B31F08091AB4090919F
:102F4800AC40FC01099580E09AE021E0FC01238770
:102F58000000DF91CF91FF91EF91BF91AF919F91C9
:102F68008F917F916F915F914F913F912F910F902A
:0C2F78000BBE0F900FBE0F901F9018951D
:102F84000F931F93CF93DF93CDB7DEB780916D403E
:102F940090916E40A0916F40B091704000E010E0BD
:102FA4009801AC01BD0181E00E94271380916D401E
:102FB40090916E40A0916F40B091704000E010E09D
:102FC40020EF32E4AC01BD0182E00E94271380911E
:102FD4006D4090916E40A0916F40B091704000E0C0
:102FE40010E020E733E4AC01BD0183E00E94271325
:0C2FF4000000DF91CF911F910F91089514
:10300000CF93DF930F92CDB7DEB780E298E0FC015B
:10301000818189838981882F90E086749927892B03
:1030200039F18981882F90E082709927892B31F0BE
:103030008091B5409091B640FC0109958981882F17
:1030400090E084709927892B31F08091B140909164
:10305000B240FC0109958981882F90E080749927FE
:10306000892B31F08091B3409091B440FC010995D7
:0A30700000000F90DF91CF9108954A
:10307A00E89409C097FB3EF4909580957095619508
:10308A007F4F8F4F9F4F9923A9F0F92F96E9BB27BE
:10309A009395F695879577956795B795F111F8CF3A
:1030AA00FAF4BB0F11F460FF1BC06F5F7F4F8F4FA5
:1030BA009F4F16C0882311F096E911C0772321F09B
:1030CA009EE8872F762F05C0662371F096E8862F33
:1030DA0070E060E02AF09A95660F771F881FDAF78A
:0A30EA00880F9695879597F90895D1
:1030F4001F920F920FB60F9211240BB60F922F93BB
:103104003F934F935F936F937F938F939F93AF936B
:10311400BF93EF93FF93CF93DF93CDB7DEB780E0F8
:1031240090E00E94E61E81E08093004081E080935D
:10313400034080EC96E021E0FC0123830000DF9152
:10314400CF91FF91EF91BF91AF919F918F917F911B
:103154006F915F914F913F912F910F900BBE0F9004
:083164000FBE0F901F9018959B
:10316C00CF93DF93CDB7DEB72897CDBFDEBF6D838E
:10317C007E838F83988719821A821B821C8227E791
:10318C003CEC4BE251E46D817E818F8198850E94ED
:10319C004A22DC01CB0120E030E040E05FE3BC01DF
:1031AC00CD010E941622DC01CB01BC01CD010E9495
:1031BC00E21ADC01CB0189839A83AB83BC838981BE
:1031CC009A81AB81BC81BC01CD012896CDBFDEBFFD
:0631DC00DF91CF91089580
:1031E200CF93DF930F92CDB7DEB78983898188238E
:1031F200B1F082E08093C54080E090E0A0E7B2E4C5
:1032020080936D4090936E40A0936F40B093704056
:1032120080E490E08093BB409093BC4015C081E075
:103222008093C54080E090E0A8E4B2E480936D40D2
:1032320090936E40A0936F40B093704080E590E011
:103242008093BB409093BC400E94DF0E00000F9021
:06325200DF91CF91089509
:10325800CF93DF93CDB7DEB72797CDBFDEBF8C8383
:103268009D836E837F838C819D8189839A8319C016
:1032780080E499E029813A81F9012081FC012483C5
:10328800000080E499E0FC0183818823D4F780E47E
:1032980099E0FC0184818B8389819A8101968983D5
:1032A8009A838E819F819C01215031092E833F830F
:1032B800892BF1F600002796CDBFDEBFDF91CF91B5
:0232C800089567
:1032CA001F920F920FB60F9211240BB60F922F93E3
:1032DA003F934F935F936F937F938F939F93AF9394
:1032EA00BF93EF93FF93CF93DF93CDB7DEB7809170
:1032FA00AD409091AE40892B31F08091AD409091D4
:10330A00AE40FC0109950000DF91CF91FF91EF914A
:10331A00BF91AF919F918F917F916F915F914F91E3
:10332A003F912F910F900BBE0F900FBE0F901F90E1
:02333A001895E4
:10333C001F920F920FB60F9211240BB60F922F9370
:10334C003F934F935F936F937F938F939F93AF9321
:10335C00BF93EF93FF93CF93DF93CDB7DEB78091FD
:10336C00AF409091B040892B31F08091AF4090915B
:10337C00B040FC0109950000DF91CF91FF91EF91D6
:10338C00BF91AF919F918F917F916F915F914F9171
:10339C003F912F910F900BBE0F900FBE0F901F906F
:0233AC00189572
:1033AE001F920F920FB60F9211240BB60F922F93FE
:1033BE008F939F93EF93FF93CF93DF93CDB7DEB7AA
:1033CE0080910040813059F41092004080E29AE0E2
:1033DE00FC0180819181809306409093074081E0AB
:1033EE008093014081E08093044088EC96E021E0D8
:1033FE00FC0123830000DF91CF91FF91EF919F910C
:10340E008F912F910F900BBE0F900FBE0F901F90AC
:02341E001895FF
:10342000CF93DF93CDB7DEB72697CDBFDEBF8B83BB
:103430009C836D837E8319821A8219821A8218C036
:1034400000000E94C720982F81E089278823C9F7B0
:103450008B819C819C012F5F3F4F2B833C83FC0120
:1034600080810E947B1A89819A81019689839A833F
:1034700029813A818D819E818217930708F7000088
:0C3480002696CDBFDEBFDF91CF910895EE
:10348C00CF93DF93CDB7DEB760E080E690E00E948B
:10349C00A71E60E081E690E00E94A71E60E082E635
:1034AC0090E00E94A71E60E083E690E00E94A71EB9
:1034BC0064E288E690E00E94A71E60E089E690E056
:1034CC000E94A71E60E088E790E00E94A71E60E0C3
:1034DC0080E790E00E94A71E60E08CE790E00E94DD
:0A34EC00A71E0000DF91CF910895A4
:1034F600CF93DF9300D0CDB7DEB78A838091C240E9
:103506008F5F8F70898300008091C4408031E1F322
:103516008981882F90E08B5C9F4B2A81FC01208358
:1035260089818093C2400FB6F8940F928091C4406F
:103536008F5F8093C4400F900FBE80E298E020E238
:1035460038E0F90125812062FC01258300000F90F7
:083556000F90DF91CF91089561
:10355E00CF93DF930F92CDB7DEB78091C44088230F
:10356E00C1F08091C3408F5F8F7089838981809372
:10357E00C34080E298E02981222F30E02B5C3F4B44
:10358E00F9012081FC0122838091C44081508093F7
:10359E00C4408091C440882349F480E298E020E240
:1035AE0038E0F90125812F7DFC01258300000F9065
:0635BE00DF91CF9108959A
:1035C4000E940C1D88F09F5798F0B92F9927B75186
:1035D400B0F0E1F0660F771F881F991F1AF0BA95B3
:1035E400C9F714C0B13091F00E942A22B1E00895C5
:1035F4000C942A22672F782F8827B85F39F0B93FB7
:10360400CCF3869577956795B395D9F73EF4909565
:0E3614008095709561957F4F8F4F9F4F089561
:10362200CF93DF93CDB7DEB72797CDBFDEBF8E83B3
:103632009F8325E0CE010196FC01322F11923A952B
:10364200E9F78E819F81892F992789838E818A83C9
:103652008091084060E00E940B1C62E0CE0101965E
:103662000E94611E8091084061E00E940B1C0000D4
:0C3672002796CDBFDEBFDF91CF910895F9
:10367E00CF93DF9300D0CDB7DEB70E94001880E263
:10368E0098E0FC01808189838091BF408F5F8F70AD
:10369E008A838091C0409A81981781F08A818093A5
:1036AE00BF408A81882F90E08B5D9F4B2981FC0162
:1036BE0020838091C1408F5F8093C14000000F90A6
:0836CE000F90DF91CF910895E8
:1036D6001F920F920FB60F9211240BB60F922F93D3
:1036E6003F938F939F93EF93FF93CF93DF93CDB742
:1036F600DEB780E298E020E238E0F9012481206418
:10370600FC0124830000DF91CF91FF91EF919F91FF
:103716008F913F912F910F900BBE0F900FBE0F9080
:043726001F90189543
:10372A00CF93DF93CDB7DEB72697CDBFDEBF6B83CE
:10373A007C838D839E8319821A8221E63BE046E3CD
:10374A0051E46B817C818D819E810E944A22DC0139
:10375A00CB01BC01CD010E94E21ADC01CB018983B5
:10376A009A8389819A812696CDBFDEBFDF91CF9158
:02377A000895B0
:10377C00CF93DF930F92CDB7DEB700008091C1409D
:10378C008823E1F38091C0408F5F8F70898389819A
:10379C008093C0400FB6F8940F928091C140815035
:1037AC008093C1400F900FBE8981882F90E08B5D74
:0E37BC009F4BFC0180810F90DF91CF9108950B
:1037CA00CF93DF93CDB7DEB72897CDBFDEBF8B830C
:1037DA009C836D837E834F83588719821A822B813B
:1037EA003C818D819E81282B392B8F819885822B54
:1037FA00932B89839A8389819A810E94111B0000E5
:0C380A002896CDBFDEBFDF91CF9108955E
:10381600CF93DF9300D0CDB7DEB789836A838981E2
:10382600882F90E08230910551F08330910559F050
:10383600019709F00CC08A810E949A1D08C08A81EE
:103846000E94B31D04C08A810E94CC1D00000000A6
:0A3856000F900F90DF91CF910895BD
:10386000CF93DF9300D0CDB7DEB789836A83898198
:10387000882F90E08230910551F08330910559F006
:10388000019709F00CC08A810E94E51D08C08A8159
:103890000E94FE1D04C08A810E94171E00000000C5
:0A38A0000F900F90DF91CF91089573
:1038AA001F920F920FB60F9211240BB60F922F93FD
:1038BA008F939F93EF93FF93CF93DF93CDB7DEB7A9
:1038CA0080E096E021E0FC0125870000DF91CF919E
:1038DA00FF91EF919F918F912F910F900BBE0F90B7
:0838EA000FBE0F901F9018950E
:1038F200990F0008550FAA0BE0E8FEEF16161706FF
:10390200E807F907C0F012161306E407F50798F066
:10391200621B730B840B950B39F40A2661F0232B7F
:10392200242B252B21F408950A2609F4A140A695FB
:083932008FEF811D811D089536
:10393A00CF93DF9300D00F92CDB7DEB78B838B8105
:10394A000E94261D00000E94D21E982F81E089271E
:10395A008823C9F70E94EE2089839A8380E096E043
:10396A0021E0FC01258789819A812396CDBFDEBF9C
:06397A00DF91CF910895DA
:10398000CF93DF93CDB7DEB72697CDBFDEBF8B8356
:103990009C836D837E838B819C8189839A8329811B
:1039A0003A818D819E81822B932B89839A83898191
:1039B0009A810E94111B00002696CDBFDEBFDF91C9
:0439C000CF91089506
:1039C400CF93DF9300D0CDB7DEB71A8281E089832D
:1039D40010C01A8208C089810E94B9200E947E1DED
:1039E4008A818F5F8A838A818531A8F389818F5F79
:1039F40089838981843068F300000F900F90DF91F0
:043A0400CF910895C1
:103A080057FD9058440F551F59F05F3F71F0479587
:103A1800880F97FB991F61F09F3F79F0879508956C
:103A2800121613061406551FF2CF4695F1DF08C08B
:103A3800161617061806991FF1CF869571056105A8
:043A48000894089541
:103A4C00CF93DF930F92CDB7DEB7898380E096E0FA
:103A5C0020E036E0F90120812F7DFC01208380E0FD
:103A6C0096E02981FC01208780E096E021E0FC01B2
:0C3A7C00228700000F90DF91CF91089589
:103A8800CF93DF93CDB7DEB70E94461A0E94530743
:103A98000E944E150E94621D0E94CE120E9475124D
:103AA8000E940B150E94BD1E0E9488200E9476204D
:0C3AB8000E94491E0000DF91CF9108958C
:103AC400CF93DF93CDB7DEB780E499E022E0FC0129
:103AD400218380E499E021E2FC01208380E499E0E1
:103AE400FC0112821092BD4080E499E0FC01138233
:083AF4000000DF91CF9108955D
:103AFC00CF93DF9300D0CDB7DEB78FE18983809170
:103B0C00094060E00E94301C61E0CE0101960E94E9
:103B1C00611E8091094061E00E94301C00000F90F2
:083B2C000F90DF91CF91089585
:103B3400CF93DF930F92CDB7DEB789838981882332
:103B440031F085E694E020E8FC01208305C086E698
:103B540094E020E8FC01208300000F90DF91CF91D6
:023B64000895C2
:103B6600CF93DF930F92CDB7DEB789838981882300
:103B760031F085EA94E028E0FC01208305C086EA5E
:103B860094E028E0FC01208300000F90DF91CF91A4
:023B9600089590
:103B9800CF93DF930F92CDB7DEB7898389818823CE
:103BA80031F085E894E022E0FC01208305C086E836
:103BB80094E022E0FC01208300000F90DF91CF9178
:023BC80008955E
:103BCA00CF93DF930F92CDB7DEB78983898188239C
:103BDA0031F085E094E020E8FC01208305C086E00E
:103BEA0094E020E8FC01208300000F90DF91CF9140
:023BFA0008952C
:103BFC00CF93DF930F92CDB7DEB78983898188236A
:103C0C0031F085E894E024E0FC01208305C086E8CF
:103C1C0094E024E0FC01208300000F90DF91CF9111
:023C2C000895F9
:103C2E00CF93DF930F92CDB7DEB789838981882337
:103C3E0031F085E294E020E1FC01208305C086E2AC
:103C4E0094E020E1FC01208300000F90DF91CF91E2
:023C5E000895C7
:103C60002F923F924F925F926F927F928F929F928C
:103C7000AF92BF92CF92DF92EF92FF920F931F937A
:103C8000CF93DF93CDB7DEB7CA1BDB0BCDBFDEBF53
:023C9000099495
:103C9200CF93DF93CDB7DEB761E080E191E00E9480
:103CA200911E80E191E021E0FC01228380E191E01C
:103CB20020E2FC012383789480E0DF91CF91089584
:103CC200CF93DF9300D00F92CDB7DEB789839A836B
:103CD2006B838B81282F30E089819A81B9010E9400
:103CE2002C1980E02396CDBFDEBFDF91CF910895DE
:103CF2002A88398848885F846E847D848C849B847A
:103D0200AA84B984C884DF80EE80FD800C811B8187
:103D1200AA81B981CE0FD11DCDBFDEBFED010895BD
:103D2200CF93DF9300D00F92CDB7DEB789839A830A
:103D32006B8389819A814B8168ED0E943722000052
:0C3D42002396CDBFDEBFDF91CF91089526
:103D4E00CF93DF9300D00F92CDB7DEB789839A83DE
:103D5E006B8389819A814B8168ED0E943722000026
:0C3D6E002396CDBFDEBFDF91CF910895FA
:103D7A00CF93DF93CDB7DEB780EA90E0FC011482DF
:103D8A0080EA90E025E8FC01208380EA90E0FC01CB
:0A3D9A00128280E0DF91CF910895BE
:103DA400CF93DF93CDB7DEB780E096E0FC01858545
:103DB400882F90E08170992721E0892B09F420E075
:083DC400822FDF91CF910895D9
:103DCC00CF93DF9300D0CDB7DEB789839A8380E0A1
:103DDC009AE029813A81FC0120A331A300000F90C5
:083DEC000F90DF91CF910895C3
:103DF400CF93DF9300D0CDB7DEB789839A838981CF
:103E04009A81809373409093744000000F900F90B8
:063E1400DF91CF9108953B
:103E1A00CF93DF9300D0CDB7DEB789839A838981A8
:103E2A009A81809375409093764000000F900F908E
:063E3A00DF91CF91089515
:103E4000CF93DF9300D0CDB7DEB789839A83898182
:103E50009A81809377409093784000000F900F9064
:063E6000DF91CF910895EF
:103E6600CF93DF9300D0CDB7DEB789839A8389815C
:103E76009A818093794090937A4000000F900F903A
:063E8600DF91CF910895C9
:103E8C00CF93DF9300D0CDB7DEB789839A83898136
:103E9C009A8180937B4090937C4000000F900F9010
:063EAC00DF91CF910895A3
:103EB200CF93DF9300D0CDB7DEB789839A83898110
:103EC2009A8180937D4090937E4000000F900F90E6
:063ED200DF91CF9108957D
:103ED800CF93DF9300D0CDB7DEB789839A838981EA
:103EE8009A8180937F409093804000000F900F90BC
:063EF800DF91CF91089557
:103EFE00CF93DF9300D0CDB7DEB789839A838981C4
:103F0E009A81809381409093824000000F900F9091
:063F1E00DF91CF91089530
:103F2400CF93DF9300D0CDB7DEB789839A8389819D
:103F34009A81809383409093844000000F900F9067
:063F4400DF91CF9108950A
:103F4A00CF93DF9300D0CDB7DEB789839A83898177
:103F5A009A81809385409093864000000F900F903D
:063F6A00DF91CF910895E4
:103F7000CF93DF9300D0CDB7DEB789839A83898151
:103F80009A81809387409093884000000F900F9013
:063F9000DF91CF910895BE
:103F9600CF93DF9300D0CDB7DEB789839A8389812B
:103FA6009A818093894090938A4000000F900F90E9
:063FB600DF91CF91089598
:103FBC00CF93DF9300D0CDB7DEB789839A83898105
:103FCC009A8180938B4090938C4000000F900F90BF
:063FDC00DF91CF91089572
:103FE200CF93DF9300D0CDB7DEB789839A838981DF
:103FF2009A8180938D4090938E4000000F900F9095
:06400200DF91CF9108954B
:10400800CF93DF9300D0CDB7DEB789839A838981B8
:104018009A8180938F409093904000000F900F906A
:06402800DF91CF91089525
:10402E00CF93DF9300D0CDB7DEB789839A83898192
:10403E009A81809391409093924000000F900F9040
:06404E00DF91CF910895FF
:10405400CF93DF9300D0CDB7DEB789839A8389816C
:104064009A81809393409093944000000F900F9016
:06407400DF91CF910895D9
:10407A00CF93DF9300D0CDB7DEB789839A83898146
:10408A009A81809395409093964000000F900F90EC
:06409A00DF91CF910895B3
:1040A000CF93DF9300D0CDB7DEB789839A83898120
:1040B0009A81809397409093984000000F900F90C2
:0640C000DF91CF9108958D
:1040C600CF93DF9300D0CDB7DEB789839A838981FA
:1040D6009A818093994090939A4000000F900F9098
:0640E600DF91CF91089567
:1040EC00CF93DF93CDB7DEB788EC96E021E0FC01EF
:1040FC00228388EC96E021E0FC01208380E0DF91B4
:04410C00CF910895B2
:10411000CF93DF93CDB7DEB780EC96E021E0FC01D2
:10412000228380EC96E021E0FC01208380E0DF9197
:04413000CF9108958E
:10413400092E0394000C11F4882352F0BB0F40F4B1
:10414400BF2B11F460FF04C06F5F7F4F8F4F9F4FF1
:024154000895CC
:10415600CF93DF930F92CDB7DEB7898389818093A2
:0C416600084000000F90DF91CF910895F9
:10417200CF93DF930F92CDB7DEB789838981809386
:0C418200094000000F90DF91CF910895DC
:10418E00CF93DF93CDB7DEB79091C44081E09031ED
:0A419E0009F480E0DF91CF9108954D
:1041A800CF93DF93CDB7DEB79091C14081E09923DB
:0A41B80009F480E0DF91CF91089533
:1041C20057FD06C05BBF67917791879197910895DC
:0A41D200619171918191919108951E
:1041DC00CF93DF93CDB7DEB780E096E0FC0180890A
:0841EC009189DF91CF91089544
:1041F400CF93DF93CDB7DEB780E091E00E94111B2F
:084204000000DF91CF91089545
:10420C00CF93DF93CDB7DEB780E090E00E94111B17
:08421C000000DF91CF9108952D
:10422400EC010E9458220E945722CE010E9459227A
:06423400CE010E9455229C
:10423A00CF93DF93CDB7DEB70000DF91CF9108951A
:10424A00CF93DF93CDB7DEB70000DF91CF9108950A
:10425A00CF93DF93CDB7DEB70000DF91CF910895FA
:10426A00CF93DF93CDB7DEB70000DF91CF910895EA
:10427A00CF93DF93CDB7DEB70000DF91CF910895DA
:10428A00CF93DF93CDB7DEB70000DF91CF910895CA
:10429A00CF93DF93CDB7DEB70000DF91CF910895BA
:1042AA00CF93DF93CDB7DEB70000DF91CF910895AA
:1042BA00CF93DF93CDB7DEB70000DF91CF9108959A
:1042CA00CF93DF93CDB7DEB70000DF91CF9108958A
:1042DA00CF93DF93CDB7DEB70000DF91CF9108957A
:1042EA00CF93DF93CDB7DEB70000DF91CF9108956A
:1042FA00CF93DF93CDB7DEB70000DF91CF9108955A
:10430A00CF93DF93CDB7DEB70000DF91CF91089549
:10431A00CF93DF93CDB7DEB70000DF91CF91089539
:10432A00CF93DF93CDB7DEB70000DF91CF91089529
:10433A00CF93DF93CDB7DEB70000DF91CF91089519
:10434A00CF93DF93CDB7DEB70000DF91CF91089509
:10435A00CF93DF93CDB7DEB70000DF91CF910895F9
:10436A00CF93DF93CDB7DEB70000DF91CF910895E9
:10437A00CF93DF93CDB7DEB70000DF91CF910895D9
:10438A00CF93DF93CDB7DEB70000DF91CF910895C9
:10439A00CF93DF93CDB7DEB70000DF91CF910895B9
:1043AA00CF93DF93CDB7DEB70000DF91CF910895A9
:1043BA00CF93DF93CDB7DEB70000DF91CF91089599
:1043CA00CF93DF93CDB7DEB70000DF91CF91089589
:1043DA00CF93DF93CDB7DEB70000DF91CF91089579
:1043EA00CF93DF93CDB7DEB70000DF91CF91089569
:1043FA00CF93DF93CDB7DEB70000DF91CF91089559
:10440A00CF93DF93CDB7DEB70000DF91CF91089548
:10441A00CF93DF93CDB7DEB70000DF91CF91089538
:0E442A005058BB27AA270E9495100C949A2088
:0E44380000240A9416161706180609060895A1
:0E44460000240A9412161306140605060895A3
:0E445400E894BB2766277727CB0197F90895D8
:0C44620097F99F6780E870E060E0089523
:0A446E001BBEFC0164BF40830895EB
:0A4478000E94791C08F481E0089509
:0A4482000E94791C08F48FEF0895E2
:08448C000E944E0F0C949A20CF
:084494000E942B100C949A20E9
:06449C009FEF80EC089583
:0444A2000C94000076
:0444A6009F7708955F
:0444AA000E94B600B6
:0244AE0008956F
:0244B00008956D
:0244B20008956B
:0444B40004050600F5
:0444B8000000484276
:0244BC00BD2120
:0244BE00C52116
:0244C000CD210C
:0244C200D52102
:0244C400DD21F8
:0244C600E521EE
:0244C800ED21E4
:0244CA00F521DA
:0244CC003F1B94
:0244CE00AF1A23
:0244D000FD21CC
:0244D2000522C1
:0244D4000D22B7
:0244D600500094
:0144D80001E2
:02000004008278
:090000000000000000C000000037
:00000001FF
