:100000000C94CD000C94741C0C94741C0C94741CF3
:100010000C94741C0C94741C0C947E070C94E610C5
:100020000C94741C0C9420100C9462100C94A4106A
:100030000C94741C0C94741C0C94741C0C94741C00
:100040000C94741C0C94741C0C94741C0C94741CF0
:100050000C94741C0C94741C0C9487040C94741CE5
:100060000C94E2150C94180F0C9428110C94741C29
:100070000C94741C0C94050A0C94741C0C94E311DD
:100080000C9420120C9431150C944D0E0C94741C8D
:100090000C94741C0C94741C0C94741C0C94741CA0
:1000A0000C94741C0C94741C0C94741C0C94741C90
:1000B0000C942F0C0C949F090C94670A0C94741CDC
:1000C0000C945A0F0C949C0F0C94DE0F0C945D1240
:1000D0000C94741C0C94741C0C94741C0C94741C60
:1000E0000C94741C0C94741C07634236B79BD8A7FD
:1000F0001A39685618AEBAAB558C1D3CB7CC57634D
:10010000BD6DEDFD753EF6177231BF000000803FFA
:1001100008000000BE922449123EABAAAA2ABECD16
:10012000CCCC4C3E00000080BEABAAAAAA3E000088
:100130000000BF000000803F000000000008417880
:10014000D3BB4387D1133D190E3CC3BD4282AD2BB7
:100150003E68EC8276BED98FE1A93E4C80EFFFBEAF
:1001600001C4FF7F3F000000000040004067804066
:1001700067406F0038EC406F409B80409B40B5006B
:1001800038F440B540B98040B940BB00390E40BB9F
:1001900040C38040C340C400391011241FBECFEFBC
:1001A000CDBFDFE7DEBFEAE6F1E041E019C0B7917D
:1001B000A79137912791079107FD0EC097918791DD
:1001C000EF01F92FE82F0BBF07900D92A217B3078D
:1001D000D9F7FE011BBE04C01D92A217B307E1F7B9
:1001E000EA39F40721F70E94FA060C94F700F89414
:0201F000FFCF3F
:1001F200CF93DF93CDB7DEB70E94620680E094E032
:1002020020EDFC01208380E294E020E3FC012083C6
:1002120080E494E021E0FC01208380E694E025E87C
:10022200FC01208380E894E026E0FC01208380EA40
:1002320094E028E0FC01208380E094E020E8FC01C7
:10024200248380E294E020E3FC01248380E494E0B0
:10025200FC01148280E694E025E8FC01248380E816
:1002620094E026E0FC01248380EA94E028E0FC018B
:10027200248380E094E0FC01108A80E094E0FC0199
:10028200118A80E094E0FC01128A80E094E0FC0193
:10029200138A80E094E0FC01148A80E094E0FC017F
:1002A200158A80E094E0FC01168A80E094E0FC016B
:1002B200178A80E294E0FC01108A80E294E0FC015B
:1002C200118A80E294E0FC01128A80E294E0FC014F
:1002D200138A80E294E0FC01148A80E294E0FC013B
:1002E200158A80E294E0FC01168A80E294E0FC0127
:1002F200178A80E494E0FC01108A80E494E0FC0117
:10030200118A80E494E0FC01128A80E494E0FC010A
:10031200138A80E494E0FC01148A80E494E0FC01F6
:10032200158A80E494E0FC01168A80E494E028E0D7
:10033200FC01278B80E694E0FC01108A80E694E0C1
:10034200FC01118A80E694E0FC01128A80E694E0C6
:10035200FC01138A80E694E0FC01148A80E694E0B2
:10036200FC01158A80E694E0FC01168A80E694E09E
:10037200FC01178A80E894E0FC01108A80E894E08E
:10038200FC01118A80E894E0FC01128A80E894E082
:10039200FC01138A80E894E0FC01148A80E894E06E
:1003A200FC01158A80E894E0FC01168A80E894E05A
:1003B200FC01178A80EA94E0FC01108A80EA94E04A
:1003C200FC01118A80EA94E0FC01128A80EA94E03E
:1003D200FC01138A80EA94E0FC01148A80EA94E02A
:1003E200FC01158A80EA94E0FC01168A80EA94E016
:1003F200FC01178A80E094E0FC01138680E094E01F
:10040200FC01168680E094E0FC01158680E094E011
:10041200FC01148680E294E0FC01138680E294E001
:10042200FC01168680E294E0FC01158680E294E0ED
:10043200FC01148680E494E0FC01138680E494E0DD
:10044200FC01168680E494E0FC01158680E494E0C9
:10045200FC01148680E694E0FC01138680E694E0B9
:10046200FC01168680E694E0FC01158680E694E0A5
:10047200FC01148680E894E0FC01138680E894E095
:10048200FC01168680E894E0FC01158680E894E081
:10049200FC01148680EA94E0FC01138680EA94E071
:1004A200FC01168680EA94E0FC01158680EA94E05D
:1004B200FC01148680EE95E0FC01118680EE95E049
:1004C200FC01118280EE95E0FC01108280EE95E045
:1004D200FC01148280EE95E0FC01168280EE95E02C
:1004E200FC01178280EE95E0FC01108680EE95E01B
:1004F200FC01158280EE95E0FC01128280EE95E00F
:10050200FC01138280EE95E0FC01128681E39BE1FF
:100512000E94181989E39BE10E942B1981E49BE157
:100522000E943E1989E49BE10E94511981E59BE1F9
:100532000E94641989E59BE10E94771981E69BE19B
:100542000E948A1989E69BE10E949D1981E79BE13D
:100552000E94B01989E79BE10E94C31981E89BE1DF
:100562000E94D61989E89BE10E94E91981E99BE181
:100572000E94FC1989E99BE10E940F1A81EA9BE122
:100582000E94221A89EA9BE10E94351A81EB9BE1C3
:100592000E94481A89EB9BE10E945B1A81EC9BE165
:1005A2000E946E1A89EC9BE10E94811A0000DF9181
:0405B200CF91089548
:1005B600CF92DF92EF92FF920F931F93CF93DF9329
:1005C600CDB7DEB72597CDBFDEBF1A821B821C8250
:1005D6001D8219822091B9403091BA40809199408C
:1005E60090919A402817390708F0C6C01092994092
:1005F60010929A401982B8C08981882F90E0880F9E
:10060600991F880F991F8D5B9F4BFC01C080D1807D
:10061600E280F3808091B7409091B840CC01A0E091
:10062600B0E0BC01CD010E949A12DC01CB019C0115
:10063600AD01C701B6010E94691CDC01CB018A83AA
:100646009B83AC83BD838981882F90E0880F991F97
:10065600880F991F8D5B9F4BFC01108211821282BD
:1006660013828981082F10E08A819B81AC81BD812C
:10067600BC01CD010E94060EDC01CB019801220FC0
:10068600331F220F331F215B3F4BF9018083918378
:10069600A283B3838981082F10E08981882F90E097
:1006A600880F991F880F991F815B9F4BFC018081E2
:1006B6009181A281B38120E030E048EC52E4BC0194
:1006C600CD010E946D1CDC01CB0120E030E040E052
:1006D6005FE3BC01CD010E94321CDC01CB01BC01F1
:1006E600CD010E940215DC01CB01CC01A0E0B0E0F7
:1006F600BC01CD010E949A12DC01CB019801220FA8
:10070600331F220F331F215B3F4BF90180839183F7
:10071600A283B3838981082F10E08981882F90E016
:10072600880F991F880F991F815B9F4BFC01808161
:100736009181A281B38120E030E048EC52E4BC0113
:10074600CD010E94691CDC01CB019801220F331FE9
:10075600220F331F215B3F4BF90180839183A283D4
:10076600B38389818F5F89838981833008F444CF7D
:100776001092B7401092B8408981882F90E0880F78
:10078600991F880F991F815B9F4BFC018081918186
:10079600A281B381BC01CD012596CDBFDEBFDF911D
:1007A600CF911F910F91FF90EF90DF90CF9008951A
:1007B6000F931F93CF93DF931F92CDB7DEB7898335
:1007C6008981882F90E08230910509F44DC08330ED
:1007D60091052CF4009759F00197E1F18CC0833014
:1007E600910509F44BC0049709F452C084C0809166
:1007F6006B4090916C40A0916D40B0916E4000E0CE
:1008060010E09801AC01BD0181E00E94D60B8091F9
:100816006B4090916C40A0916D40B0916E4000E0AD
:1008260010E020EF32E4AC01BD0182E00E94D60B5D
:1008360080916B4090916C40A0916D40B0916E405C
:1008460000E010E020E733E4AC01BD0183E00E9444
:10085600D60B53C000E010E0980140E050E0BA012A
:1008660083E00E94D60B49C000E010E0980140E00A
:1008760050E0BA0182E00E94D60B3FC000E010E0D3
:10088600980140E050E0BA0181E00E94D60B35C0E5
:1008960080916B4090916C40A0916D40B0916E40FC
:1008A60000E010E020E733E4AC01BD0181E00E94E6
:1008B600D60B80916B4090916C40A0916D40B091A9
:1008C6006E4000E010E020EF32E4AC01BD0182E0B2
:1008D6000E94D60B80916B4090916C40A0916D4028
:1008E600B0916E4000E010E09801AC01BD0183E0DC
:1008F6000E94D60B02C081E001C080E00F90DF911C
:08090600CF911F910F9108959C
:10090E001F920F9200903F000F92112400903B0017
:10091E000F922F933F934F935F936F937F938F938A
:10092E009F93AF93BF93EF93FF93CF93DF93CDB787
:10093E00DEB78CE090E0FC018381882F90E080711F
:10094E009927892B31F08091714090917240FC0172
:10095E0009958CE090E0FC018381882F90E08072F5
:10096E009927892B31F08091734090917440FC014E
:10097E0009958CE090E0FC018381882F90E08074D3
:10098E009927892B31F08091754090917640FC012A
:10099E0009958CE090E0FC018381882F90E08270B5
:1009AE009927892B31F08091794090917A40FC0102
:1009BE0009958CE090E0FC018381882F90E0817096
:1009CE009927892B31F080918D4090918E40FC01BA
:1009DE0009958CE090E0FC018381882F90E0847073
:1009EE009927892B31F080918F4090919040FC0196
:1009FE0009958CE090E0FC018381882334F480918A
:100A0E00914090919240FC0109958CE090E02FEF7F
:100A1E00FC0123830000DF91CF91FF91EF91BF91F5
:100A2E00AF919F918F917F916F915F914F913F9178
:100A3E002F910F9000923B000F9000923F000F906D
:040A4E001F90189548
:100A5200CF92DF92EF92FF92CF93DF9300D0CDB788
:100A6200DEB719821A8219821A8281C089819A811B
:100A720089599F4BFC0180810E94EC169C0189815F
:100A82009A81880F991F855A9F4BFC0120833183DD
:100A92002091B9403091BA408091994090919A400A
:100AA2002817390708F45EC089819A81880F991F37
:100AB200855A9F4BFC01808191818939984008F4C5
:100AC20051C08091B7409091B84001968093B74051
:100AD2009093B84089819A81880F991F880F991F36
:100AE2008D5B9F4BFC01C080D180E280F3808981C5
:100AF2009A81880F991F855A9F4BFC0180819181B1
:100B0200CC01A0E0B0E0BC01CD010E949A12DC0150
:100B1200CB0123EA36E043E55AE3BC01CD010E9452
:100B22006D1CDC01CB0120E030E040E050E4BC0170
:100B3200CD010E94D60CDC01CB019C01AD01C701A5
:100B4200B6010E94321CDC01CB0129813A81220FBD
:100B5200331F220F331F2D5B3F4BF901808391839B
:100B6200A283B38389819A81019689839A83898139
:100B72009A81039708F47ACF00000F900F90DF91CB
:0C0B8200CF91FF90EF90DF90CF9008958E
:100B8E00CF93DF93CDB7DEB72F97CDBFDEBF1982E0
:100B9E0083C088E090E0FC01828188230CF47CC045
:100BAE001092994010929A4089818095898389810B
:100BBE000E94121380E090E0AAEFB3E48A839B8335
:100BCE00AC83BD8320E030E84BEB55E46A817B813A
:100BDE008C819D810E946D1CDC01CB018E839F83D5
:100BEE00A887B98720E030E040E85FE36E817F811F
:100BFE00888599850E945F1C88232CF481E090E003
:100C0E008A879B873FC020E03FEF4FE757E46E8116
:100C1E007F81888599850E94641C18164CF520E00A
:100C2E0030E040E251E46A817B818C819D810E949B
:100C3E006D1CDC01CB01BC01CD010E940215DC0153
:100C4E00CB018A879B870FC088E592E08C879D87B2
:100C5E008C859D850197F1F78C879D878A859B856D
:100C6E0001978A879B878A859B85892B69F714C094
:100C7E006E817F81888599850E940215DC01CB01EA
:100C8E008A879B878A859B858E879F878E859F8582
:100C9E000197F1F78E879F878091994090919A40A6
:100CAE0081329E4408F475CF00002F96CDBFDEBF73
:060CBE00DF91CF910895C3
:100CC400CF93DF93CDB7DEB72697CDBFDEBF1982B2
:100CD40012C08981882F90E0805F9B4F2981222F49
:100CE40030E0205F3B4FF90120812860FC01208324
:100CF40089818F5F89838981883058F31A8212C071
:100D04008A81882F90E0805D9B4F2A81222F30E0DA
:100D1400205D3B4FF90120812860FC0120838A81FA
:100D24008F5F8A838A81883058F31B8212C08B813B
:100D3400882F90E0805B9B4F2B81222F30E0205B3B
:100D44003B4FF90120812860FC0120838B818F5F58
:100D54008B838B81883058F31C8212C08C81882F3E
:100D640090E080599B4F2C81222F30E020593B4F3B
:100D7400F90120812860FC0120838C818F5F8C83A2
:100D84008C81883058F31D8212C08D81882F90E0A9
:100D940080579B4F2D81222F30E020573B4FF90184
:100DA40020812860FC0120838D818F5F8D838D815C
:100DB400883058F31E8212C08E81882F90E08055AF
:100DC4009B4F2E81222F30E020553B4FF90120818B
:100DD4002860FC0120838E818F5F8E838E81883012
:100DE40058F300002696CDBFDEBFDF91CF91089562
:100DF400CF93DF93CDB7DEB72E97CDBFDEBF0E9472
:100E0400931780E090E0AAE7B4E489839A83AB83E4
:100E1400BC8320E030E84BEB55E469817A818B8117
:100E24009C810E946D1CDC01CB018D839E83AF836A
:100E3400B88720E030E040E85FE36D817E818F81F8
:100E440098850E945F1C88232CF481E090E08987B8
:100E54009A873FC020E03FEF4FE757E46D817E81E2
:100E64008F8198850E94641C18164CF520E030E0B0
:100E740040E251E469817A818B819C810E946D1CDE
:100E8400DC01CB01BC01CD010E940215DC01CB01C8
:100E940089879A870FC088E592E08B879C878B852A
:100EA4009C850197F1F78B879C8789859A850197A3
:100EB40089879A8789859A85892B69F714C06D81FA
:100EC4007E818F8198850E940215DC01CB01898780
:100ED4009A8789859A858D879E878D859E850197BA
:100EE400F1F78D879E870E9431170E94C7050E94E3
:080EF40068110E94C80AFDCF3D
:100EFC001F920F9200903F000F92112400903B0024
:100F0C000F922F933F934F935F936F937F938F9396
:100F1C009F93AF93BF93EF93FF93CF93DF93CDB793
:100F2C00DEB780E090E0FC018381882F90E0807236
:100F3C009927892B31F080917B4090917C40FC016A
:100F4C00099580E090E0FC018381882F90E080710E
:100F5C009927892B31F080917D4090917E40FC0146
:100F6C00099580E090E0FC018381882F90E08074EB
:100F7C009927892B31F080917F4090918040FC0122
:100F8C00099580E090E0FC018381882334F4809102
:100F9C00874090918840FC01099580E090E02FEF0C
:100FAC00FC0123830000DF91CF91FF91EF91BF9162
:100FBC00AF919F918F917F916F915F914F913F91E5
:100FCC002F910F9000923B000F9000923F000F90DA
:040FDC001F901895B5
:100FE000CF93DF93CDB7DEB783E080930A408CEFD9
:100FF0008093224080915B4090915C4080930B40B5
:1010000090930C4080915D4090915E4080930D40A4
:1010100090930E4080915F409091604080930F408C
:101020009093104080914F4090915040A09151403A
:10103000B09152408093154090931640A093174072
:10104000B09318408091534090915440A0915540E6
:10105000B09156408093194090931A40A0931B4042
:10106000B0931C408091574090915840A0915940B6
:10107000B0915A4080931D4090931E40A0931F4012
:10108000B09320408091C340813021F08091C340D3
:10109000813021F482E38093214007C08091C340D6
:1010A000823019F48CE38093214068E170E08AE09B
:0E10B00090E40E94FC130000DF91CF910895A0
:1010BE0010C00E943F1C58F00E94381C40F029F4CA
:1010CE005F3F29F00C94541C51110C94471C0C9446
:1010DE00711C0E94531768F39923B1F3552391F3B2
:1010EE00951B550BBB27AA2762177307840738F089
:1010FE009F5F5F4F220F331F441FAA1FA9F335D0E6
:10110E000E2E3AF0E0E832D091505040E695001C99
:10111E00CAF72BD0FE2F29D0660F771F881FBB1F53
:10112E00261737074807AB07B0E809F0BB0B802D31
:10113E00BF01FF2793585F4F3AF09E3F510578F05D
:10114E000C94541C0C94471C5F3FE4F3983ED4F36C
:10115E00869577956795B795F7959F5FC9F7880F31
:10116E00911D9695879597F90895E1E0660F771F83
:10117E00881FBB1F621773078407BA0720F0621B14
:0E118E00730B840BBA0BEE1F88F7E0950895E3
:10119C000FC00E94381C38F00E943F1C20F0952391
:1011AC0011F00C94541C0C94711C11240C94471CBD
:1011BC000E94531770F3959FC1F3950F50E0551F84
:1011CC00629FF001729FBB27F00DB11D639FAA2790
:1011DC00F00DB11DAA1F649F6627B00DA11D661FDF
:1011EC00829F2227B00DA11D621F739FB00DA11D00
:1011FC00621F839FA00D611D221F749F3327A00DBA
:10120C00611D231F849F600D211D822F762F6A2F55
:10121C0011249F5750409AF0F1F088234AF0EE0FBA
:10122C00FF1FBB1F661F771F881F91505040A9F7E7
:10123C009E3F510580F00C94541C0C94471C5F3F4E
:10124C00E4F3983ED4F3869577956795B795F79523
:10125C00E7959F5FC1F7FE2B880F911D969587959B
:04126C0097F9089551
:1012700011C00E94381C38F00E943F1C20F039F445
:101280009F3F19F426F40C94711C0EF4E095E7FBD3
:101290000C94541CE92F0E94531758F3BA17620795
:1012A00073078407950720F079F4A6F50C94461C83
:1012B0000EF4E0950B2EBA2FA02D0B01B901900171
:1012C0000C01CA01A0011124FF27591B99F0593FB5
:1012D00050F4503E68F11A16F040A22F232F342FFD
:1012E0004427585FF3CF469537952795A795F0404B
:1012F0005395C9F77EF41F16BA0B620B730B840B60
:10130000BAF09150A1F0FF0FBB1F661F771F881F17
:10131000C2F70EC0BA0F621F731F841F48F487956F
:1013200077956795B795F7959E3F08F0B0CF939561
:0E133000880F08F09927EE0F9795879508957E
:10133E001F920F9200903F000F92112400903B00DD
:10134E000F922F933F934F935F936F937F938F9350
:10135E009F93AF93BF93EF93FF93CF93DF93CDB74D
:10136E00DEB780E190E0FC018381882F90E08870E9
:10137E009927892B31F08091774090917840FC012C
:10138E00099580E190E0FC018381882F90E08270C6
:10139E009927892B31F08091934090919440FC01D4
:1013AE00099580E190E0FC018381882F90E08470A4
:1013BE009927892B31F08091954090919640FC01B0
:1013CE00099580E190E02FEFFC0123830000DF916F
:1013DE00CF91FF91EF91BF91AF919F918F917F919F
:1013EE006F915F914F913F912F910F9000923B0023
:0C13FE000F9000923F000F901F90189578
:10140A001F920F9200903F000F92112400903B0010
:10141A000F922F933F934F935F936F937F938F9383
:10142A009F93AF93BF93EF93FF93CF93DF93CDB780
:10143A00DEB788E090E0FC018381882F90E082701B
:10144A009927892B31F08091814090918240FC014B
:10145A00099588E090E0FC018381882F90E08170F3
:10146A009927892B31F08091834090918440FC0127
:10147A00099588E090E0FC018381882334F4809107
:10148A00854090918640FC01099588E090E02FEF15
:10149A00FC0123830000DF91CF91FF91EF91BF916F
:1014AA00AF919F918F917F916F915F914F913F91F2
:1014BA002F910F9000923B000F9000923F000F90E7
:0414CA001F901895C2
:1014CE001F920F9200903F000F92112400903B004C
:1014DE000F922F933F934F935F936F937F938F93BF
:1014EE009F93AF93BF93EF93FF93CF93DF93CDB7BC
:1014FE00DEB78091A1409091A240892B31F080916E
:10150E00A1409091A240FC01099581E08093BC40DE
:10151E008091994090919A40019680939940909332
:10152E009A408091634090916440A0916540B09143
:10153E0066400196A11DB11D809363409093644057
:10154E00A0936540B093664080E49AE021E0FC01F0
:10155E0023870000DF91CF91FF91EF91BF91AF9163
:10156E009F918F917F916F915F914F913F912F91AD
:10157E000F9000923B000F9000923F000F901F9033
:02158E001895AE
:10159000CF93DF9300D0CDB7DEB719821A82809146
:1015A000BC40813061F41092BC400E9429050E9429
:1015B000F0070E94750D0E94260D0E94DB028091AB
:1015C000634090916440A0916540B0916640803C3A
:1015D000944DA140B10558F01092634010926440C0
:1015E000109265401092664080E00E94DB030E94EA
:1015F000001B882319F119821A820EC00E940A1654
:10160000282F89819A818B549F4BFC0120838981EB
:101610009A81019689839A8389819A81029770F3CE
:1016200010926340109264401092654010926640A0
:101630001092BC408091B6400E94DB0300000F90E6
:081640000F90DF91CF91089596
:10164800CF93DF93CDB7DEB780E49AE0FC0110A614
:1016580011A680E49AE0FC0112A613A680E49AE0A1
:10166800FC0114A615A680E49AE0FC0110A211A2C0
:1016780080E49AE0FC01118280E49AE0FC01128285
:1016880080E49AE0FC01138280E49AE0FC01148271
:1016980080E49AE0FC01158280E49AE0FC0116825D
:1016A80080E49AE0FC01178280E49AE0FC01168647
:1016B80080E49AE0FC01118680E49AE021E0FC01D4
:1016C800228780E49AE0FC01138680E49AE02BEDFF
:1016D80035E0FC0126A337A380E49AE0FC011786D5
:1016E80080E49AE027E0FC0120830000DF91CF919D
:0216F800089553
:1016FA00CF93DF93CDB7DEB780E09AE0FC0110A666
:10170A0011A680E09AE0FC0112A613A680E09AE0F6
:10171A00FC0114A615A680E09AE0FC0110A211A211
:10172A0080E09AE0FC01118280E09AE0FC011282DA
:10173A0080E09AE0FC01138280E09AE0FC011482C6
:10174A0080E09AE0FC01158280E09AE0FC011682B2
:10175A0080E09AE0FC01178280E09AE0FC0116869C
:10176A0080E09AE0FC01118680E09AE021E0FC0129
:10177A00228780E09AE0FC01138680E09AE02FEF4E
:10178A003FEFFC0126A337A380E09AE0FC0117860D
:10179A0080E09AE027E0FC0120830000DF91CF91EE
:0217AA000895A0
:1017AC000F931F93CF93DF93CDB7DEB72F97CDBF9A
:1017BC00DEBF8F83488759876A877B870C871D8795
:1017CC002E873F8719821A821B821C821D821E82E1
:1017DC0088859985AA85BB85BC01CD010E94D7124D
:1017EC00DC01CB0189839A83AB83BC838C859D857B
:1017FC00AE85BF85BC01CD010E94B9158D839E833A
:10180C008F810E94C91A0E94191B89819A81AB8110
:10181C00BC81AC01BD0180E090E40E94BE0D8D81C5
:10182C009E81BC0180E090EC0E940F170E94251B4A
:10183C0040E050E060E070E080E090E00E945816DC
:10184C0000002F96CDBFDEBFDF91CF911F910F917E
:02185C000895ED
:10185E001F920F9200903F000F92112400903B00B8
:10186E000F922F933F934F935F936F937F938F932B
:10187E009F93AF93BF93EF93FF93CF93DF93CDB728
:10188E00DEB784E090E0FC018381882F90E08071C8
:10189E009927892B31F08091894090918A40FC01E3
:1018AE00099584E090E0FC018381882F90E080729E
:1018BE009927892B31F080918B4090918C40FC01BF
:1018CE00099584E090E02FEFFC0123830000DF9167
:1018DE00CF91FF91EF91BF91AF919F918F917F919A
:1018EE006F915F914F913F912F910F9000923B001E
:0C18FE000F9000923F000F901F90189573
:10190A0008C016F00C94E51A0C94711C68940C9497
:10191A00541C0E945B17A8F39923C1F3AEF3DF931B
:10192A00CF931F930F93FF92C92FDD2788232AF0A5
:10193A002197660F771F881FDAF720E030E040E82A
:10194A005FEB9FE3883920F0803E38F021968F774D
:10195A000E94321CE0E1F1E004C00E94321CEDE377
:10196A00F1E00E9431168B01BE01EC01FB2E6F578C
:10197A0071097595771F880B990B0E949C1228E1B3
:10198A0032E741E35FE30E94CE08AF2D9801AE0132
:10199A00FF900F911F91CF91DF910E9438090C940B
:0219AA00B81A69
:1019AC00FA01EE0FFF1F309621053105A1F16115EB
:1019BC00710561F48038BFE39B0749F16894903856
:1019CC00810561F08038BFEF9B0741F099234AF500
:1019DC00FF3FE1053105210519F1E8940894E795DD
:1019EC00D901AA2329F4AB2FBE2FF85FD0F310C076
:1019FC00FF5F70F4A695E0F7F73950F019F0FF3A55
:101A0C0038F49F779F930DD00F9007FC9058089552
:101A1C0046F00C94711C60E070E080E89FE3089540
:101A2C004FE79F775F934F933F932F930E94850CC3
:101A3C002F913F914F915F910E946D1C0C944D130F
:101A4C00CF93DF9300D000D0CDB7DEB719821A82C6
:101A5C001B821C828091064090910740CC01A0E033
:101A6C00B0E0BC01CD010E949A12DC01CB012BED40
:101A7C003AE241EB54E3BC01CD010E946D1CDC0148
:101A8C00CB0189839A83AB83BC8389819A81AB8197
:101A9C00BC8126EA3BE944E45BE3BC01CD010E9436
:101AAC00641C181694F489819A81AB81BC812FE651
:101ABC0032E143E05CE3BC01CD010E945F1C882352
:101ACC0024F41092114080E004C081E08093114016
:0E1ADC0081E02496CDBFDEBFDF91CF9108954B
:101AEA00CF93DF9300D0CDB7DEB719821A82209147
:101AFA00B9403091BA408091994090919A40281704
:101B0A00390788F519821A822AC089819A81880F31
:101B1A00991F880F991F815B9F4BFC0180819181DE
:101B2A00A281B3812AE939E949E95EE3BC01CD0121
:101B3A000E945F1C181644F089819A818E5E9F4B21
:101B4A0021E0FC01208306C089819A818E5E9F4B29
:101B5A00FC01108289819A81019689839A838981FD
:101B6A009A81039790F200000F900F90DF91CF9126
:021B7A000895CC
:101B7C00CF93DF93CDB7DEB72A97CDBFDEBF8D8372
:101B8C009E834F83588769877A878D819E8189834D
:101B9C009A838D819E818B839C838F819885A98567
:101BAC00BA858827907CBF70072E7EE0B695A795E6
:101BBC00979587957A95D1F7702D9C0189819A819B
:101BCC00822B932B89839A838F8198859F732B818A
:101BDC003C81822B932B8B839C8380E090E20E9430
:101BEC005F158B819C810E945F1589819A810E946F
:101BFC005F1500002A96CDBFDEBFDF91CF9108950F
:101C0C0006C019F416F40C94711C0C94E51A0E947D
:101C1C005B17B8F39923C9F3B6F39F57550B87FF9E
:101C2C000E944D1C0024A0E640EA90018058569575
:101C3C00979528F4805C660F771F881F20F0261775
:101C4C003707480730F4621B730B840B20293129AA
:101C5C004A2BA69517940794202531254A2758F727
:101C6C00660F771F881F20F026173707480730F4B8
:101C7C00620B730B840B200D311D411DA09581F758
:0E1C8C00B901842F9158880F96958795089579
:101C9A001F920F9200903F000F92112400903B0078
:101CAA000F922F933F934F935F936F937F938F93EB
:101CBA009F93AF93BF93EF93FF93CF93DF93CDB7E8
:101CCA00DEB784E190E0FC018381882F90E0887080
:101CDA009927892B31F08091974090919840FC0187
:101CEA00099584E190E02FEFFC0123830000DF9146
:101CFA00CF91FF91EF91BF91AF919F918F917F917A
:101D0A006F915F914F913F912F910F9000923B00FD
:0C1D1A000F9000923F000F901F90189552
:101D2600CF93DF931F92CDB7DEB780E298E021EA2A
:101D360031E0FC012087318780E298E020EDFC014C
:101D4600258380E298E020ECFC01268380E298E07F
:101D560023E0FC01278380E298E0FC01138680E201
:101D660098E0FC01148680E298E0FC01168680E289
:101D760098E0FC011586198289818093BE4089818D
:101D86008093BD4089818093BF4089818093C14003
:101D960089818093C04089818093C24000000F9062
:061DA600DF91CF910895CA
:101DAC00CF93DF93CDB7DEB780E096E0FC011182D4
:101DBC0080E096E023E0FC01228380E096E0FC01C9
:101DCC00138280E096E0FC01148280E096E0FC0136
:101DDC00168680E096E0FC01138680E096E0FC011C
:101DEC00148680E096E024E0FC01208780E096E0F9
:101DFC0020E4FC01218780E096E0FC01158280E064
:101E0C0096E0FC01148A158A80E096E0FC01128AA7
:101E1C00138A80E096E021E0FC01208380E0DF91D2
:041E2C00CF910895B5
:101E30001F920F9200903F000F92112400903B00E0
:101E40000F922F933F934F935F936F937F938F9353
:101E50009F93AF93BF93EF93FF93CF93DF93CDB750
:101E6000DEB780916F4090917040892B31F0809166
:101E70006F4090917040FC01099580E096E022E06F
:101E8000FC0125870000DF91CF91FF91EF91BF9179
:101E9000AF919F918F917F916F915F914F913F9102
:101EA0002F910F9000923B000F9000923F000F90F7
:041EB0001F901895D2
:101EB4001F920F9200903F000F92112400903B005C
:101EC4000F922F933F934F935F936F937F938F93CF
:101ED4009F93AF93BF93EF93FF93CF93DF93CDB7CC
:101EE400DEB780919B4090919C40892B31F080918A
:101EF4009B4090919C40FC01099580E49AE020E18C
:101F0400FC0123870000DF91CF91FF91EF91BF91F6
:101F1400AF919F918F917F916F915F914F913F917D
:101F24002F910F9000923B000F9000923F000F9072
:041F34001F9018954D
:101F38001F920F9200903F000F92112400903B00D7
:101F48000F922F933F934F935F936F937F938F934A
:101F58009F93AF93BF93EF93FF93CF93DF93CDB747
:101F6800DEB780919D4090919E40892B31F0809101
:101F78009D4090919E40FC01099580E49AE020E202
:101F8800FC0123870000DF91CF91FF91EF91BF9172
:101F9800AF919F918F917F916F915F914F913F91F9
:101FA8002F910F9000923B000F9000923F000F90EE
:041FB8001F901895C9
:101FBC001F920F9200903F000F92112400903B0053
:101FCC000F922F933F934F935F936F937F938F93C6
:101FDC009F93AF93BF93EF93FF93CF93DF93CDB7C3
:101FEC00DEB780919F409091A040892B31F0809179
:101FFC009F409091A040FC01099580E49AE020E478
:10200C00FC0123870000DF91CF91FF91EF91BF91ED
:10201C00AF919F918F917F916F915F914F913F9174
:10202C002F910F9000923B000F9000923F000F9069
:04203C001F90189544
:102040001F920F9200903F000F92112400903B00CE
:102050000F922F933F934F935F936F937F938F9341
:102060009F93AF93BF93EF93FF93CF93DF93CDB73E
:10207000DEB78091A3409091A440892B31F08091EC
:10208000A3409091A440FC01099580E09AE020E1F2
:10209000FC0123870000DF91CF91FF91EF91BF9169
:1020A000AF919F918F917F916F915F914F913F91F0
:1020B0002F910F9000923B000F9000923F000F90E5
:0420C0001F901895C0
:1020C4001F920F9200903F000F92112400903B004A
:1020D4000F922F933F934F935F936F937F938F93BD
:1020E4009F93AF93BF93EF93FF93CF93DF93CDB7BA
:1020F400DEB78091A5409091A640892B31F0809164
:10210400A5409091A640FC01099580E09AE020E268
:10211400FC0123870000DF91CF91FF91EF91BF91E4
:10212400AF919F918F917F916F915F914F913F916B
:102134002F910F9000923B000F9000923F000F9060
:042144001F9018953B
:102148001F920F9200903F000F92112400903B00C5
:102158000F922F933F934F935F936F937F938F9338
:102168009F93AF93BF93EF93FF93CF93DF93CDB735
:10217800DEB78091A7409091A840892B31F08091DB
:10218800A7409091A840FC01099580E09AE020E4DE
:10219800FC0123870000DF91CF91FF91EF91BF9160
:1021A800AF919F918F917F916F915F914F913F91E7
:1021B8002F910F9000923B000F9000923F000F90DC
:0421C8001F901895B7
:1021CC001F920F9200903F000F92112400903B0041
:1021DC000F922F933F934F935F936F937F938F93B4
:1021EC009F93AF93BF93EF93FF93CF93DF93CDB7B1
:1021FC00DEB78091A9409091AA40892B31F0809153
:10220C00A9409091AA40FC01099580E09AE021E058
:10221C00FC0123870000DF91CF91FF91EF91BF91DB
:10222C00AF919F918F917F916F915F914F913F9162
:10223C002F910F9000923B000F9000923F000F9057
:04224C001F90189532
:102250001F920F9200903F000F92112400903B00BC
:102260000F922F933F934F935F936F937F938F932F
:102270009F93AF93BF93EF93FF93CF93DF93CDB72C
:10228000DEB780E090E00E94041981E08093004076
:1022900081E08093034080EC96E021E0FC01238301
:1022A0000000DF91CF91FF91EF91BF91AF919F918E
:1022B0008F917F916F915F914F913F912F910F90EF
:1022C00000923B000F9000923F000F901F901895D6
:1022D0000F931F93CF93DF93CDB7DEB780916B4001
:1022E00090916C40A0916D40B0916E4000E010E084
:1022F0009801AC01BD0181E00E94D60B80916B403A
:1023000090916C40A0916D40B0916E4000E010E063
:1023100020EF32E4AC01BD0182E00E94D60B809137
:102320006B4090916C40A0916D40B0916E4000E088
:1023300010E020E733E4AC01BD0183E00E94D60B3E
:0C2340000000DF91CF911F910F910895D4
:10234C00CF93DF931F92CDB7DEB780E298E0FC010C
:10235C00818189838981882F90E086749927892BC4
:10236C0039F18981882F90E082709927892B31F07F
:10237C008091B3409091B440FC0109958981882FDC
:10238C0090E084709927892B31F08091AF40909127
:10239C00B040FC0109958981882F90E080749927C1
:1023AC00892B31F08091B1409091B240FC0109959C
:0A23BC0000000F90DF91CF9108950B
:1023C6001F920F9200903F000F92112400903B0045
:1023D6000F922F933F934F935F936F937F938F93B8
:1023E6009F93AF93BF93EF93FF93CF93DF93CDB7B5
:1023F600DEB78091AB409091AC40892B31F0809153
:10240600AB409091AC40FC0109950000DF91CF9163
:10241600FF91EF91BF91AF919F918F917F916F91B6
:102426005F914F913F912F910F9000923B000F903B
:0A24360000923F000F901F901895D0
:102440001F920F9200903F000F92112400903B00CA
:102450000F922F933F934F935F936F937F938F933D
:102460009F93AF93BF93EF93FF93CF93DF93CDB73A
:10247000DEB78091AD409091AE40892B31F08091D4
:10248000AD409091AE40FC0109950000DF91CF91E5
:10249000FF91EF91BF91AF919F918F917F916F913C
:1024A0005F914F913F912F910F9000923B000F90C1
:0A24B00000923F000F901F90189556
:1024BA001F920F9200903F000F92112400903B0050
:1024CA000F922F938F939F93EF93FF93CF93DF9363
:1024DA00CDB7DEB780910040813059F410920040A8
:1024EA0080E29AE0FC01808191818093064090937A
:1024FA00074081E08093014081E08093044088ECAA
:10250A0096E021E0FC0123830000DF91CF91FF9147
:10251A00EF919F918F912F910F9000923B000F9016
:0A252A0000923F000F901F901895DB
:10253400E89409C097FB3EF4909580957095619559
:102544007F4F8F4F9F4F9923A9F0F92F96E9BB270F
:102554009395F695879577956795B795F111F8CF8B
:10256400FAF4BB0F11F460FF1BC06F5F7F4F8F4FF6
:102574009F4F16C0882311F096E911C0772321F0EC
:102584009EE8872F762F05C0662371F096E8862F84
:1025940070E060E02AF09A95660F771F881FDAF7DB
:0A25A400880F9695879597F9089522
:1025AE00CF93DF93CDB7DEB72897CDBFDEBF6D8358
:1025BE007E838F83988719821A821B821C8227E75B
:1025CE003CEC4BE251E46D817E818F8198850E94B7
:1025DE006D1CDC01CB0120E030E040E05FE3BC018C
:1025EE00CD010E94321CDC01CB01BC01CD010E9449
:1025FE000215DC01CB0189839A83AB83BC8389816D
:10260E009A81AB81BC81BC01CD012896CDBFDEBFC6
:06261E00DF91CF91089549
:10262400CF93DF931F92CDB7DEB789838981882347
:10263400B1F082E08093C34080E090E0A0E7B2E490
:1026440080936B4090936C40A0936D40B0936E4028
:1026540080E490E08093B9409093BA4015C081E043
:102664008093C34080E090E0A8E4B2E480936B40A0
:1026740090936C40A0936D40B0936E4080E590E0E1
:102684008093B9409093BA400E94F00700000F90E5
:06269400DF91CF910895D3
:10269A0008C029F416F00C94541C0C94461C0C9493
:1026AA00711C0E945B17A8F39638A0F707F80F92DF
:1026BA00E8942BE33AEA48EB5FE70E94E1080F92BD
:1026CA000F920F924DB75EB70F920E949B14E8EEDD
:1026DA00F0E00E9431164F915F91EF91FF91E595DD
:1026EA00EE1FFF1F49F0FE57E0684427EE0F441F14
:1026FA00FA95E1F74195550B0E9488130F9007FE52
:06270A000C94291C089547
:1027100004C00C94541C0C94E51A0E945B17D8F367
:102720009923C9F3940F511DA3F39150504094F095
:1027300059F0882332F0660F771F881F9150504060
:10274000C1F79E3F51052CF7880F911D96958795EF
:1027500097F908955F3FACF0983E9CF0BB278695B3
:1027600077956795B79508F4B1609395C1F7BB0F5E
:1027700058F711F460FFE8CF6F5F7F4F8F4F9F4F87
:06278000E3CF0C94471C9E
:10278600CF93DF93CDB7DEB72797CDBFDEBF8C8360
:102796009D836E837F838C819D8189839A8319C0F3
:1027A60080E499E029813A81F9012081FC012483A2
:1027B600000080E499E0FC0183818823D4F780E45B
:1027C60099E0FC0184818B8389819A8101968983B2
:1027D6009A838E819F819C01215031092E833F83EC
:1027E600892BF1F600002796CDBFDEBFDF91CF9192
:0227F600089544
:1027F800CF93DF93CDB7DEB72697CDBFDEBF8B83F0
:102808009C836D837E8319821A8219821A8218C06A
:1028180000000E94F31A982F81E089278823C9F7BE
:102828008B819C819C012F5F3F4F2B833C83FC0154
:1028380080810E94671489819A81019689839A838D
:1028480029813A818D819E818217930708F70000BC
:0C2858002696CDBFDEBFDF91CF91089522
:10286400CF93DF93CDB7DEB760E080E690E00E94BF
:10287400C51860E081E690E00E94C51860E082E639
:1028840090E00E94C51860E083E690E00E94C518BD
:1028940064E288E690E00E94C51860E089E690E072
:1028A4000E94C51860E088E790E00E94C51860E0C7
:1028B40080E790E00E94C51860E08CE790E00E94F9
:0A28C400C5180000DF91CF910895C0
:1028CE00CF93DF9300D0CDB7DEB78A838091C0401F
:1028DE008F5F8F70898300008091C2408031E1F359
:1028EE008981882F90E08D5C9F4B2A81FC0120838B
:1028FE0089818093C0400FB6F8940F928091C240A8
:10290E008F5F8093C2400F900FBE80E298E020E26E
:10291E0038E0F90125812062FC01258300000F902B
:08292E000F90DF91CF91089595
:10293600FA01DC01AA0FBB1F9B01AC01BF5728F4AB
:10294600222733274427507820C0B75190F4AB2F65
:102956000024469537952795011CA395D2F30020B0
:1029660071F0220F331F441FB395DAF30ED00C9487
:10297600311C61307105A0E88A07B94630F49B0125
:10298600AC016627772788279078309621F0208338
:0829960031834283538308954D
:10299E00CF93DF931F92CDB7DEB78091C2408823CD
:1029AE00C1F08091C1408F5F8F7089838981809340
:1029BE00C14080E298E02981222F30E02D5C3F4B10
:1029CE00F9012081FC0122838091C24081508093C5
:1029DE00C2408091C240882349F480E298E020E210
:1029EE0038E0F90125812F7DFC01258300000F9031
:0629FE00DF91CF91089566
:102A04000E945B1788F09F5798F0B92F9927B75108
:102A1400B0F0E1F0660F771F881F991F1AF0BA957E
:102A2400C9F714C0B13091F00E94461CB1E008957A
:102A34000C94461C672F782F8827B85F39F0B93F6C
:102A4400CCF3869577956795B395D9F73EF4909531
:0E2A54008095709561957F4F8F4F9F4F08952D
:102A62001F920F9200903F000F92112400903B00A2
:102A72000F922F933F938F939F93EF93FF93CF9355
:102A8200DF93CDB7DEB780E298E020E238E0F901CB
:102A920024812064FC0124830000DF91CF91FF9107
:102AA200EF919F918F913F912F910F9000923B0058
:0C2AB2000F9000923F000F901F901895AD
:102ABE00CF93DF93CDB7DEB72797CDBFDEBF8E8323
:102ACE009F8325E0CE010196FC01322F11923A959B
:102ADE00E9F78E819F81892F992789838E818A8339
:102AEE008091084060E00E947E1662E0CE01019661
:102AFE000E9497188091084061E00E947E160000A7
:0C2B0E002796CDBFDEBFDF91CF91089568
:102B1A00CF93DF9300D0CDB7DEB70E94A61180E233
:102B2A0098E0FC01808189838091BD408F5F8F701E
:102B3A008A838091BE409A81981781F08A81809316
:102B4A00BD408A81882F90E08D5D9F4B2981FC01D1
:102B5A0020838091BF408F5F8093BF4000000F9019
:082B6A000F90DF91CF91089557
:102B7200CF93DF93CDB7DEB72697CDBFDEBF6B8392
:102B82007C838D839E8319821A8221E63BE046E391
:102B920051E46B817C818D819E810E946D1CDC01E0
:102BA200CB01BC01CD010E940215DC01CB0189835E
:102BB2009A8389819A812696CDBFDEBFDF91CF911C
:022BC200089574
:102BC4001F920F9200903F000F92112400903B003F
:102BD4000F922F938F939F93EF93FF93CF93DF9352
:102BE400CDB7DEB780E096E021E0FC012587000048
:102BF400DF91CF91FF91EF919F918F912F910F9042
:102C040000923B000F9000923F000F901F90189588
:102C1400CF93DF931F92CDB7DEB700008091BF4002
:102C24008823E1F38091BE408F5F8F70898389810F
:102C34008093BE400FB6F8940F928091BF408150AC
:102C44008093BF400F900FBE8981882F90E08D5DE7
:0E2C54009F4BFC0180810F90DF91CF9108957E
:102C6200DF93CF931F930F93FF92EF92DF927B013B
:102C72008C01689406C0DA2EEF010E94CE08FE0194
:102C8200E894A5912591359145915591A6F3EF01CF
:102C92000E943809FE019701A801DA9469F7DF90D2
:0E2CA200EF90FF900F911F91CF91DF91089559
:102CB000CF93DF93CDB7DEB72897CDBFDEBF8B8331
:102CC0009C836D837E834F83588719821A822B8160
:102CD0003C818D819E81282B392B8F819885822B79
:102CE000932B89839A8389819A810E945F150000C2
:0C2CF0002896CDBFDEBFDF91CF91089584
:102CFC00CF93DF9300D0CDB7DEB789836A83898108
:102D0C00882F90E08230910551F08330910559F075
:102D1C00019709F00CC08A810E94E91708C08A81CA
:102D2C000E94021804C08A810E941B180000000037
:0A2D3C000F900F90DF91CF910895E2
:102D4600CF93DF9300D0CDB7DEB789836A838981BD
:102D5600882F90E08230910551F08330910559F02B
:102D6600019709F00CC08A810E94341808C08A8134
:102D76000E944D1804C08A810E9466180000000057
:0A2D86000F900F90DF91CF91089598
:102D9000990F0008550FAA0BE0E8FEEF161617066C
:102DA000E807F907C0F012161306E407F50798F0D4
:102DB000621B730B840B950B39F40A2661F0232BED
:102DC000242B252B21F408950A2609F4A140A69569
:082DD0008FEF811D811D0895A4
:102DD800CF93DF9300D01F92CDB7DEB78B838B8163
:102DE8000E94751700000E94F018982F81E089272B
:102DF8008823C9F70E940D1B89839A8380E096E097
:102E080021E0FC01258789819A812396CDBFDEBF09
:062E1800DF91CF91089547
:102E1E00CF93DF93CDB7DEB72697CDBFDEBF8B83C3
:102E2E009C836D837E838B819C8189839A83298188
:102E3E003A818D819E81822B932B89839A838981FE
:102E4E009A810E945F1500002696CDBFDEBFDF91EE
:042E5E00CF91089573
:102E6200CF93DF9300D0CDB7DEB71A8281E089839A
:102E720010C01A8208C089810E94D71A0E94CD17F9
:102E82008A818F5F8A838A818531A8F389818F5FE6
:102E920089838981843068F300000F900F90DF915D
:042EA200CF9108952F
:102EA60057FD9058440F551F59F05F3F71F04795F5
:102EB600880F97FB991F61F09F3F79F087950895DA
:102EC600121613061406551FF2CF4695F1DF08C0F9
:102ED600161617061806991FF1CF86957105610516
:042EE60008940895AF
:102EEA00CF93DF931F92CDB7DEB7898380E096E058
:102EFA0020E036E0F90120812F7DFC01208380E06B
:102F0A0096E02981FC01208780E096E021E0FC011F
:0C2F1A00228700000F90DF91CF910895F6
:102F2600CF93DF93CDB7DEB70E9432140E94F9002B
:102F36000E94D60E0E94B1170E947D0B0E94240BA0
:102F46000E94930E0E94DB180E94A61A0E94941AF1
:0C2F56000E947F180000DF91CF910895C9
:102F6200CF93DF93CDB7DEB780E499E022E0FC0196
:102F7200218380E499E021E2FC01208380E499E04E
:102F8200FC0112821092BB4080E499E0FC011382A2
:082F92000000DF91CF910895CA
:102F9A00CF93DF9300D0CDB7DEB78FE189838091DD
:102FAA00094060E00E94A31661E0CE0101960E94EA
:102FBA0097188091094061E00E94A31600000F90C3
:082FCA000F90DF91CF910895F3
:102FD200CF93DF931F92CDB7DEB789838981882390
:102FE20031F085E694E020E8FC01208305C086E606
:102FF20094E020E8FC01208300000F90DF91CF9144
:0230020008952F
:10300400CF93DF931F92CDB7DEB78983898188235D
:1030140031F085EA94E028E0FC01208305C086EACB
:1030240094E028E0FC01208300000F90DF91CF9111
:023034000895FD
:10303600CF93DF931F92CDB7DEB78983898188232B
:1030460031F085E894E022E0FC01208305C086E8A3
:1030560094E022E0FC01208300000F90DF91CF91E5
:023066000895CB
:10306800CF93DF931F92CDB7DEB7898389818823F9
:1030780031F085E094E020E8FC01208305C086E07B
:1030880094E020E8FC01208300000F90DF91CF91AD
:02309800089599
:10309A00CF93DF931F92CDB7DEB7898389818823C7
:1030AA0031F085E894E024E0FC01208305C086E83D
:1030BA0094E024E0FC01208300000F90DF91CF917F
:0230CA00089567
:1030CC00CF93DF931F92CDB7DEB789838981882395
:1030DC0031F085E294E020E1FC01208305C086E21A
:1030EC0094E020E1FC01208300000F90DF91CF9150
:0230FC00089535
:1030FE00CF93DF93CDB7DEB761E080E191E00E9420
:10310E00AF1880E191E021E0FC01228380E191E0A3
:10311E0020E2FC012383789480E0DF91CF91089523
:10312E00CF93DF9300D01F92CDB7DEB789839A83FA
:10313E006B838B81282F30E089819A81B9010E949F
:10314E00C31380E02396CDBFDEBFDF91CF910895EC
:10315E00CF93DF9300D01F92CDB7DEB789839A83CA
:10316E006B8389819A814B8168ED0E945A1C000005
:0C317E002396CDBFDEBFDF91CF910895F6
:10318A00CF93DF9300D01F92CDB7DEB789839A839E
:10319A006B8389819A814B8168ED0E945A1C0000D9
:0C31AA002396CDBFDEBFDF91CF910895CA
:1031B600CF93DF93CDB7DEB780EA90E0FC011482AF
:1031C60080EA90E025E8FC01208380EA90E0FC019B
:0A31D600128280E0DF91CF9108958E
:1031E000CF93DF93CDB7DEB780E096E0FC01858515
:1031F000882F90E08170992721E0892B09F420E045
:08320000822FDF91CF910895A8
:10320800CF93DF9300D0CDB7DEB789839A8380E070
:103218009AE029813A81FC0120A331A300000F9094
:083228000F90DF91CF91089592
:10323000CF93DF9300D0CDB7DEB789839A8389819E
:103240009A81809371409093724000000F900F908C
:06325000DF91CF9108950B
:10325600CF93DF9300D0CDB7DEB789839A83898178
:103266009A81809373409093744000000F900F9062
:06327600DF91CF910895E5
:10327C00CF93DF9300D0CDB7DEB789839A83898152
:10328C009A81809375409093764000000F900F9038
:06329C00DF91CF910895BF
:1032A200CF93DF9300D0CDB7DEB789839A8389812C
:1032B2009A81809377409093784000000F900F900E
:0632C200DF91CF91089599
:1032C800CF93DF9300D0CDB7DEB789839A83898106
:1032D8009A818093794090937A4000000F900F90E4
:0632E800DF91CF91089573
:1032EE00CF93DF9300D0CDB7DEB789839A838981E0
:1032FE009A8180937B4090937C4000000F900F90BA
:06330E00DF91CF9108954C
:10331400CF93DF9300D0CDB7DEB789839A838981B9
:103324009A8180937D4090937E4000000F900F908F
:06333400DF91CF91089526
:10333A00CF93DF9300D0CDB7DEB789839A83898193
:10334A009A8180937F409093804000000F900F9065
:06335A00DF91CF91089500
:10336000CF93DF9300D0CDB7DEB789839A8389816D
:103370009A81809381409093824000000F900F903B
:06338000DF91CF910895DA
:10338600CF93DF9300D0CDB7DEB789839A83898147
:103396009A81809383409093844000000F900F9011
:0633A600DF91CF910895B4
:1033AC00CF93DF9300D0CDB7DEB789839A83898121
:1033BC009A81809385409093864000000F900F90E7
:0633CC00DF91CF9108958E
:1033D200CF93DF9300D0CDB7DEB789839A838981FB
:1033E2009A81809387409093884000000F900F90BD
:0633F200DF91CF91089568
:1033F800CF93DF9300D0CDB7DEB789839A838981D5
:103408009A818093894090938A4000000F900F9092
:06341800DF91CF91089541
:10341E00CF93DF9300D0CDB7DEB789839A838981AE
:10342E009A8180938B4090938C4000000F900F9068
:06343E00DF91CF9108951B
:10344400CF93DF9300D0CDB7DEB789839A83898188
:103454009A8180938D4090938E4000000F900F903E
:06346400DF91CF910895F5
:10346A00CF93DF9300D0CDB7DEB789839A83898162
:10347A009A8180938F409093904000000F900F9014
:06348A00DF91CF910895CF
:10349000CF93DF9300D0CDB7DEB789839A8389813C
:1034A0009A81809391409093924000000F900F90EA
:0634B000DF91CF910895A9
:1034B600CF93DF9300D0CDB7DEB789839A83898116
:1034C6009A81809393409093944000000F900F90C0
:0634D600DF91CF91089583
:1034DC00CF93DF9300D0CDB7DEB789839A838981F0
:1034EC009A81809395409093964000000F900F9096
:0634FC00DF91CF9108955D
:10350200CF93DF9300D0CDB7DEB789839A838981C9
:103512009A81809397409093984000000F900F906B
:06352200DF91CF91089536
:10352800CF93DF93CDB7DEB788EC96E021E0FC01BE
:10353800228388EC96E021E0FC01208380E0DF9183
:04354800CF91089582
:10354C00CF93DF93CDB7DEB780EC96E021E0FC01A2
:10355C00228380EC96E021E0FC01208380E0DF9167
:04356C00CF9108955E
:10357000092E0394000C11F4882352F0BB0F40F481
:10358000BF2B11F460FF04C06F5F7F4F8F4F9F4FC1
:0235900008959C
:10359200CF93DF931F92CDB7DEB789838981809362
:0C35A200084000000F90DF91CF910895C9
:1035AE00CF93DF931F92CDB7DEB789838981809346
:0C35BE00094000000F90DF91CF910895AC
:1035CA009F3F31F0915020F4879577956795B7958D
:0C35DA00880F911D9695879597F908952C
:1035E600CF93DF93CDB7DEB79091C24081E09031A3
:0A35F60009F480E0DF91CF91089501
:10360000CF93DF93CDB7DEB79091BF4081E0992390
:0A36100009F480E0DF91CF910895E6
:10361A00CF93DF93CDB7DEB780E096E0FC018089D7
:08362A009189DF91CF91089511
:10363200CF93DF93CDB7DEB780E091E00E945F15B4
:083642000000DF91CF91089513
:10364A00CF93DF93CDB7DEB780E090E00E945F159D
:08365A000000DF91CF910895FB
:10366200CF93DF93CDB7DEB70000DF91CF910895FE
:10367200CF93DF93CDB7DEB70000DF91CF910895EE
:10368200CF93DF93CDB7DEB70000DF91CF910895DE
:10369200CF93DF93CDB7DEB70000DF91CF910895CE
:1036A200CF93DF93CDB7DEB70000DF91CF910895BE
:1036B200CF93DF93CDB7DEB70000DF91CF910895AE
:1036C200CF93DF93CDB7DEB70000DF91CF9108959E
:1036D200CF93DF93CDB7DEB70000DF91CF9108958E
:1036E200CF93DF93CDB7DEB70000DF91CF9108957E
:1036F200CF93DF93CDB7DEB70000DF91CF9108956E
:10370200CF93DF93CDB7DEB70000DF91CF9108955D
:10371200CF93DF93CDB7DEB70000DF91CF9108954D
:10372200CF93DF93CDB7DEB70000DF91CF9108953D
:10373200CF93DF93CDB7DEB70000DF91CF9108952D
:10374200CF93DF93CDB7DEB70000DF91CF9108951D
:10375200CF93DF93CDB7DEB70000DF91CF9108950D
:10376200CF93DF93CDB7DEB70000DF91CF910895FD
:10377200CF93DF93CDB7DEB70000DF91CF910895ED
:10378200CF93DF93CDB7DEB70000DF91CF910895DD
:10379200CF93DF93CDB7DEB70000DF91CF910895CD
:1037A200CF93DF93CDB7DEB70000DF91CF910895BD
:1037B200CF93DF93CDB7DEB70000DF91CF910895AD
:1037C200CF93DF93CDB7DEB70000DF91CF9108959D
:1037D200CF93DF93CDB7DEB70000DF91CF9108958D
:1037E200CF93DF93CDB7DEB70000DF91CF9108957D
:1037F200CF93DF93CDB7DEB70000DF91CF9108956D
:10380200CF93DF93CDB7DEB70000DF91CF9108955C
:10381200CF93DF93CDB7DEB70000DF91CF9108954C
:10382200CF93DF93CDB7DEB70000DF91CF9108953C
:10383200CF93DF93CDB7DEB70000DF91CF9108952C
:10384200CF93DF93CDB7DEB70000DF91CF9108951C
:103852009B01AC0160E070E080E89FE30C94691C7E
:0E3862005058BB27AA270E9438090C94B81AA8
:0E38700000240A941616170618060906089575
:0E387E0000240A941216130614060506089577
:0E388C00E894BB2766277727CB0197F90895AC
:0E389A0091505040660F771F881FD2F7089597
:0C38A80097F99F6780E870E060E00895E9
:0A38B4001BBEFC0164BF40830895B1
:0A38BE000E94C81608F481E0089586
:0A38C8000E94C81608F48FEF08955F
:0838D2000E945F080C94B81A73
:0838DA000E94CE080C94B81AFC
:0638E2009FEF80EC089549
:0438E8000C9400003C
:0438EC0004050600C9
:0438F000000048424A
:0238F400D11BE6
:0238F600D91BDC
:0238F800E11BD2
:0238FA00E91BC8
:0238FC00F11BBE
:0238FE00F91BB4
:02390000011CA8
:02390200091C9E
:023904008D151F
:02390600CF14DC
:02390800111C90
:02390A00191C86
:02390C00211C7C
:02390E00500067
:0139100001B5
:02000004008278
:090000000000000000C000000037
:00000001FF
