:100000000C94D9000C940E190C9428110C940E1910
:100010000C940E190C940E190C940E190C945D0C82
:100020000C940E190C949D0B0C94DD0B0C941D0C70
:100030000C940E190C940E190C940E190C940E19A4
:100040000C940E190C940E190C940E190C940E1994
:100050000C940E190C940E190C940E190C940E1984
:100060000C9402110C949D0A0C94D40E0C940E194D
:100070000C940E190C940E190C940E190C94DA0CA5
:100080000C94150D0C94BB0F0C940E190C940E19B6
:100090000C940E190C940E190C940E190C940E1944
:1000A0000C940E190C940E190C940E190C940E1934
:1000B0000C940E190C940E190C9457070C940E19ED
:1000C0000C94DD0A0C941D0B0C945D0B0C94FF0D2D
:1000D0000C940E190C940E190C940E190C940E1904
:1000E0000C940E190C940E1907634236B79BD8A7CF
:1000F0001A39685618AEBAAB558C1D3CB7CC57634D
:10010000BD6DEDFD753EF6177231BF000000803FFA
:1001100008000000BE922449123EABAAAA2ABECD16
:10012000CCCC4C3E00000080BEABAAAAAA3E000088
:100130000000BF000000803F000000000008417880
:10014000D3BB4387D1133D190E3CC3BD4282AD2BB7
:100150003E68EC8276BED98FE1A93E4C80EFFFBEAF
:1001600001C4FF7F3F00000000004000403F80408E
:100170003F404E003220404E4072804072407A0034
:10018000322F407A40B68040B640BA00323740BA8B
:1001900040BE8040BE40CE00323B40CE40D4804086
:1001A000D440D600324B40D640E08040E040E100F1
:1001B000324D11241FBECFEFCDBFDFE7DEBFEAE631
:1001C000F1E041E019C0B791A791379127910791CC
:1001D00007FD0EC097918791EF01F92FE82F0BBF14
:1001E00007900D92A217B307D9F7FE011BBE04C0FA
:1001F0001D92A217B307E1F7E23BF40721F70E9433
:0A02000052040C940301F894FFCFA0
:10020A00CF93DF93CDB7DEB70E94D30380E094E0AB
:10021A0027EDFC01208380E294E027E3FC012083A0
:10022A0080E494E021E4FC01208380E694E025E860
:10023A00FC01208380E894E026E0FC01208380EA28
:10024A000E94921880E094E020E8FC01248380E276
:10025A0094E020E3FC01248380E494E020E4FC01A0
:10026A00248380E694E025E8FC01248380E894E076
:10027A0026E0FC01248380EA94E028E0FC01248340
:10028A000E94D718108A0E94D718118A0E94D7187C
:10029A00128A0E94D718138A0E94D718148A0E94B9
:1002AA00D718158A0E94D718168A0E94D718178A53
:1002BA000E94E318108A0E94E318118A0E94E31828
:1002CA00128A0E94E318138A0E94E318148A0E9471
:1002DA00E318158A0E94E318168A0E94E318178AFF
:1002EA000E94E718108A0E94E718118A0E94E718EC
:1002FA00128A0E94E718138A0E94E718148A0E9439
:10030A00E718158A0E94E718168A80E494E028E024
:10031A00FC01278B0E94EF18108A0E949C18218BDF
:10032A000E94EF18128A0E94EF18138A0E949C18E2
:10033A00248B0E949C18258B0E949C18268B0E9455
:10034A00EF18178A0E94D318108A0E94D318118AAC
:10035A000E94D318128A80E894E024E0FC01238BDF
:10036A000E94D318148A0E94D318158A0E94D3189F
:10037A00168A0E94D318178A0E94F318108A0E94BC
:10038A00F318118A0E94F318128A0E94F318138A2A
:10039A000E94F318148A0E94F318158A0E94F3180F
:1003AA00168A0E94F318178A0E94D71813860E9489
:1003BA00D71816860E94D71815860E94D718148651
:1003CA000E94E31813860E94E31816860E94E31817
:1003DA0015860E94E31814860E94E71813860E9465
:1003EA00E71816860E94E71815860E94E7181486F1
:1003FA000E94EF1813860E94EF1816860E94EF18C3
:10040A0015860E94EF1814860E94D31813860E943C
:10041A00D31816860E94D31815860E94D3181486FC
:10042A000E94F31813860E94F31816860E94F31886
:10043A0015860E94F31814860E94F71811860E94E6
:10044A00F71811820E94F71810820E94F718148276
:10045A000E94F718168280EE95E024E0FC012783BB
:10046A000E94F71810860E94F71815820E94F71842
:10047A0012820E94F71813820E94F718128684E3E8
:10048A0097E10E943C148BE397E10E944C1482E4AA
:10049A0097E10E945C1489E497E10E946C1480E55C
:1004AA0097E10E947C1487E597E10E948C148EE5FF
:1004BA0097E10E949C1485E697E10E94AC148CE6B1
:1004CA0097E10E94BC1483E797E10E94CC148AE763
:1004DA0097E10E94DC1481E897E10E94EC1488E815
:1004EA0097E10E94FC148FE897E10E940C1586E9B7
:1004FA0097E10E941C158DE997E10E942C1584EA68
:10050A0097E10E943C158BEA97E10E944C1582EB19
:10051A0097E10E945C1589EB97E10E946C1580ECCB
:10052A0097E10E947C1587EC97E10E948C158EEC6E
:10053A0097E10E949C1585ED97E10E94AC158CED20
:10054A0097E10E94BC1583EE97E10E94CC158AEED2
:0C055A0097E10E94DC15DF91CF9108951D
:10056600CF93DF93CDB7DEB72F97CDBFDEBF19820E
:100576007BC088E090E0FC01828188230CF474C083
:100586001092BC401092BD408981809589838981F3
:100596000E94121080E090E0AAEFB3E48A839B8366
:1005A600AC83BD8320E030E84BEB55E46A817B8168
:1005B6008C819D810E940719DC01CB018E839F836C
:1005C600A887B98720E030E040E85FE30E94BF18C3
:1005D6000E94C91888232CF481E090E08A879B87C3
:1005E60039C020E03FEF4FE757E40E94BF180E9452
:1005F600CE1818163CF520E030E040E251E46A815E
:100606007B818C819D810E9407190E94B5180E94EA
:10061600030FDC01CB018A879B870FC088E592E038
:100626008C879D878C859D850197F1F78C879D87A3
:100636008A859B8501978A879B878A859B85892BD7
:1006460069F712C00E94BF180E94030FDC01CB019C
:100656008A879B878A859B858E879F878E859F85C0
:100666000197F1F78E879F878091BC409091BD409E
:1006760081329E4408F47DCF2F96CDBFDEBFDF9139
:04068600CF91089573
:10068A00CF92DF92EF92FF920F931F93CF93DF9354
:10069A00CDB7DEB72597CDBFDEBF1A821B821C827B
:1006AA001D8219820E94EA1608F065C01092BC40A9
:1006BA001092BD40198257C08981882F90E00E940C
:1006CA00A6168091D2409091D3400E9481180E9430
:1006DA009D0C0E943E180E940319DC01CB018A83FB
:1006EA009B83AC83BD838981882F90E0880F991FF3
:1006FA00880F991F825B9F4BFC0110821182128224
:10070A0013828981082F10E08A819B81AC81BD8187
:10071A00BC01CD010E941B0A0E944E110E940719BA
:10072A000E9412170E944D180E94B5180E94030FCA
:10073A00DC01CB010E9481180E949D0C0E944E117F
:10074A000E940319DC01CB019801220F331F220FEB
:10075A00331F265A3F4BF90180839183A283B383C7
:10076A0089818F5F89838981833008F4A5CF1092AC
:10077A00D2401092D3408981882F90E00E94B2160D
:10078A00BC01CD012596CDBFDEBFDF91CF911F9170
:0C079A000F91FF90EF90DF90CF9008953A
:1007A600CF93DF93CDB7DEB72697CDBFDEBF1982D5
:1007B6000EC08981882F90E080579B4F2981222F78
:1007C60030E020570E94301889818F5F89838981A4
:1007D600883078F31A820EC08A81882F90E080557F
:1007E6009B4F2A81222F30E020550E9430188A81A3
:1007F6008F5F8A838A81883078F31B820EC08B8153
:10080600882F90E0805F9B4F2B81222F30E0205F66
:100816000E9430188B818F5F8B838B81883078F3B1
:100826001C820EC08C81882F90E0805D9B4F2C81AE
:10083600222F30E0205D0E9430188C818F5F8C83E0
:100846008C81883078F31D820EC08D81882F90E0D0
:10085600805B9B4F2D81222F30E0205B0E94301859
:100866008D818F5F8D838D81883078F31E820EC0D7
:100876008E81882F90E080599B4F2E81222F30E069
:1008860020590E9430188E818F5F8E838E8188302A
:0E08960078F32696CDBFDEBFDF91CF91089597
:1008A400CF93DF93CDB7DEB72E97CDBFDEBF0E94C7
:1008B400BD1180E090E0AAE7B4E489839A83AB8316
:1008C400BC8320E030E84BEB55E469817A818B816D
:1008D4009C810E940719DC01CB018D839E83AF8329
:1008E400B88720E030E040E85FE30E94BA180E9435
:1008F400C91888232CF481E090E089879A8739C04D
:1009040020E03FEF4FE757E40E94BA180E94CE1848
:1009140018163CF520E030E040E251E469817A8128
:100924008B819C810E9407190E94B5180E94030FB5
:10093400DC01CB0189879A870FC088E592E08B8719
:100944009C878B859C850197F1F78B879C8789858C
:100954009A85019789879A8789859A85892B69F76A
:1009640012C00E94BA180E94030FDC01CB018987D0
:100974009A8789859A858D879E878D859E8501971F
:10098400F1F78D879E870E9445120E94B3020E9450
:080994008A130E94CF09FDCF78
:10099C00CF92DF92EF92FF92CF93DF9300D0CDB73F
:1009AC00DEB719821A8219821A8258C089819A81FB
:1009BC008E589F4BFC0180810E94E0119C01898123
:1009CC009A81880F991F8A599F4BFC012083318390
:1009DC000E94EA1608F440C00E94F5168939984026
:1009EC0008F43AC08091D2409091D3400196809304
:1009FC00D2409093D34089819A810E94A6160E947E
:100A0C00F5160E9481180E949D0CDC01CB0123EA93
:100A1C0036E043E55AE3BC01CD010E940719DC0125
:100A2C00CB0120E030E040E050E4BC01CD010E945D
:100A3C0006080E943E180E944D18DC01CB0129814A
:100A4C003A81220F331F220F331F225B3F4BF901D8
:100A5C0080839183A283B3830E947B1889819A81BE
:100A6C00039708F4A3CF0F900F90DF91CF91FF90D5
:080A7C00EF90DF90CF90089588
:100A8400CF93DF93CDB7DEB783E0809306408CEF3E
:100A940080931E4080916640909167408093074008
:100AA40090930840809168409091694080930940F8
:100AB40090930A4080916A4090916B4080930B40E0
:100AC40090930C4080915A4090915B40A0915C407F
:100AD400B0915D408093114090931240A0931340D5
:100AE400B093144080915E4090915F40A09160402B
:100AF400B09161408093154090931640A0931740A5
:100B0400B09318408091624090916340A0916440FA
:100B1400B09165408093194090931A40A0931B4074
:100B2400B0931C408091E040813021F08091E040FE
:100B3400813021F482E380931D4007C08091E0401E
:100B4400823019F48CE380931D4068E170E086E004
:0C0B540090E40E946610DF91CF9108959C
:100B60000E945A1858F00E94531840F029F45F3F31
:100B700029F00C94871851110C9462180C940B19DD
:100B80000E94021268F39923B1F3552391F3951B48
:100B9000550BBB27AA2762177307840738F09F5F9E
:100BA0005F4F220F331F441FAA1FA9F335D00E2E0B
:100BB0003AF0E0E832D091505040E695001CCAF778
:100BC0002BD0FE2F29D0660F771F881FBB1F26173B
:100BD00037074807AB07B0E809F0BB0B802DBF0112
:100BE000FF2793585F4F3AF09E3F510578F00C94E1
:100BF00087180C9462185F3FE4F3983ED4F386950F
:100C000077956795B795F7959F5FC9F7880F911D01
:100C10009695879597F90895E1E0660F771F881FED
:100C2000BB1F621773078407BA0720F0621B730BA0
:0C0C3000840BBA0BEE1F88F7E0950895C6
:100C3C000F931F93CF93DF931F92CDB7DEB78983AA
:100C4C000E94751809F423C0833091052CF4009789
:100C5C0059F00197B1F04DC08330910509F41DC0D6
:100C6C00049709F420C045C00E942C160E94B007BE
:100C7C000E940C160E94B0070E941C160E94B0071E
:100C8C003AC00E94451883E00E94B00734C00E940D
:100C9C00451882E00E94B0072EC00E94451881E0E2
:100CAC000E94B00728C08091764090917740A09127
:100CBC007840B091794000E010E020E733E4AC01DB
:100CCC00BD0181E00E94B0070E940C160E94B00783
:100CDC008091764090917740A0917840B091794086
:100CEC0000E010E09801AC01BD0183E00E94B00768
:100CFC0002C081E001C080E00F90DF91CF911F9185
:040D0C000F910895A6
:100D10000E94531838F00E945A1820F0952311F0C1
:100D20000C9487180C940B1911240C9462180E94CF
:100D3000021270F3959FC1F3950F50E0551F629F0B
:100D4000F001729FBB27F00DB11D639FAA27F00D24
:100D5000B11DAA1F649F6627B00DA11D661F829F4B
:100D60002227B00DA11D621F739FB00DA11D621F30
:100D7000839FA00D611D221F749F3327A00D611D4D
:100D8000231F849F600D211D822F762F6A2F11242F
:100D90009F5750409AF0F1F088234AF0EE0FFF1F62
:100DA000BB1F661F771F881F91505040A9F79E3FB9
:100DB000510580F00C9487180C9462185F3FE4F39F
:100DC000983ED4F3869577956795B795F795E7950F
:100DD0009F5FC1F7FE2B880F911D9695879597F918
:020DE000089574
:100DE2000E94531838F00E945A1820F039F49F3F9D
:100DF20019F426F40C940B190EF4E095E7FB0C940D
:100E02008718E92F0E94021258F3BA176207730774
:100E12008407950720F079F4A6F50C9461180EF476
:100E2200E0950B2EBA2FA02D0B01B90190010C01F8
:100E3200CA01A0011124FF27591B99F0593F50F410
:100E4200503E68F11A16F040A22F232F342F442768
:100E5200585FF3CF469537952795A795F040539560
:100E6200C9F77EF41F16BA0B620B730B840BBAF030
:100E72009150A1F0FF0FBB1F661F771F881FC2F79B
:100E82000EC0BA0F621F731F841F48F487957795AF
:100E92006795B795F7959E3F08F0B0CF9395880F69
:0C0EA20008F09927EE0F979587950895AA
:100EAE001F920F9200903F000F920E94FF180F9218
:100EBE002F933F934F935F936F937F938F939F9354
:100ECE00AF93BF93EF93FF93CF93DF93CDB7DEB77F
:100EDE008091C4409091C540892B31F08091C440DF
:100EEE009091C540FC01099581E08093DF4080918F
:100EFE00BC409091BD4001968093BC409093BD4004
:100F0E000E9409170196A11DB11D80936E4090930A
:100F1E006F40A0937040B093714080E49AE021E05E
:100F2E00FC012387DF91CF91FF91EF91BF91AF919C
:100F3E009F918F917F916F915F914F913F912F91E3
:100F4E000F9000923B000F9000923F000F901F9069
:020F5E001895E4
:100F60000F931F93CF93DF93CDB7DEB72F97CDBFEE
:100F7000DEBF8F83488759876A877B870C871D87E9
:100F80002E873F870E94AB181D821E828885998517
:100F9000AA85BB85BC01CD010E948E10DC01CB016E
:100FA00089839A83AB83BC838C859D85AE85BF8501
:100FB000BC01CD010E9474118D839E838F810E949C
:100FC0008C160E94C91689819A81AB81BC81AC01C3
:100FD000BD0180E090E40E9488098D819E81BC0162
:100FE00080E090EC0E94C1120E94D41640E050E0D4
:100FF00060E070E080E090E00E9424122F96CDBF68
:0C100000DEBFDF91CF911F910F9108958A
:10100C00FA01EE0FFF1F309621053105A1F1611594
:10101C00710561F48038BFE39B0749F168949038FF
:10102C00810561F08038BFEF9B0741F099234AF5A9
:10103C00FF3FE1053105210519F1E8940894E79586
:10104C00D901AA2329F4AB2FBE2FF85FD0F310C01F
:10105C00FF5F70F4A695E0F7F73950F019F0FF3AFE
:10106C0038F49F779F930DD00F9007FC90580895FC
:10107C0046F00C940B1960E070E080E89FE3089553
:10108C004FE79F775F934F933F932F930E945E0898
:10109C002F913F914F915F910E9407190C94930DE2
:1010AC0016F00C9457160C940B1968940C94871822
:1010BC000E940A12A8F39923C1F3AEF3DF93CF93E6
:1010CC001F930F93FF92C92FDD2788232AF02197B6
:1010DC00660F771F881FDAF720E030E040E85FEBFF
:1010EC009FE3883920F0803E38F021968F770E945C
:1010FC004D18E0E1F1E004C00E944D18EDE3F1E081
:10110C000E94B5108B01BE01EC01FB2E6F577109CB
:10111C007595771F880B990B0E949F0C28E132E77D
:10112C0041E35FE30E949706AF2D9801AE01FF905B
:10113C000F911F91CF91DF910E9402070C942B14F9
:10114C00CF93DF93CDB7DEB70E94EB1810A611A694
:10115C000E94EB1812A613A680E49AE02CEE35E060
:10116C00FC0124A735A780E40E9437180E94EB18D5
:10117C0011820E94EB1812820E94EB1813820E94BB
:10118C00EB1814820E94EB1815820E94EB18168241
:10119C000E94EB1817820E94EB18168680E49AE0E6
:1011AC0020E6FC01218780E49AE021E0FC01228703
:1011BC000E94EB18138680E49AE02CEE35E0FC01DB
:1011CC0026A337A30E94EB18178680E49AE027E049
:0C11DC00FC01208380E0DF91CF9108959A
:1011E800CF93DF93CDB7DEB70E946F1820A731A742
:1011F8000E946F1822A733A70E946F1824A735A74B
:1012080080E00E9437180E94DF1811820E94DF18C0
:1012180012820E94DF1813820E94DF1814820E9433
:10122800DF1815820E94DF1816820E94DF181782C5
:101238000E94DF18168680E09AE020E6FC012187EC
:1012480080E09AE021E0FC0122870E94DF181386E3
:1012580080E09AE02EEF3FEFFC0126A337A30E941F
:10126800DF18178680E09AE027E0FC01208380E001
:06127800DF91CF91089503
:10127E00CF93DF931F92CDB7DEB780E298E021EADD
:10128E0031E0FC012087318780E298E020EDFC01FF
:10129E00258380E298E020ECFC01268380E298E032
:1012AE0023E0FC01278380E298E021E0FC01238704
:1012BE0080E298E0FC01148680E298E0FC0116863C
:1012CE0080E298E0FC011586198289818093D940CD
:1012DE0089818093D84089818093DA408981809377
:1012EE00DC4089818093DB4089818093DD408FE3F0
:1012FE0090E480930240909303400F90DF91CF9142
:02130E00089540
:10131000CF93DF93CDB7DEB72A97CDBFDEBF8D83E6
:101320009E834F83588769877A878D819E818983C1
:101330009A838D819E818B839C838F819885A985DB
:10134000BA858827907CBF70072E7EE0B695A7955A
:10135000979587957A95D1F7702D9C0189819A810F
:10136000822B932B89839A838F8198859F732B81FE
:101370003C81822B932B8B839C8380E090E20E94A4
:101380008E0F8B819C810E948E0F89819A810E9491
:0E1390008E0F2A96CDBFDEBFDF91CF9108955C
:10139E00CF93DF9300D0CDB7DEB719821A8280913A
:1013AE00DF40813061F41092DF400E94CE040E9433
:1013BE0042050E946C0E0E945B0A0E9445030E9429
:1013CE000917803C944DA140B10528F00E941B17CF
:1013DE0080E00E941E060E9465168823D1F01982B5
:1013EE001A820BC00E94DC10282F89819A818053AB
:1013FE009F4BFC0120830E947B1889819A81029762
:10140E0088F30E941B171092DF408091D1400E94FA
:0C141E001E060F900F90DF91CF910895F3
:10142A0019F416F40C940B190C9457160E940A120C
:10143A00B8F39923C9F3B6F39F57550B87FF0E9458
:10144A0068180024A0E640EA9001805856959795BE
:10145A0028F4805C660F771F881F20F0261737074D
:10146A00480730F4621B730B840B202931294A2B5D
:10147A00A69517940794202531254A2758F7660F11
:10148A00771F881F20F026173707480730F4620BAA
:10149A00730B840B200D311D411DA09581F7B901F5
:0C14AA00842F9158880F9695879508951F
:1014B600CF93DF9300D000D0CDB7DEB70E94AB1834
:1014C6008091D6409091D7400E9481180E949D0C31
:1014D600DC01CB012BED3AE241EB54E3BC01CD013B
:1014E6000E9407190E94DF1626EA3BE944E45BE303
:1014F600BC01CD010E94CE18181694F489819A81F8
:10150600AB81BC812FE632E143E05CE3BC01CD0157
:101516000E94C918882324F410920D4080E004C06C
:1015260081E080930D4081E02496CDBFDEBFDF9140
:04153600CF910895B4
:10153A001F920F9200903F000F920E94FF180F9285
:10154A002F933F934F935F936F937F938F939F93C1
:10155A00AF93BF93EF93FF93CF93DF93CDB7DEB7EC
:10156A008091BA409091BB40892B31F08091BA406A
:10157A009091BB40FC01099580E096E022E0FC01D5
:10158A002587DF91CF91FF91EF91BF91AF919F9105
:10159A008F917F916F915F914F913F912F910F9012
:1015AA0000923B000F9000923F000F901F901895F9
:1015BA001F920F9200903F000F920E94FF180F9205
:1015CA002F933F934F935F936F937F938F939F9341
:1015DA00AF93BF93EF93FF93CF93DF93CDB7DEB76C
:1015EA008091BE409091BF40892B31F08091BE40DE
:1015FA009091BF40FC01099580E49AE020E1FC014A
:10160A002387DF91CF91FF91EF91BF91AF919F9186
:10161A008F917F916F915F914F913F912F910F9091
:10162A0000923B000F9000923F000F901F90189578
:10163A001F920F9200903F000F920E94FF180F9284
:10164A002F933F934F935F936F937F938F939F93C0
:10165A00AF93BF93EF93FF93CF93DF93CDB7DEB7EB
:10166A008091C0409091C140892B31F08091C04057
:10167A009091C140FC01099580E49AE020E2FC01C6
:10168A002387DF91CF91FF91EF91BF91AF919F9106
:10169A008F917F916F915F914F913F912F910F9011
:1016AA0000923B000F9000923F000F901F901895F8
:1016BA001F920F9200903F000F920E94FF180F9204
:1016CA002F933F934F935F936F937F938F939F9340
:1016DA00AF93BF93EF93FF93CF93DF93CDB7DEB76B
:1016EA008091C2409091C340892B31F08091C240D1
:1016FA009091C340FC01099580E49AE020E4FC0142
:10170A002387DF91CF91FF91EF91BF91AF919F9185
:10171A008F917F916F915F914F913F912F910F9090
:10172A0000923B000F9000923F000F901F90189577
:10173A001F920F9200903F000F920E94FF180F9283
:10174A002F933F934F935F936F937F938F939F93BF
:10175A00AF93BF93EF93FF93CF93DF93CDB7DEB7EA
:10176A008091C6409091C740892B31F08091C64044
:10177A009091C740FC01099580E09AE020E1FC01C4
:10178A002387DF91CF91FF91EF91BF91AF919F9105
:10179A008F917F916F915F914F913F912F910F9010
:1017AA0000923B000F9000923F000F901F901895F7
:1017BA001F920F9200903F000F920E94FF180F9203
:1017CA002F933F934F935F936F937F938F939F933F
:1017DA00AF93BF93EF93FF93CF93DF93CDB7DEB76A
:1017EA008091C8409091C940892B31F08091C840BE
:1017FA009091C940FC01099580E09AE020E2FC0141
:10180A002387DF91CF91FF91EF91BF91AF919F9184
:10181A008F917F916F915F914F913F912F910F908F
:10182A0000923B000F9000923F000F901F90189576
:10183A001F920F9200903F000F920E94FF180F9282
:10184A002F933F934F935F936F937F938F939F93BE
:10185A00AF93BF93EF93FF93CF93DF93CDB7DEB7E9
:10186A008091CA409091CB40892B31F08091CA4037
:10187A009091CB40FC01099580E09AE020E4FC01BC
:10188A002387DF91CF91FF91EF91BF91AF919F9104
:10189A008F917F916F915F914F913F912F910F900F
:1018AA0000923B000F9000923F000F901F901895F6
:1018BA001F920F9200903F000F920E94FF180F9202
:1018CA002F933F934F935F936F937F938F939F933E
:1018DA00AF93BF93EF93FF93CF93DF93CDB7DEB769
:1018EA008091CC409091CD40892B31F08091CC40B1
:1018FA009091CD40FC01099580E09AE021E0FC013D
:10190A002387DF91CF91FF91EF91BF91AF919F9183
:10191A008F917F916F915F914F913F912F910F908E
:10192A0000923B000F9000923F000F901F90189575
:10193A00E89409C097FB3EF490958095709561955F
:10194A007F4F8F4F9F4F9923A9F0F92F96E9BB2715
:10195A009395F695879577956795B795F111F8CF91
:10196A00FAF4BB0F11F460FF1BC06F5F7F4F8F4FFC
:10197A009F4F16C0882311F096E911C0772321F0F2
:10198A009EE8872F762F05C0662371F096E8862F8A
:10199A0070E060E02AF09A95660F771F881FDAF7E1
:0A19AA00880F9695879597F9089528
:1019B4001F920F9200903F000F920E94FF180F9207
:1019C4002F933F934F935F936F937F938F939F9343
:1019D400AF93BF93EF93FF93CF93DF93CDB7DEB76E
:1019E4008091B6409091B740892B31F08091B640F8
:1019F4009091B740FC010995DF91CF91FF91EF9150
:101A0400BF91AF919F918F917F916F915F914F9112
:101A14003F912F910F9000923B000F9000923F0056
:061A24000F901F901895C1
:101A2A001F920F9200903F000F920E94FF180F9290
:101A3A002F933F934F935F936F937F938F939F93CC
:101A4A00AF93BF93EF93FF93CF93DF93CDB7DEB7F7
:101A5A008091B8409091B940892B31F08091B8407B
:101A6A009091B940FC010995DF91CF91FF91EF91D7
:101A7A00BF91AF919F918F917F916F915F914F919C
:101A8A003F912F910F9000923B000F9000923F00E0
:061A9A000F901F9018954B
:101AA000CF93DF93CDB7DEB70E94DB18118280E0C1
:101AB00096E023E0FC0122830E94DB1813820E943F
:101AC000DB1814820E94DB1816860E94DB1813862E
:101AD0000E94DB18148680E096E024E0FC01208759
:101AE00080E096E020E4FC01218780E096E022E09F
:101AF000FC0125830E94DB18148A158A0E94DB18DA
:101B0000128A138A80E096E021E2FC01208380E0C3
:061B1000DF91CF91089562
:101B160029F416F00C9487180C9461180C940B1980
:101B26000E940A12A8F39638A0F707F80F92E894D5
:101B36002BE33AEA48EB5FE70E949A060F920F9270
:101B46000F924DB75EB70F920E94A00EE8EEF0E03E
:101B56000E94B5104F915F91EF91FF91E595EE1FB1
:101B6600FF1F49F0FE57E0684427EE0F441FFA9521
:101B7600E1F74195550B0E94C90D0F9007FE0C9495
:041B86002C1708957B
:101B8A000C9487180C9457160E940A12D8F39923BA
:101B9A00C9F3940F511DA3F39150504094F059F09A
:101BAA00882332F0660F771F881F91505040C1F783
:101BBA009E3F51052CF7880F911D9695879597F9A9
:101BCA0008955F3FACF0983E9CF0BB2786957795C9
:101BDA006795B79508F4B1609395C1F7BB0F58F7AD
:101BEA0011F460FFE8CF6F5F7F4F8F4F9F4FE3CFB6
:041BFA000C946218CD
:101BFE001F920F9200903F000F920E94FF180F92BB
:101C0E002F938F939F93EF93FF93CF93DF93CDB744
:101C1E00DEB780917A40813059F410927A4080E29A
:101C2E009AE0FC01808191818093D6409093D740B9
:101C3E0081E080937B4081E080937E400E94B018CB
:101C4E002383DF91CF91FF91EF919F918F912F91F0
:101C5E000F9000923B000F9000923F000F901F904C
:021C6E001895C7
:101C7000CF93DF93CDB7DEB72797CDBFDEBF8C8381
:101C80009D836E837F838C819D8189839A8315C018
:101C900080E499E029813A81F9012081FC012483C3
:101CA00080E499E0FC0183818823D4F780E499E003
:101CB000FC0184818B830E947B188E819F819C0113
:101CC000215031092E833F83892B11F72796CDBFF1
:081CD000DEBFDF91CF91089502
:101CD800CF93DF9300D0CDB7DEB719821A820E9466
:101CE800EA1628F519821A821EC089819A810E94F3
:101CF800B2162AE939E949E95EE3BC01CD010E943F
:101D0800C918181644F089819A81825F9F4B21E097
:101D1800FC01208306C089819A81825F9F4BFC0168
:101D280010820E947B1889819A810397F0F20F90A4
:081D38000F90DF91CF91089597
:101D4000FA01DC01AA0FBB1F9B01AC01BF5728F4AD
:101D5000222733274427507820C0B75190F4AB2F67
:101D60000024469537952795011CA395D2F30020B2
:101D700071F0220F331F441FB395DAF30ED00C9489
:101D80004C1861307105A0E88A07B94630F49B0110
:101D9000AC016627772788279078309621F020833A
:081DA00031834283538308954F
:101DA8001F920F9200903F000F920E94FF180F920F
:101DB8002F938F939F93EF93FF93CF93DF93CDB799
:101DC800DEB780E29AE0FC011082118281E0809304
:101DD8007A4081E080937D400E948D182383DF91B3
:101DE800CF91FF91EF919F918F912F910F9000923A
:0E1DF8003B000F9000923F000F901F90189537
:101E06000E940A1288F09F5798F0B92F9927B75168
:101E1600B0F0E1F0660F771F881F991F1AF0BA9588
:101E2600C9F714C0B13091F00E946118B1E008956D
:101E36000C946118672F782F8827B85F39F0B93F5F
:101E4600CCF3869577956795B395D9F73EF490953B
:0E1E56008095709561957F4F8F4F9F4F089537
:101E6400CF93DF931F92CDB7DEB78091DD408823F7
:101E7400C1F08091DC408F5F8F708983898180936A
:101E8400DC4080E298E02981222F30E0215D3F4B45
:101E9400F9012081FC0122838091DD4081508093EF
:101EA400DD408091DD40882329F40E9429182F7D8C
:0C1EB400FC0125830F90DF91CF91089571
:101EC000CF93DF9300D0CDB7DEB78A838091DB401C
:101ED0008F5F8F7089838091DD408031E1F389814C
:101EE000882F90E0815D9F4B2A81FC0120838981AE
:101EF0008093DB400FB6F8940F928091DD408F5FA6
:101F00008093DD400F900FBE0E9429182062FC01D3
:0C1F100025830F900F90DF91CF91089572
:101F1C00CF93DF93CDB7DEB72797CDBFDEBF8E83D0
:101F2C009F8325E0CE010196FC01322F11923A9548
:101F3C00E9F78E819F81892F992789838E818A83E6
:101F4C008091CE4060E00E94661262E0CE01019664
:101F5C000E942D138091CE4061E00E94661227965C
:0A1F6C00CDBFDEBFDF91CF910895D5
:101F76001F920F9200903F000F920E94FF180F923F
:101F86002F933F938F939F93EF93FF93CF93DF937B
:101F9600CDB7DEB780E298E020E238E0F90124818F
:101FA6002064FC012483DF91CF91FF91EF919F91F3
:101FB6008F913F912F910F9000923B000F900092CE
:081FC6003F000F901F901895D9
:101FCE00CF93DF93CDB7DEB760E088E790E00E9455
:101FDE00FC1560E08CE790E00E94FC1560E181E664
:101FEE0090E00E94FC1560E080E690E00E94FC15F7
:101FFE0060E083E690E00E94FC1564E288E690E0E3
:10200E000E94FC1560E082E690E00E94FC1580E0E4
:06201E00DF91CF9108954F
:10202400CF93DF931F92CDB7DEB70E94FB1879F0F0
:1020340082E08093E04080E090E0A0E70E94FF16F9
:1020440080E490E08093D4409093D5400EC081E02A
:102054008093E04080E090E0A8E40E94FF1680E5D1
:1020640090E08093D4409093D5400E9442050F9015
:06207400DF91CF910895F9
:10207A00CF93DF9300D0CDB7DEB780E298E0FC01C2
:10208A00808189838091D8408F5F8F708A83809105
:10209A00D9409A81981781F08A818093D8408A81A1
:1020AA00882F90E0815E9F4B2981FC0120838091DB
:1020BA00DA408F5F8093DA400F900F90DF91CF91D3
:0220CA00089577
:1020CC00CF93DF93CDB7DEB72697CDBFDEBF0E948F
:1020DC00A61819821A8219821A820DC08B819C81D2
:1020EC009C012F5F3F4F2B833C83FC0180810E941E
:1020FC00600F0E947B1829813A818D819E81821705
:10210C00930760F72696CDBFDEBFDF91CF91089580
:10211C00CF93DF93CDB7DEB72897CDBFDEBF6D83EE
:10212C007E838F8398870E94AB1827E73CEC4BE2A9
:10213C0051E40E94BA180E9407190E9412170E94BB
:10214C004D180E94B5180E94030F0E94DF16BC01A7
:0E215C00CD012896CDBFDEBFDF91CF91089553
:10216A00DF93CF931F930F93FF92EF92DF927B013E
:10217A008C01689406C0DA2EEF010E949706FE01D0
:10218A00E894A5912591359145915591A6F3EF01D2
:10219A000E940207FE019701A801DA9469F7DF900D
:0E21AA00EF90FF900F911F91CF91DF9108955C
:1021B800CF93DF931F92CDB7DEB78091DA408823A3
:1021C800E1F38091D9408F5F8F70898389818093F3
:1021D800D9400FB6F8940F928091DA4081508093DD
:1021E800DA400F900FBE8981882F90E0815E9F4B67
:0C21F800FC0180810F90DF91CF910895D1
:102204001F920F9200903F000F920E94FF180F92AE
:102214002F938F939F93EF93FF93CF93DF93CDB738
:10222400DEB780E096E021E0FC012587DF91CF91C5
:10223400FF91EF919F918F912F910F9000923B000E
:0C2244000F9000923F000F901F90189523
:102250001F920F9200903F000F920E94FF180F9262
:102260002F938F939F93EF93FF93CF93DF93CDB7EC
:10227000DEB780E890E021E0FC012287DF91CF917A
:10228000FF91EF919F918F912F910F9000923B00C2
:0C2290000F9000923F000F901F901895D7
:10229C00DC01CB019801220F331F220F331F265A6A
:1022AC003F4BF90180839183A283B3838981082FEB
:1022BC0010E08981882F90E0880F991F880F991F53
:1022CC00865A9F4BFC0180819181A281B38120E0D1
:0C22DC0030E048EC52E4BC01CD01089554
:1022E800CF93DF93CDB7DEB72697CDBFDEBF6B8325
:1022F8007C838D839E8319821A8221E63BE046E324
:1023080051E46B817C818D819E810E9407190E9416
:10231800B5180E94030FDC01CB010E94A118269674
:0A232800CDBFDEBFDF91CF91089515
:10233200990F0008550FAA0BE0E8FEEF16161706D4
:10234200E807F907C0F012161306E407F50798F03C
:10235200621B730B840B950B39F40A2661F0232B55
:10236200242B252B21F408950A2609F4A140A695D1
:082372008FEF811D811D08950C
:10237A00CF93DF93CDB7DEB70E9405010E94B61353
:10238A000E947F160E94E70F0E9472160E943B1657
:10239A000E94500D0E94F4080E943F090E94DE121A
:1023AA000E94A6080E9449160E9415130E94A113B2
:0623BA00DF91CF910895B0
:1023C000CF93DF9300D01F92CDB7DEB78B838B8185
:1023D0000E94A4120E94DF13982F81E0892788238E
:1023E000C9F70E94BE1689839A8380E096E021E0B7
:1023F000FC01258789819A812396CDBFDEBFDF91BD
:04240000CF910895DB
:1024040057FD9058440F551F59F05F3F71F04795A1
:10241400880F97FB991F61F09F3F79F08795089586
:10242400121613061406551FF2CF4695F1DF08C0A5
:10243400161617061806991FF1CF869571056105C2
:04244400089408955B
:10244800CF93DF93CDB7DEB72897CDBFDEBF0E940D
:10245800A6184F83588719821A822B813C818D8157
:102468009E81282B392B8F819885822B932B0E9454
:10247800A1180E948E0F2896CDBFDEBFDF91CF91A5
:022488000895B5
:10248A00CF93DF9300D0CDB7DEB71A8281E089837C
:10249A0010C01A8208C089810E9499160E94FA12F5
:1024AA008A818F5F8A838A818531A8F389818F5FC8
:1024BA0089838981843068F30F900F90DF91CF91DF
:0224CA00089573
:1024CC00CF93DF9300D0CDB7DEB789836A830E94A8
:1024DC00751849F08330910551F0019759F48A81B0
:1024EC000E94F21307C08A810E94051403C08A81DE
:0E24FC000E9445130F900F90DF91CF9108952D
:10250A00CF93DF9300D0CDB7DEB789836A830E9469
:10251A00751849F08330910551F0019759F48A8171
:10252A000E94181407C08A810E945C1303C08A8122
:0E253A000E9473130F900F90DF91CF910895C0
:10254800CF93DF931F92CDB7DEB7898380E096E003
:1025580020E036E0F90120812F7DFC01208380E016
:1025680096E02981FC01208780E096E021E0FC01CB
:0A25780022870F90DF91CF910895A4
:10258200CF93DF93CDB7DEB72697CDBFDEBF0E94D4
:10259200A6188B819C8189839A8329813A818D81B6
:1025A2009E81822B932B0E94A1180E948E0F269649
:0A25B200CDBFDEBFDF91CF91089589
:1025BC00CF93DF93CDB7DEB780E499E021E2FC0145
:1025CC00208380E499E022E0FC01218380E499E0FF
:1025DC00FC0112821092DE4080E499E0FC0113822F
:0825EC0080E0DF91CF9108951A
:1025F400CF93DF9300D0CDB7DEB78FE1898380918D
:10260400CF4060E00E94851261E0CE0101960E94F5
:102614002D138091CF4061E00E9485120F900F909E
:06262400DF91CF91089543
:10262A00CF93DF93CDB7DEB761E080E191E00E94FE
:10263A00EC1580E191E021E0FC01228380E191E048
:10264A0020E2FC012383789480E0DF91CF91089502
:10265A00CF93DF9300D01F92CDB7DEB789839A83D9
:10266A006B838B81282F30E089819A81B9010E947E
:10267A00380E80E02396CDBFDEBFDF91CF9108955B
:10268A00CF93DF931F92CDB7DEB70E94FB1831F0CC
:10269A0085E894E022E0FC01208305C086E894E006
:0E26AA0022E0FC0120830F90DF91CF91089574
:1026B800CF93DF931F92CDB7DEB70E94FB1831F09E
:1026C80085E894E024E0FC01208305C086E894E0D6
:0E26D80024E0FC0120830F90DF91CF91089544
:1026E600CF93DF931F92CDB7DEB70E94FB1831F070
:1026F60085E294E020E1FC01208305C086E294E0B7
:0E27060020E1FC0120830F90DF91CF91089518
:102714000F931F93CF93DF93CDB7DEB70E942C1690
:102724000E94B0070E940C160E94B0070E941C165B
:0E2734000E94B007DF91CF911F910F91089581
:10274200CF93DF93CDB7DEB780EA90E0FC0114822D
:1027520080EA90E025E8FC01208380EA90E0FC0119
:0A276200128280E0DF91CF9108950C
:10276C00CF93DF93CDB7DEB760E080E890E00E94B6
:10277C00FC1580E890E0FC01118680E890E0FC01FB
:0A278C00108680E0DF91CF910895E0
:10279600CF93DF9300D01F92CDB7DEB789836A83CC
:1027A6007B8389810E94600F80E090E02396CDBFF5
:0827B600DEBFDF91CF91089511
:1027BE00CF93DF93CDB7DEB70E94DB188585882FC8
:1027CE0090E08170992721E0892B09F420E0822F77
:0627DE00DF91CF91089588
:1027E400CF93DF931F92CDB7DEB70E94FB1821F081
:1027F40085E60E94971803C086E60E9497180F90FA
:06280400DF91CF91089561
:10280A00CF93DF931F92CDB7DEB70E94FB1821F05A
:10281A0085EA0E94921803C086EA0E9492180F90D5
:06282A00DF91CF9108953B
:10283000CF93DF931F92CDB7DEB70E94FB1821F034
:1028400085E00E94971803C086E00E9497180F90B9
:06285000DF91CF91089515
:10285600092E0394000C11F4882352F0BB0F40F4A8
:10286600BF2B11F460FF04C06F5F7F4F8F4F9F4FE8
:022876000895C3
:10287800CF93DF9300D0CDB7DEB70E94A118809325
:102888008040909381400F900F90DF91CF910895F1
:10289800CF93DF9300D0CDB7DEB70E94A118809305
:1028A8008240909383400F900F90DF91CF910895CD
:1028B800CF93DF9300D0CDB7DEB70E94A1188093E5
:1028C8008440909385400F900F90DF91CF910895A9
:1028D800CF93DF9300D0CDB7DEB70E94A1188093C5
:1028E8008640909387400F900F90DF91CF91089585
:1028F800CF93DF9300D0CDB7DEB70E94A1188093A5
:102908008840909389400F900F90DF91CF91089560
:10291800CF93DF9300D0CDB7DEB70E94A118809384
:102928008A4090938B400F900F90DF91CF9108953C
:10293800CF93DF9300D0CDB7DEB70E94A118809364
:102948008C4090938D400F900F90DF91CF91089518
:10295800CF93DF9300D0CDB7DEB70E94A118809344
:102968008E4090938F400F900F90DF91CF910895F4
:10297800CF93DF9300D0CDB7DEB70E94A118809324
:102988009040909391400F900F90DF91CF910895D0
:10299800CF93DF9300D0CDB7DEB70E94A118809304
:1029A8009240909393400F900F90DF91CF910895AC
:1029B800CF93DF9300D0CDB7DEB70E94A1188093E4
:1029C8009440909395400F900F90DF91CF91089588
:1029D800CF93DF9300D0CDB7DEB70E94A1188093C4
:1029E8009640909397400F900F90DF91CF91089564
:1029F800CF93DF9300D0CDB7DEB70E94A1188093A4
:102A08009840909399400F900F90DF91CF9108953F
:102A1800CF93DF9300D0CDB7DEB70E94A118809383
:102A28009A4090939B400F900F90DF91CF9108951B
:102A3800CF93DF9300D0CDB7DEB70E94A118809363
:102A48009C4090939D400F900F90DF91CF910895F7
:102A5800CF93DF9300D0CDB7DEB70E94A118809343
:102A68009E4090939F400F900F90DF91CF910895D3
:102A7800CF93DF9300D0CDB7DEB70E94A118809323
:102A8800A0409093A1400F900F90DF91CF910895AF
:102A9800CF93DF9300D0CDB7DEB70E94A118809303
:102AA800A2409093A3400F900F90DF91CF9108958B
:102AB800CF93DF9300D0CDB7DEB70E94A1188093E3
:102AC800A4409093A5400F900F90DF91CF91089567
:102AD800CF93DF9300D0CDB7DEB70E94A1188093C3
:102AE800A6409093A7400F900F90DF91CF91089543
:102AF800CF93DF9300D0CDB7DEB70E94A1188093A3
:102B0800A8409093A9400F900F90DF91CF9108951E
:102B1800CF93DF9300D0CDB7DEB70E94A118809382
:102B2800AA409093AB400F900F90DF91CF910895FA
:102B3800CF93DF9300D0CDB7DEB70E94A118809362
:102B4800AC409093AD400F900F90DF91CF910895D6
:102B5800CF93DF9300D0CDB7DEB70E94A118809342
:102B6800AE409093AF400F900F90DF91CF910895B2
:102B7800CF93DF9300D0CDB7DEB70E94A118809322
:102B8800B0409093B1400F900F90DF91CF9108958E
:102B9800CF93DF9300D0CDB7DEB70E94A118809302
:102BA800B2409093B3400F900F90DF91CF9108956A
:102BB800CF93DF9300D0CDB7DEB70E94A1188093E2
:102BC800B4409093B5400F900F90DF91CF91089546
:102BD800CF93DF9300D01F92CDB7DEB70E942417A2
:102BE8000E94C4182396CDBFDEBFDF91CF91089510
:102BF800CF93DF9300D01F92CDB7DEB70E94241782
:102C08000E94C4182396CDBFDEBFDF91CF910895EF
:102C18008091764090917740A0917840B09179402A
:102C280000E010E020EF32E4AC01BD0182E008953D
:102C38008091764090917740A0917840B09179400A
:102C480000E010E020E733E4AC01BD0183E0089523
:102C58008091764090917740A0917840B0917940EA
:0E2C680000E010E09801AC01BD0181E008958C
:102C7600CF93DF93CDB7DEB70E94B01822830E94B0
:0C2C8600B018208380E0DF91CF9108950A
:102C9200CF93DF93CDB7DEB70E948D1822830E94B7
:0C2CA2008D18208380E0DF91CF91089511
:102CAE009F3F31F0915020F4879577956795B795B2
:0C2CBE00880F911D9695879597F9089551
:102CCA00CF93DF93CDB7DEB79091DA4081E09923B5
:0A2CDA0009F480E0DF91CF91089526
:102CE400CF93DF93CDB7DEB760E080E590E00E943C
:0A2CF400FC1580E0DF91CF910895F8
:102CFE00CF93DF93CDB7DEB760E080E091E00E9426
:0A2D0E00FC1580E0DF91CF910895DD
:102D1800CF93DF931F92CDB7DEB7898389818093E4
:0A2D2800CE400F90DF91CF91089587
:102D3200CF93DF931F92CDB7DEB7898389818093CA
:0A2D4200CF400F90DF91CF9108956C
:102D4C00880F991F880F991F825B9F4BFC01C080D5
:082D5C00D180E280F3800895AC
:102D6400880F991F880F991F865A9F4BFC018081F9
:082D74009181A281B381089551
:102D7C00CF93DF93CDB7DEB70E94DB1880899189A2
:062D8C00DF91CF910895D4
:102D9200CF93DF93CDB7DEB780E091E00E948E0F34
:062DA200DF91CF910895BE
:102DA800CF93DF93CDB7DEB780E090E00E948E0F1F
:062DB800DF91CF910895A8
:102DBE00DC01CB0189839A83AB83BC8389819A81A1
:062DCE00AB81BC810895F9
:102DD4002091D4403091D5408091BC409091BD4029
:062DE400281739070895CD
:102DEA0089819A81880F991F8A599F4BFC0180819A
:042DFA009181089526
:102DFE00B2E48093764090937740A0937840B0935E
:042E0E00794008956A
:102E120080916E4090916F40A0917040B09171404E
:022E2200089511
:102E2400DC01CB0120E030E040E05FE3BC01CD01F8
:022E34000895FF
:102E360010926E4010926F40109270401092714046
:022E46000895ED
:102E480089839A836B8389819A814B8168ED089580
:102E58009B01AC0160E070E080E89FE30C940319EB
:0E2E6800CF93DF93CDB7DEB7DF91CF91089502
:0E2E7600CF93DF93CDB7DEB7DF91CF910895F4
:0E2E8400CF93DF93CDB7DEB7DF91CF910895E6
:0E2E9200CF93DF93CDB7DEB7DF91CF910895D8
:0E2EA000CF93DF93CDB7DEB7DF91CF910895CA
:0E2EAE00CF93DF93CDB7DEB7DF91CF910895BC
:0E2EBC00CF93DF93CDB7DEB7DF91CF910895AE
:0E2ECA00CF93DF93CDB7DEB7DF91CF910895A0
:0E2ED800CF93DF93CDB7DEB7DF91CF91089592
:0E2EE600CF93DF93CDB7DEB7DF91CF91089584
:0E2EF400CF93DF93CDB7DEB7DF91CF91089576
:0E2F0200CF93DF93CDB7DEB7DF91CF91089567
:0E2F1000CF93DF93CDB7DEB7DF91CF91089559
:0E2F1E00CF93DF93CDB7DEB7DF91CF9108954B
:0E2F2C00CF93DF93CDB7DEB7DF91CF9108953D
:0E2F3A00CF93DF93CDB7DEB7DF91CF9108952F
:0E2F4800CF93DF93CDB7DEB7DF91CF91089521
:0E2F5600CF93DF93CDB7DEB7DF91CF91089513
:0E2F6400CF93DF93CDB7DEB7DF91CF91089505
:0E2F7200CF93DF93CDB7DEB7DF91CF910895F7
:0E2F8000CF93DF93CDB7DEB7DF91CF910895E9
:0E2F8E00CF93DF93CDB7DEB7DF91CF910895DB
:0E2F9C00CF93DF93CDB7DEB7DF91CF910895CD
:0E2FAA00CF93DF93CDB7DEB7DF91CF910895BF
:0E2FB800CF93DF93CDB7DEB7DF91CF910895B1
:0E2FC600CF93DF93CDB7DEB7DF91CF910895A3
:0E2FD400CF93DF93CDB7DEB7DF91CF91089595
:0E2FE200CF93DF93CDB7DEB7DF91CF91089587
:0E2FF000CF93DF93CDB7DEB7DF91CF91089579
:0E2FFE00CF93DF93CDB7DEB7DF91CF9108956B
:0E300C00CF93DF93CDB7DEB7DF91CF9108955C
:0E301A00CF93DF93CDB7DEB7DF91CF9108954E
:0E302800CF93DF93CDB7DEB7DF91CF91089540
:0E303600CF93DF93CDB7DEB7DF91CF91089532
:0E304400CF93DF93CDB7DEB7DF91CF91089524
:0E30520080E298E020E238E0F901258108953F
:0E3060003B4FF90120812860FC012083089578
:0E306E009AE021E030E0FC0120A331A3089598
:0E307C00DC01CB019C01AD01C701B601089536
:0E308A0000E010E0980140E050E0BA01089527
:0E3098005058BB27AA270E9402070C942B1445
:0E30A60000240A941616170618060906089547
:0E30B40000240A941216130614060506089549
:0E30C200E894BB2766277727CB0197F908957E
:0E30D00091505040660F771F881FD2F7089569
:0C30DE0080E09AE02FEF3FEFFC01089526
:0C30EA008981882F90E0823091050895C4
:0C30F60089819A81019689839A8308954C
:0C310200CC01A0E0B0E0BC01CD010895BC
:0C310E0097F99F6780E870E060E008958A
:0A311A0080EC96E021E0FC0108952E
:0A31240094E028E0FC0120830895E8
:0A312E0094E020E8FC0120830895DE
:0A31380080E694E024E0FC01089515
:0A31420089839A8389819A81089598
:0A314C008B839C836D837E830895BE
:0A31560019821A821B821C82089560
:0A31600088EC96E021E0FC010895E0
:0A316A00DC01CB01BC01CD0108958A
:0A3174006D817E818F81988508959A
:0A317E006E817F8188859985089590
:0A3188001BBEFC0164BF40830895E4
:0A3192000E94991108F481E00895ED
:0A319C000E94991108F48FEF0895C6
:0831A60080E894E0FC010895AB
:0831AE0080E094E0FC010895AB
:0831B60080E096E0FC010895A1
:0831BE0080E09AE0FC01089595
:0831C60080E294E0FC01089591
:0831CE0080E494E0FC01089587
:0831D60080E49AE0FC01089579
:0831DE0080E694E0FC01089575
:0831E60080EA94E0FC01089569
:0831EE0080EE95E0FC0108955C
:0831F600898389818823089573
:0831FE00112400903B0008952C
:083206000E94C0050C942B147A
:08320E000E9497060C942B149A
:063216009FEF80EC08951B
:04321C000C9400000E
:0F322000000000000200000000CB1300000000BF
:04322F00040506008C
:04323300000048420D
:023237003D1048
:02323900320F52
:02323B00F11789
:02323D00F81780
:02323F00FF1777
:0232410006186D
:023243000D1864
:0232450014185B
:023247001B1852
:02324900221849
:02324B00500031
:01324D00017F
:02000004008278
:090000000000000000E000000017
:00000001FF
